{
	"Demo.sol": {
		"RockPaperScissors": {
			"abi": [
				{
					"inputs": [],
					"stateMutability": "nonpayable",
					"type": "constructor"
				},
				{
					"inputs": [],
					"name": "MIN_BET",
					"outputs": [
						{
							"internalType": "uint256",
							"name": "",
							"type": "uint256"
						}
					],
					"stateMutability": "view",
					"type": "function"
				},
				{
					"inputs": [],
					"name": "REVEAL_TIMEOUT",
					"outputs": [
						{
							"internalType": "uint256",
							"name": "",
							"type": "uint256"
						}
					],
					"stateMutability": "view",
					"type": "function"
				},
				{
					"inputs": [],
					"name": "betAmount",
					"outputs": [
						{
							"internalType": "uint256",
							"name": "",
							"type": "uint256"
						}
					],
					"stateMutability": "view",
					"type": "function"
				},
				{
					"inputs": [],
					"name": "bothPlayed",
					"outputs": [
						{
							"internalType": "bool",
							"name": "",
							"type": "bool"
						}
					],
					"stateMutability": "view",
					"type": "function"
				},
				{
					"inputs": [],
					"name": "bothRevealed",
					"outputs": [
						{
							"internalType": "bool",
							"name": "",
							"type": "bool"
						}
					],
					"stateMutability": "view",
					"type": "function"
				},
				{
					"inputs": [],
					"name": "clearMove1",
					"outputs": [
						{
							"internalType": "string",
							"name": "",
							"type": "string"
						}
					],
					"stateMutability": "view",
					"type": "function"
				},
				{
					"inputs": [],
					"name": "clearMove2",
					"outputs": [
						{
							"internalType": "string",
							"name": "",
							"type": "string"
						}
					],
					"stateMutability": "view",
					"type": "function"
				},
				{
					"inputs": [],
					"name": "contractBalance",
					"outputs": [
						{
							"internalType": "uint256",
							"name": "",
							"type": "uint256"
						}
					],
					"stateMutability": "view",
					"type": "function"
				},
				{
					"inputs": [],
					"name": "encryptedMove1",
					"outputs": [
						{
							"internalType": "bytes32",
							"name": "",
							"type": "bytes32"
						}
					],
					"stateMutability": "view",
					"type": "function"
				},
				{
					"inputs": [],
					"name": "encryptedMove2",
					"outputs": [
						{
							"internalType": "bytes32",
							"name": "",
							"type": "bytes32"
						}
					],
					"stateMutability": "view",
					"type": "function"
				},
				{
					"inputs": [],
					"name": "getContractBalance",
					"outputs": [
						{
							"internalType": "uint256",
							"name": "",
							"type": "uint256"
						}
					],
					"stateMutability": "view",
					"type": "function"
				},
				{
					"inputs": [
						{
							"internalType": "bytes32",
							"name": "encrMove",
							"type": "bytes32"
						}
					],
					"name": "play",
					"outputs": [],
					"stateMutability": "nonpayable",
					"type": "function"
				},
				{
					"inputs": [],
					"name": "player1",
					"outputs": [
						{
							"internalType": "address",
							"name": "",
							"type": "address"
						}
					],
					"stateMutability": "view",
					"type": "function"
				},
				{
					"inputs": [],
					"name": "player2",
					"outputs": [
						{
							"internalType": "address",
							"name": "",
							"type": "address"
						}
					],
					"stateMutability": "view",
					"type": "function"
				},
				{
					"inputs": [],
					"name": "register",
					"outputs": [],
					"stateMutability": "payable",
					"type": "function"
				},
				{
					"inputs": [
						{
							"internalType": "string",
							"name": "clearMove",
							"type": "string"
						},
						{
							"internalType": "string",
							"name": "password",
							"type": "string"
						}
					],
					"name": "reveal",
					"outputs": [],
					"stateMutability": "nonpayable",
					"type": "function"
				},
				{
					"inputs": [],
					"name": "revealTimeLeft",
					"outputs": [
						{
							"internalType": "uint256",
							"name": "",
							"type": "uint256"
						}
					],
					"stateMutability": "pure",
					"type": "function"
				},
				{
					"inputs": [],
					"name": "whoAmI",
					"outputs": [
						{
							"internalType": "uint256",
							"name": "",
							"type": "uint256"
						}
					],
					"stateMutability": "view",
					"type": "function"
				}
			],
			"devdoc": {
				"kind": "dev",
				"methods": {},
				"version": 1
			},
			"evm": {
				"assembly": "    /* \"Demo.sol\":60:5754  contract RockPaperScissors {... */\n  mstore(0x40, 0x80)\n    /* \"Demo.sol\":624:677  constructor() {... */\n  callvalue\n  dup1\n  iszero\n  tag_1\n  jumpi\n  0x00\n  dup1\n  revert\ntag_1:\n  pop\n    /* \"Demo.sol\":659:669  msg.sender */\n  caller\n    /* \"Demo.sol\":649:656  player1 */\n  0x00\n  dup1\n    /* \"Demo.sol\":649:669  player1 = msg.sender */\n  0x0100\n  exp\n  dup2\n  sload\n  dup2\n  0xffffffffffffffffffffffffffffffffffffffff\n  mul\n  not\n  and\n  swap1\n  dup4\n  0xffffffffffffffffffffffffffffffffffffffff\n  and\n  mul\n  or\n  swap1\n  sstore\n  pop\n    /* \"Demo.sol\":60:5754  contract RockPaperScissors {... */\n  dataSize(sub_0)\n  dup1\n  dataOffset(sub_0)\n  0x00\n  codecopy\n  0x00\n  return\nstop\n\nsub_0: assembly {\n        /* \"Demo.sol\":60:5754  contract RockPaperScissors {... */\n      mstore(0x40, 0x80)\n      jumpi(tag_1, lt(calldatasize, 0x04))\n      shr(0xe0, calldataload(0x00))\n      dup1\n      0x8b7afe2e\n      gt\n      tag_20\n      jumpi\n      dup1\n      0xc7a1865b\n      gt\n      tag_21\n      jumpi\n      dup1\n      0xc7a1865b\n      eq\n      tag_15\n      jumpi\n      dup1\n      0xd24257c0\n      eq\n      tag_16\n      jumpi\n      dup1\n      0xd30895e4\n      eq\n      tag_17\n      jumpi\n      dup1\n      0xda91254c\n      eq\n      tag_18\n      jumpi\n      dup1\n      0xe0942eee\n      eq\n      tag_19\n      jumpi\n      jump(tag_1)\n    tag_21:\n      dup1\n      0x8b7afe2e\n      eq\n      tag_11\n      jumpi\n      dup1\n      0xac8f5c1a\n      eq\n      tag_12\n      jumpi\n      dup1\n      0xb71e7307\n      eq\n      tag_13\n      jumpi\n      dup1\n      0xbffa480d\n      eq\n      tag_14\n      jumpi\n      jump(tag_1)\n    tag_20:\n      dup1\n      0x59a5f12d\n      gt\n      tag_22\n      jumpi\n      dup1\n      0x59a5f12d\n      eq\n      tag_6\n      jumpi\n      dup1\n      0x5ba1b2c7\n      eq\n      tag_7\n      jumpi\n      dup1\n      0x6540742f\n      eq\n      tag_8\n      jumpi\n      dup1\n      0x6f9fb98a\n      eq\n      tag_9\n      jumpi\n      dup1\n      0x807c8504\n      eq\n      tag_10\n      jumpi\n      jump(tag_1)\n    tag_22:\n      dup1\n      0x1aa3a008\n      eq\n      tag_2\n      jumpi\n      dup1\n      0x3d6ae3a7\n      eq\n      tag_3\n      jumpi\n      dup1\n      0x43445ca8\n      eq\n      tag_4\n      jumpi\n      dup1\n      0x51dcb1c3\n      eq\n      tag_5\n      jumpi\n    tag_1:\n      0x00\n      dup1\n      revert\n        /* \"Demo.sol\":1143:1578  function register() external payable {... */\n    tag_2:\n      tag_23\n      tag_24\n      jump\t// in\n    tag_23:\n      stop\n        /* \"Demo.sol\":183:229  uint256 public constant REVEAL_TIMEOUT = 86400 */\n    tag_3:\n      callvalue\n      dup1\n      iszero\n      tag_25\n      jumpi\n      0x00\n      dup1\n      revert\n    tag_25:\n      pop\n      tag_26\n      tag_27\n      jump\t// in\n    tag_26:\n      mload(0x40)\n      tag_28\n      swap2\n      swap1\n      tag_29\n      jump\t// in\n    tag_28:\n      mload(0x40)\n      dup1\n      swap2\n      sub\n      swap1\n      return\n        /* \"Demo.sol\":3524:3663  function bothRevealed() public view returns (bool) {... */\n    tag_4:\n      callvalue\n      dup1\n      iszero\n      tag_30\n      jumpi\n      0x00\n      dup1\n      revert\n    tag_30:\n      pop\n      tag_31\n      tag_32\n      jump\t// in\n    tag_31:\n      mload(0x40)\n      tag_33\n      swap2\n      swap1\n      tag_34\n      jump\t// in\n    tag_33:\n      mload(0x40)\n      dup1\n      swap2\n      sub\n      swap1\n      return\n        /* \"Demo.sol\":5530:5751  function revealTimeLeft() external pure returns (uint256) {... */\n    tag_5:\n      callvalue\n      dup1\n      iszero\n      tag_35\n      jumpi\n      0x00\n      dup1\n      revert\n    tag_35:\n      pop\n      tag_36\n      tag_37\n      jump\t// in\n    tag_36:\n      mload(0x40)\n      tag_38\n      swap2\n      swap1\n      tag_29\n      jump\t// in\n    tag_38:\n      mload(0x40)\n      dup1\n      swap2\n      sub\n      swap1\n      return\n        /* \"Demo.sol\":332:354  address public player2 */\n    tag_6:\n      callvalue\n      dup1\n      iszero\n      tag_39\n      jumpi\n      0x00\n      dup1\n      revert\n    tag_39:\n      pop\n      tag_40\n      tag_41\n      jump\t// in\n    tag_40:\n      mload(0x40)\n      tag_42\n      swap2\n      swap1\n      tag_43\n      jump\t// in\n    tag_42:\n      mload(0x40)\n      dup1\n      swap2\n      sub\n      swap1\n      return\n        /* \"Demo.sol\":2022:2632  function reveal(string memory clearMove, string memory password) external onlyRegisteredPlayer(msg.sender) moveNotRevealed(getPlayerEncryptedMove(msg.sender, password)) {... */\n    tag_7:\n      callvalue\n      dup1\n      iszero\n      tag_44\n      jumpi\n      0x00\n      dup1\n      revert\n    tag_44:\n      pop\n      tag_45\n      0x04\n      dup1\n      calldatasize\n      sub\n      dup2\n      add\n      swap1\n      tag_46\n      swap2\n      swap1\n      tag_47\n      jump\t// in\n    tag_46:\n      tag_48\n      jump\t// in\n    tag_45:\n      stop\n        /* \"Demo.sol\":112:161  uint256 public constant MIN_BET = 100000000000000 */\n    tag_8:\n      callvalue\n      dup1\n      iszero\n      tag_49\n      jumpi\n      0x00\n      dup1\n      revert\n    tag_49:\n      pop\n      tag_50\n      tag_51\n      jump\t// in\n    tag_50:\n      mload(0x40)\n      tag_52\n      swap2\n      swap1\n      tag_29\n      jump\t// in\n    tag_52:\n      mload(0x40)\n      dup1\n      swap2\n      sub\n      swap1\n      return\n        /* \"Demo.sol\":4883:4992  function getContractBalance() external view returns (uint256) {... */\n    tag_9:\n      callvalue\n      dup1\n      iszero\n      tag_53\n      jumpi\n      0x00\n      dup1\n      revert\n    tag_53:\n      pop\n      tag_54\n      tag_55\n      jump\t// in\n    tag_54:\n      mload(0x40)\n      tag_56\n      swap2\n      swap1\n      tag_29\n      jump\t// in\n    tag_56:\n      mload(0x40)\n      dup1\n      swap2\n      sub\n      swap1\n      return\n        /* \"Demo.sol\":5346:5471  function bothPlayed() external view returns (bool) {... */\n    tag_10:\n      callvalue\n      dup1\n      iszero\n      tag_57\n      jumpi\n      0x00\n      dup1\n      revert\n    tag_57:\n      pop\n      tag_58\n      tag_59\n      jump\t// in\n    tag_58:\n      mload(0x40)\n      tag_60\n      swap2\n      swap1\n      tag_34\n      jump\t// in\n    tag_60:\n      mload(0x40)\n      dup1\n      swap2\n      sub\n      swap1\n      return\n        /* \"Demo.sol\":526:556  uint256 public contractBalance */\n    tag_11:\n      callvalue\n      dup1\n      iszero\n      tag_61\n      jumpi\n      0x00\n      dup1\n      revert\n    tag_61:\n      pop\n      tag_62\n      tag_63\n      jump\t// in\n    tag_62:\n      mload(0x40)\n      tag_64\n      swap2\n      swap1\n      tag_29\n      jump\t// in\n    tag_64:\n      mload(0x40)\n      dup1\n      swap2\n      sub\n      swap1\n      return\n        /* \"Demo.sol\":464:488  string public clearMove2 */\n    tag_12:\n      callvalue\n      dup1\n      iszero\n      tag_65\n      jumpi\n      0x00\n      dup1\n      revert\n    tag_65:\n      pop\n      tag_66\n      tag_67\n      jump\t// in\n    tag_66:\n      mload(0x40)\n      tag_68\n      swap2\n      swap1\n      tag_69\n      jump\t// in\n    tag_68:\n      mload(0x40)\n      dup1\n      swap2\n      sub\n      swap1\n      return\n        /* \"Demo.sol\":397:426  bytes32 public encryptedMove2 */\n    tag_13:\n      callvalue\n      dup1\n      iszero\n      tag_70\n      jumpi\n      0x00\n      dup1\n      revert\n    tag_70:\n      pop\n      tag_71\n      tag_72\n      jump\t// in\n    tag_71:\n      mload(0x40)\n      tag_73\n      swap2\n      swap1\n      tag_74\n      jump\t// in\n    tag_73:\n      mload(0x40)\n      dup1\n      swap2\n      sub\n      swap1\n      return\n        /* \"Demo.sol\":361:390  bytes32 public encryptedMove1 */\n    tag_14:\n      callvalue\n      dup1\n      iszero\n      tag_75\n      jumpi\n      0x00\n      dup1\n      revert\n    tag_75:\n      pop\n      tag_76\n      tag_77\n      jump\t// in\n    tag_76:\n      mload(0x40)\n      tag_78\n      swap2\n      swap1\n      tag_74\n      jump\t// in\n    tag_78:\n      mload(0x40)\n      dup1\n      swap2\n      sub\n      swap1\n      return\n        /* \"Demo.sol\":1619:1979  function play(bytes32 encrMove) external onlyRegisteredPlayer(msg.sender) {... */\n    tag_15:\n      callvalue\n      dup1\n      iszero\n      tag_79\n      jumpi\n      0x00\n      dup1\n      revert\n    tag_79:\n      pop\n      tag_80\n      0x04\n      dup1\n      calldatasize\n      sub\n      dup2\n      add\n      swap1\n      tag_81\n      swap2\n      swap1\n      tag_82\n      jump\t// in\n    tag_81:\n      tag_83\n      jump\t// in\n    tag_80:\n      stop\n        /* \"Demo.sol\":495:519  uint256 public betAmount */\n    tag_16:\n      callvalue\n      dup1\n      iszero\n      tag_84\n      jumpi\n      0x00\n      dup1\n      revert\n    tag_84:\n      pop\n      tag_85\n      tag_86\n      jump\t// in\n    tag_85:\n      mload(0x40)\n      tag_87\n      swap2\n      swap1\n      tag_29\n      jump\t// in\n    tag_87:\n      mload(0x40)\n      dup1\n      swap2\n      sub\n      swap1\n      return\n        /* \"Demo.sol\":303:325  address public player1 */\n    tag_17:\n      callvalue\n      dup1\n      iszero\n      tag_88\n      jumpi\n      0x00\n      dup1\n      revert\n    tag_88:\n      pop\n      tag_89\n      tag_90\n      jump\t// in\n    tag_89:\n      mload(0x40)\n      tag_91\n      swap2\n      swap1\n      tag_43\n      jump\t// in\n    tag_91:\n      mload(0x40)\n      dup1\n      swap2\n      sub\n      swap1\n      return\n        /* \"Demo.sol\":5057:5296  function whoAmI() external view returns (uint256) {... */\n    tag_18:\n      callvalue\n      dup1\n      iszero\n      tag_92\n      jumpi\n      0x00\n      dup1\n      revert\n    tag_92:\n      pop\n      tag_93\n      tag_94\n      jump\t// in\n    tag_93:\n      mload(0x40)\n      tag_95\n      swap2\n      swap1\n      tag_29\n      jump\t// in\n    tag_95:\n      mload(0x40)\n      dup1\n      swap2\n      sub\n      swap1\n      return\n        /* \"Demo.sol\":433:457  string public clearMove1 */\n    tag_19:\n      callvalue\n      dup1\n      iszero\n      tag_96\n      jumpi\n      0x00\n      dup1\n      revert\n    tag_96:\n      pop\n      tag_97\n      tag_98\n      jump\t// in\n    tag_97:\n      mload(0x40)\n      tag_99\n      swap2\n      swap1\n      tag_69\n      jump\t// in\n    tag_99:\n      mload(0x40)\n      dup1\n      swap2\n      sub\n      swap1\n      return\n        /* \"Demo.sol\":1143:1578  function register() external payable {... */\n    tag_24:\n        /* \"Demo.sol\":146:161  100000000000000 */\n      0x5af3107a4000\n        /* \"Demo.sol\":1199:1208  msg.value */\n      callvalue\n        /* \"Demo.sol\":1199:1219  msg.value >= MIN_BET */\n      lt\n      iszero\n        /* \"Demo.sol\":1191:1247  require(msg.value >= MIN_BET, \"Insufficient bet amount\") */\n      tag_101\n      jumpi\n      mload(0x40)\n      0x08c379a000000000000000000000000000000000000000000000000000000000\n      dup2\n      mstore\n      0x04\n      add\n      tag_102\n      swap1\n      tag_103\n      jump\t// in\n    tag_102:\n      mload(0x40)\n      dup1\n      swap2\n      sub\n      swap1\n      revert\n    tag_101:\n        /* \"Demo.sol\":1285:1286  0 */\n      0x00\n        /* \"Demo.sol\":1266:1287  player1 == address(0) */\n      0xffffffffffffffffffffffffffffffffffffffff\n      and\n        /* \"Demo.sol\":1266:1273  player1 */\n      0x00\n      dup1\n      sload\n      swap1\n      0x0100\n      exp\n      swap1\n      div\n      0xffffffffffffffffffffffffffffffffffffffff\n      and\n        /* \"Demo.sol\":1266:1287  player1 == address(0) */\n      0xffffffffffffffffffffffffffffffffffffffff\n      and\n      eq\n        /* \"Demo.sol\":1266:1312  player1 == address(0) || player2 == address(0) */\n      dup1\n      tag_104\n      jumpi\n      pop\n        /* \"Demo.sol\":1310:1311  0 */\n      0x00\n        /* \"Demo.sol\":1291:1312  player2 == address(0) */\n      0xffffffffffffffffffffffffffffffffffffffff\n      and\n        /* \"Demo.sol\":1291:1298  player2 */\n      0x01\n      0x00\n      swap1\n      sload\n      swap1\n      0x0100\n      exp\n      swap1\n      div\n      0xffffffffffffffffffffffffffffffffffffffff\n      and\n        /* \"Demo.sol\":1291:1312  player2 == address(0) */\n      0xffffffffffffffffffffffffffffffffffffffff\n      and\n      eq\n        /* \"Demo.sol\":1266:1312  player1 == address(0) || player2 == address(0) */\n    tag_104:\n        /* \"Demo.sol\":1258:1352  require(player1 == address(0) || player2 == address(0), \"Both players are already registered\") */\n      tag_105\n      jumpi\n      mload(0x40)\n      0x08c379a000000000000000000000000000000000000000000000000000000000\n      dup2\n      mstore\n      0x04\n      add\n      tag_106\n      swap1\n      tag_107\n      jump\t// in\n    tag_106:\n      mload(0x40)\n      dup1\n      swap2\n      sub\n      swap1\n      revert\n    tag_105:\n        /* \"Demo.sol\":1396:1397  0 */\n      0x00\n        /* \"Demo.sol\":1377:1398  player1 == address(0) */\n      0xffffffffffffffffffffffffffffffffffffffff\n      and\n        /* \"Demo.sol\":1377:1384  player1 */\n      0x00\n      dup1\n      sload\n      swap1\n      0x0100\n      exp\n      swap1\n      div\n      0xffffffffffffffffffffffffffffffffffffffff\n      and\n        /* \"Demo.sol\":1377:1398  player1 == address(0) */\n      0xffffffffffffffffffffffffffffffffffffffff\n      and\n      sub\n        /* \"Demo.sol\":1373:1500  if (player1 == address(0)) {... */\n      tag_108\n      jumpi\n        /* \"Demo.sol\":1425:1435  msg.sender */\n      caller\n        /* \"Demo.sol\":1415:1422  player1 */\n      0x00\n      dup1\n        /* \"Demo.sol\":1415:1435  player1 = msg.sender */\n      0x0100\n      exp\n      dup2\n      sload\n      dup2\n      0xffffffffffffffffffffffffffffffffffffffff\n      mul\n      not\n      and\n      swap1\n      dup4\n      0xffffffffffffffffffffffffffffffffffffffff\n      and\n      mul\n      or\n      swap1\n      sstore\n      pop\n        /* \"Demo.sol\":1373:1500  if (player1 == address(0)) {... */\n      jump(tag_109)\n    tag_108:\n        /* \"Demo.sol\":1478:1488  msg.sender */\n      caller\n        /* \"Demo.sol\":1468:1475  player2 */\n      0x01\n      0x00\n        /* \"Demo.sol\":1468:1488  player2 = msg.sender */\n      0x0100\n      exp\n      dup2\n      sload\n      dup2\n      0xffffffffffffffffffffffffffffffffffffffff\n      mul\n      not\n      and\n      swap1\n      dup4\n      0xffffffffffffffffffffffffffffffffffffffff\n      and\n      mul\n      or\n      swap1\n      sstore\n      pop\n        /* \"Demo.sol\":1373:1500  if (player1 == address(0)) {... */\n    tag_109:\n        /* \"Demo.sol\":1522:1531  msg.value */\n      callvalue\n        /* \"Demo.sol\":1510:1519  betAmount */\n      0x06\n        /* \"Demo.sol\":1510:1531  betAmount = msg.value */\n      dup2\n      swap1\n      sstore\n      pop\n        /* \"Demo.sol\":1561:1570  msg.value */\n      callvalue\n        /* \"Demo.sol\":1542:1557  contractBalance */\n      0x07\n      0x00\n        /* \"Demo.sol\":1542:1570  contractBalance += msg.value */\n      dup3\n      dup3\n      sload\n      tag_110\n      swap2\n      swap1\n      tag_111\n      jump\t// in\n    tag_110:\n      swap3\n      pop\n      pop\n      dup2\n      swap1\n      sstore\n      pop\n        /* \"Demo.sol\":1143:1578  function register() external payable {... */\n      jump\t// out\n        /* \"Demo.sol\":183:229  uint256 public constant REVEAL_TIMEOUT = 86400 */\n    tag_27:\n        /* \"Demo.sol\":224:229  86400 */\n      0x015180\n        /* \"Demo.sol\":183:229  uint256 public constant REVEAL_TIMEOUT = 86400 */\n      dup2\n      jump\t// out\n        /* \"Demo.sol\":3524:3663  function bothRevealed() public view returns (bool) {... */\n    tag_32:\n        /* \"Demo.sol\":3569:3573  bool */\n      0x00\n        /* \"Demo.sol\":3621:3622  0 */\n      dup1\n        /* \"Demo.sol\":3600:3610  clearMove1 */\n      0x04\n        /* \"Demo.sol\":3594:3618  bytes(clearMove1).length */\n      dup1\n      sload\n      tag_113\n      swap1\n      tag_114\n      jump\t// in\n    tag_113:\n      swap1\n      pop\n        /* \"Demo.sol\":3594:3622  bytes(clearMove1).length > 0 */\n      gt\n        /* \"Demo.sol\":3594:3654  bytes(clearMove1).length > 0 && bytes(clearMove2).length > 0 */\n      dup1\n      iszero\n      tag_115\n      jumpi\n      pop\n        /* \"Demo.sol\":3653:3654  0 */\n      0x00\n        /* \"Demo.sol\":3632:3642  clearMove2 */\n      0x05\n        /* \"Demo.sol\":3626:3650  bytes(clearMove2).length */\n      dup1\n      sload\n      tag_116\n      swap1\n      tag_114\n      jump\t// in\n    tag_116:\n      swap1\n      pop\n        /* \"Demo.sol\":3626:3654  bytes(clearMove2).length > 0 */\n      gt\n        /* \"Demo.sol\":3594:3654  bytes(clearMove1).length > 0 && bytes(clearMove2).length > 0 */\n    tag_115:\n        /* \"Demo.sol\":3586:3655  return (bytes(clearMove1).length > 0 && bytes(clearMove2).length > 0) */\n      swap1\n      pop\n        /* \"Demo.sol\":3524:3663  function bothRevealed() public view returns (bool) {... */\n      swap1\n      jump\t// out\n        /* \"Demo.sol\":5530:5751  function revealTimeLeft() external pure returns (uint256) {... */\n    tag_37:\n        /* \"Demo.sol\":5579:5586  uint256 */\n      0x00\n        /* \"Demo.sol\":224:229  86400 */\n      0x015180\n        /* \"Demo.sol\":5722:5743  return REVEAL_TIMEOUT */\n      swap1\n      pop\n        /* \"Demo.sol\":5530:5751  function revealTimeLeft() external pure returns (uint256) {... */\n      swap1\n      jump\t// out\n        /* \"Demo.sol\":332:354  address public player2 */\n    tag_41:\n      0x01\n      0x00\n      swap1\n      sload\n      swap1\n      0x0100\n      exp\n      swap1\n      div\n      0xffffffffffffffffffffffffffffffffffffffff\n      and\n      dup2\n      jump\t// out\n        /* \"Demo.sol\":2022:2632  function reveal(string memory clearMove, string memory password) external onlyRegisteredPlayer(msg.sender) moveNotRevealed(getPlayerEncryptedMove(msg.sender, password)) {... */\n    tag_48:\n        /* \"Demo.sol\":2117:2127  msg.sender */\n      caller\n        /* \"Demo.sol\":812:819  player1 */\n      0x00\n      dup1\n      sload\n      swap1\n      0x0100\n      exp\n      swap1\n      div\n      0xffffffffffffffffffffffffffffffffffffffff\n      and\n        /* \"Demo.sol\":802:819  player == player1 */\n      0xffffffffffffffffffffffffffffffffffffffff\n      and\n        /* \"Demo.sol\":802:808  player */\n      dup2\n        /* \"Demo.sol\":802:819  player == player1 */\n      0xffffffffffffffffffffffffffffffffffffffff\n      and\n      eq\n        /* \"Demo.sol\":802:840  player == player1 || player == player2 */\n      dup1\n      tag_119\n      jumpi\n      pop\n        /* \"Demo.sol\":833:840  player2 */\n      0x01\n      0x00\n      swap1\n      sload\n      swap1\n      0x0100\n      exp\n      swap1\n      div\n      0xffffffffffffffffffffffffffffffffffffffff\n      and\n        /* \"Demo.sol\":823:840  player == player2 */\n      0xffffffffffffffffffffffffffffffffffffffff\n      and\n        /* \"Demo.sol\":823:829  player */\n      dup2\n        /* \"Demo.sol\":823:840  player == player2 */\n      0xffffffffffffffffffffffffffffffffffffffff\n      and\n      eq\n        /* \"Demo.sol\":802:840  player == player1 || player == player2 */\n    tag_119:\n        /* \"Demo.sol\":794:869  require(player == player1 || player == player2, \"Player is not registered\") */\n      tag_120\n      jumpi\n      mload(0x40)\n      0x08c379a000000000000000000000000000000000000000000000000000000000\n      dup2\n      mstore\n      0x04\n      add\n      tag_121\n      swap1\n      tag_122\n      jump\t// in\n    tag_121:\n      mload(0x40)\n      dup1\n      swap2\n      sub\n      swap1\n      revert\n    tag_120:\n        /* \"Demo.sol\":2145:2189  getPlayerEncryptedMove(msg.sender, password) */\n      tag_123\n        /* \"Demo.sol\":2168:2178  msg.sender */\n      caller\n        /* \"Demo.sol\":2180:2188  password */\n      dup4\n        /* \"Demo.sol\":2145:2167  getPlayerEncryptedMove */\n      tag_124\n        /* \"Demo.sol\":2145:2189  getPlayerEncryptedMove(msg.sender, password) */\n      jump\t// in\n    tag_123:\n        /* \"Demo.sol\":1052:1053  0 */\n      0x00\n        /* \"Demo.sol\":1044:1054  bytes32(0) */\n      dup1\n      shl\n        /* \"Demo.sol\":1027:1040  encryptedMove */\n      dup2\n        /* \"Demo.sol\":1027:1054  encryptedMove != bytes32(0) */\n      sub\n        /* \"Demo.sol\":1019:1089  require(encryptedMove != bytes32(0), \"Move has already been revealed\") */\n      tag_126\n      jumpi\n      mload(0x40)\n      0x08c379a000000000000000000000000000000000000000000000000000000000\n      dup2\n      mstore\n      0x04\n      add\n      tag_127\n      swap1\n      tag_128\n      jump\t// in\n    tag_127:\n      mload(0x40)\n      dup1\n      swap2\n      sub\n      swap1\n      revert\n    tag_126:\n        /* \"Demo.sol\":2220:2227  player1 */\n      0x00\n      dup1\n      sload\n      swap1\n      0x0100\n      exp\n      swap1\n      div\n      0xffffffffffffffffffffffffffffffffffffffff\n      and\n        /* \"Demo.sol\":2206:2227  msg.sender == player1 */\n      0xffffffffffffffffffffffffffffffffffffffff\n      and\n        /* \"Demo.sol\":2206:2216  msg.sender */\n      caller\n        /* \"Demo.sol\":2206:2227  msg.sender == player1 */\n      0xffffffffffffffffffffffffffffffffffffffff\n      and\n      sub\n        /* \"Demo.sol\":2202:2549  if (msg.sender == player1) {... */\n      tag_130\n      jumpi\n        /* \"Demo.sol\":2294:2308  encryptedMove1 */\n      sload(0x02)\n        /* \"Demo.sol\":2279:2288  clearMove */\n      dup5\n        /* \"Demo.sol\":2262:2289  abi.encodePacked(clearMove) */\n      add(0x20, mload(0x40))\n      tag_131\n      swap2\n      swap1\n      tag_132\n      jump\t// in\n    tag_131:\n      mload(0x40)\n      0x20\n      dup2\n      dup4\n      sub\n      sub\n      dup2\n      mstore\n      swap1\n      0x40\n      mstore\n        /* \"Demo.sol\":2252:2290  keccak256(abi.encodePacked(clearMove)) */\n      dup1\n      mload\n      swap1\n      0x20\n      add\n      keccak256\n        /* \"Demo.sol\":2252:2308  keccak256(abi.encodePacked(clearMove)) == encryptedMove1 */\n      eq\n        /* \"Demo.sol\":2244:2337  require(keccak256(abi.encodePacked(clearMove)) == encryptedMove1, \"Invalid move or password\") */\n      tag_133\n      jumpi\n      mload(0x40)\n      0x08c379a000000000000000000000000000000000000000000000000000000000\n      dup2\n      mstore\n      0x04\n      add\n      tag_134\n      swap1\n      tag_135\n      jump\t// in\n    tag_134:\n      mload(0x40)\n      dup1\n      swap2\n      sub\n      swap1\n      revert\n    tag_133:\n        /* \"Demo.sol\":2365:2374  clearMove */\n      dup4\n        /* \"Demo.sol\":2352:2362  clearMove1 */\n      0x04\n        /* \"Demo.sol\":2352:2374  clearMove1 = clearMove */\n      swap1\n      dup2\n      tag_136\n      swap2\n      swap1\n      tag_137\n      jump\t// in\n    tag_136:\n      pop\n        /* \"Demo.sol\":2202:2549  if (msg.sender == player1) {... */\n      jump(tag_138)\n    tag_130:\n        /* \"Demo.sol\":2457:2471  encryptedMove2 */\n      sload(0x03)\n        /* \"Demo.sol\":2442:2451  clearMove */\n      dup5\n        /* \"Demo.sol\":2425:2452  abi.encodePacked(clearMove) */\n      add(0x20, mload(0x40))\n      tag_139\n      swap2\n      swap1\n      tag_132\n      jump\t// in\n    tag_139:\n      mload(0x40)\n      0x20\n      dup2\n      dup4\n      sub\n      sub\n      dup2\n      mstore\n      swap1\n      0x40\n      mstore\n        /* \"Demo.sol\":2415:2453  keccak256(abi.encodePacked(clearMove)) */\n      dup1\n      mload\n      swap1\n      0x20\n      add\n      keccak256\n        /* \"Demo.sol\":2415:2471  keccak256(abi.encodePacked(clearMove)) == encryptedMove2 */\n      eq\n        /* \"Demo.sol\":2407:2500  require(keccak256(abi.encodePacked(clearMove)) == encryptedMove2, \"Invalid move or password\") */\n      tag_140\n      jumpi\n      mload(0x40)\n      0x08c379a000000000000000000000000000000000000000000000000000000000\n      dup2\n      mstore\n      0x04\n      add\n      tag_141\n      swap1\n      tag_135\n      jump\t// in\n    tag_141:\n      mload(0x40)\n      dup1\n      swap2\n      sub\n      swap1\n      revert\n    tag_140:\n        /* \"Demo.sol\":2528:2537  clearMove */\n      dup4\n        /* \"Demo.sol\":2515:2525  clearMove2 */\n      0x05\n        /* \"Demo.sol\":2515:2537  clearMove2 = clearMove */\n      swap1\n      dup2\n      tag_142\n      swap2\n      swap1\n      tag_137\n      jump\t// in\n    tag_142:\n      pop\n        /* \"Demo.sol\":2202:2549  if (msg.sender == player1) {... */\n    tag_138:\n        /* \"Demo.sol\":2565:2579  bothRevealed() */\n      tag_143\n        /* \"Demo.sol\":2565:2577  bothRevealed */\n      tag_32\n        /* \"Demo.sol\":2565:2579  bothRevealed() */\n      jump\t// in\n    tag_143:\n        /* \"Demo.sol\":2561:2625  if (bothRevealed()) {... */\n      iszero\n      tag_144\n      jumpi\n        /* \"Demo.sol\":2596:2613  determineWinner() */\n      tag_145\n        /* \"Demo.sol\":2596:2611  determineWinner */\n      tag_146\n        /* \"Demo.sol\":2596:2613  determineWinner() */\n      jump\t// in\n    tag_145:\n        /* \"Demo.sol\":2561:2625  if (bothRevealed()) {... */\n    tag_144:\n        /* \"Demo.sol\":880:881  _ */\n      pop\n        /* \"Demo.sol\":2022:2632  function reveal(string memory clearMove, string memory password) external onlyRegisteredPlayer(msg.sender) moveNotRevealed(getPlayerEncryptedMove(msg.sender, password)) {... */\n      pop\n      pop\n      pop\n      jump\t// out\n        /* \"Demo.sol\":112:161  uint256 public constant MIN_BET = 100000000000000 */\n    tag_51:\n        /* \"Demo.sol\":146:161  100000000000000 */\n      0x5af3107a4000\n        /* \"Demo.sol\":112:161  uint256 public constant MIN_BET = 100000000000000 */\n      dup2\n      jump\t// out\n        /* \"Demo.sol\":4883:4992  function getContractBalance() external view returns (uint256) {... */\n    tag_55:\n        /* \"Demo.sol\":4936:4943  uint256 */\n      0x00\n        /* \"Demo.sol\":4963:4984  address(this).balance */\n      selfbalance\n        /* \"Demo.sol\":4956:4984  return address(this).balance */\n      swap1\n      pop\n        /* \"Demo.sol\":4883:4992  function getContractBalance() external view returns (uint256) {... */\n      swap1\n      jump\t// out\n        /* \"Demo.sol\":5346:5471  function bothPlayed() external view returns (bool) {... */\n    tag_59:\n        /* \"Demo.sol\":5391:5395  bool */\n      0x00\n        /* \"Demo.sol\":5435:5436  0 */\n      dup1\n        /* \"Demo.sol\":5416:5437  player1 != address(0) */\n      0xffffffffffffffffffffffffffffffffffffffff\n      and\n        /* \"Demo.sol\":5416:5423  player1 */\n      0x00\n      dup1\n      sload\n      swap1\n      0x0100\n      exp\n      swap1\n      div\n      0xffffffffffffffffffffffffffffffffffffffff\n      and\n        /* \"Demo.sol\":5416:5437  player1 != address(0) */\n      0xffffffffffffffffffffffffffffffffffffffff\n      and\n      eq\n      iszero\n        /* \"Demo.sol\":5416:5462  player1 != address(0) && player2 != address(0) */\n      dup1\n      iszero\n      tag_149\n      jumpi\n      pop\n        /* \"Demo.sol\":5460:5461  0 */\n      0x00\n        /* \"Demo.sol\":5441:5462  player2 != address(0) */\n      0xffffffffffffffffffffffffffffffffffffffff\n      and\n        /* \"Demo.sol\":5441:5448  player2 */\n      0x01\n      0x00\n      swap1\n      sload\n      swap1\n      0x0100\n      exp\n      swap1\n      div\n      0xffffffffffffffffffffffffffffffffffffffff\n      and\n        /* \"Demo.sol\":5441:5462  player2 != address(0) */\n      0xffffffffffffffffffffffffffffffffffffffff\n      and\n      eq\n      iszero\n        /* \"Demo.sol\":5416:5462  player1 != address(0) && player2 != address(0) */\n    tag_149:\n        /* \"Demo.sol\":5408:5463  return (player1 != address(0) && player2 != address(0)) */\n      swap1\n      pop\n        /* \"Demo.sol\":5346:5471  function bothPlayed() external view returns (bool) {... */\n      swap1\n      jump\t// out\n        /* \"Demo.sol\":526:556  uint256 public contractBalance */\n    tag_63:\n      sload(0x07)\n      dup2\n      jump\t// out\n        /* \"Demo.sol\":464:488  string public clearMove2 */\n    tag_67:\n      0x05\n      dup1\n      sload\n      tag_150\n      swap1\n      tag_114\n      jump\t// in\n    tag_150:\n      dup1\n      0x1f\n      add\n      0x20\n      dup1\n      swap2\n      div\n      mul\n      0x20\n      add\n      mload(0x40)\n      swap1\n      dup2\n      add\n      0x40\n      mstore\n      dup1\n      swap3\n      swap2\n      swap1\n      dup2\n      dup2\n      mstore\n      0x20\n      add\n      dup3\n      dup1\n      sload\n      tag_151\n      swap1\n      tag_114\n      jump\t// in\n    tag_151:\n      dup1\n      iszero\n      tag_152\n      jumpi\n      dup1\n      0x1f\n      lt\n      tag_153\n      jumpi\n      0x0100\n      dup1\n      dup4\n      sload\n      div\n      mul\n      dup4\n      mstore\n      swap2\n      0x20\n      add\n      swap2\n      jump(tag_152)\n    tag_153:\n      dup3\n      add\n      swap2\n      swap1\n      0x00\n      mstore\n      keccak256(0x00, 0x20)\n      swap1\n    tag_154:\n      dup2\n      sload\n      dup2\n      mstore\n      swap1\n      0x01\n      add\n      swap1\n      0x20\n      add\n      dup1\n      dup4\n      gt\n      tag_154\n      jumpi\n      dup3\n      swap1\n      sub\n      0x1f\n      and\n      dup3\n      add\n      swap2\n    tag_152:\n      pop\n      pop\n      pop\n      pop\n      pop\n      dup2\n      jump\t// out\n        /* \"Demo.sol\":397:426  bytes32 public encryptedMove2 */\n    tag_72:\n      sload(0x03)\n      dup2\n      jump\t// out\n        /* \"Demo.sol\":361:390  bytes32 public encryptedMove1 */\n    tag_77:\n      sload(0x02)\n      dup2\n      jump\t// out\n        /* \"Demo.sol\":1619:1979  function play(bytes32 encrMove) external onlyRegisteredPlayer(msg.sender) {... */\n    tag_83:\n        /* \"Demo.sol\":1681:1691  msg.sender */\n      caller\n        /* \"Demo.sol\":812:819  player1 */\n      0x00\n      dup1\n      sload\n      swap1\n      0x0100\n      exp\n      swap1\n      div\n      0xffffffffffffffffffffffffffffffffffffffff\n      and\n        /* \"Demo.sol\":802:819  player == player1 */\n      0xffffffffffffffffffffffffffffffffffffffff\n      and\n        /* \"Demo.sol\":802:808  player */\n      dup2\n        /* \"Demo.sol\":802:819  player == player1 */\n      0xffffffffffffffffffffffffffffffffffffffff\n      and\n      eq\n        /* \"Demo.sol\":802:840  player == player1 || player == player2 */\n      dup1\n      tag_156\n      jumpi\n      pop\n        /* \"Demo.sol\":833:840  player2 */\n      0x01\n      0x00\n      swap1\n      sload\n      swap1\n      0x0100\n      exp\n      swap1\n      div\n      0xffffffffffffffffffffffffffffffffffffffff\n      and\n        /* \"Demo.sol\":823:840  player == player2 */\n      0xffffffffffffffffffffffffffffffffffffffff\n      and\n        /* \"Demo.sol\":823:829  player */\n      dup2\n        /* \"Demo.sol\":823:840  player == player2 */\n      0xffffffffffffffffffffffffffffffffffffffff\n      and\n      eq\n        /* \"Demo.sol\":802:840  player == player1 || player == player2 */\n    tag_156:\n        /* \"Demo.sol\":794:869  require(player == player1 || player == player2, \"Player is not registered\") */\n      tag_157\n      jumpi\n      mload(0x40)\n      0x08c379a000000000000000000000000000000000000000000000000000000000\n      dup2\n      mstore\n      0x04\n      add\n      tag_158\n      swap1\n      tag_122\n      jump\t// in\n    tag_158:\n      mload(0x40)\n      dup1\n      swap2\n      sub\n      swap1\n      revert\n    tag_157:\n        /* \"Demo.sol\":1738:1739  0 */\n      0x00\n        /* \"Demo.sol\":1730:1740  bytes32(0) */\n      dup1\n      shl\n        /* \"Demo.sol\":1712:1726  encryptedMove1 */\n      sload(0x02)\n        /* \"Demo.sol\":1712:1740  encryptedMove1 == bytes32(0) */\n      eq\n        /* \"Demo.sol\":1712:1772  encryptedMove1 == bytes32(0) || encryptedMove2 == bytes32(0) */\n      dup1\n      tag_160\n      jumpi\n      pop\n        /* \"Demo.sol\":1770:1771  0 */\n      0x00\n        /* \"Demo.sol\":1762:1772  bytes32(0) */\n      dup1\n      shl\n        /* \"Demo.sol\":1744:1758  encryptedMove2 */\n      sload(0x03)\n        /* \"Demo.sol\":1744:1772  encryptedMove2 == bytes32(0) */\n      eq\n        /* \"Demo.sol\":1712:1772  encryptedMove1 == bytes32(0) || encryptedMove2 == bytes32(0) */\n    tag_160:\n        /* \"Demo.sol\":1704:1824  require(encryptedMove1 == bytes32(0) || encryptedMove2 == bytes32(0), \"Both players have already submitted their moves\") */\n      tag_161\n      jumpi\n      mload(0x40)\n      0x08c379a000000000000000000000000000000000000000000000000000000000\n      dup2\n      mstore\n      0x04\n      add\n      tag_162\n      swap1\n      tag_163\n      jump\t// in\n    tag_162:\n      mload(0x40)\n      dup1\n      swap2\n      sub\n      swap1\n      revert\n    tag_161:\n        /* \"Demo.sol\":1853:1860  player1 */\n      0x00\n      dup1\n      sload\n      swap1\n      0x0100\n      exp\n      swap1\n      div\n      0xffffffffffffffffffffffffffffffffffffffff\n      and\n        /* \"Demo.sol\":1839:1860  msg.sender == player1 */\n      0xffffffffffffffffffffffffffffffffffffffff\n      and\n        /* \"Demo.sol\":1839:1849  msg.sender */\n      caller\n        /* \"Demo.sol\":1839:1860  msg.sender == player1 */\n      0xffffffffffffffffffffffffffffffffffffffff\n      and\n      sub\n        /* \"Demo.sol\":1835:1972  if (msg.sender == player1) {... */\n      tag_164\n      jumpi\n        /* \"Demo.sol\":1894:1902  encrMove */\n      dup2\n        /* \"Demo.sol\":1877:1891  encryptedMove1 */\n      0x02\n        /* \"Demo.sol\":1877:1902  encryptedMove1 = encrMove */\n      dup2\n      swap1\n      sstore\n      pop\n        /* \"Demo.sol\":1835:1972  if (msg.sender == player1) {... */\n      jump(tag_165)\n    tag_164:\n        /* \"Demo.sol\":1952:1960  encrMove */\n      dup2\n        /* \"Demo.sol\":1935:1949  encryptedMove2 */\n      0x03\n        /* \"Demo.sol\":1935:1960  encryptedMove2 = encrMove */\n      dup2\n      swap1\n      sstore\n      pop\n        /* \"Demo.sol\":1835:1972  if (msg.sender == player1) {... */\n    tag_165:\n        /* \"Demo.sol\":1619:1979  function play(bytes32 encrMove) external onlyRegisteredPlayer(msg.sender) {... */\n      pop\n      pop\n      jump\t// out\n        /* \"Demo.sol\":495:519  uint256 public betAmount */\n    tag_86:\n      sload(0x06)\n      dup2\n      jump\t// out\n        /* \"Demo.sol\":303:325  address public player1 */\n    tag_90:\n      0x00\n      dup1\n      sload\n      swap1\n      0x0100\n      exp\n      swap1\n      div\n      0xffffffffffffffffffffffffffffffffffffffff\n      and\n      dup2\n      jump\t// out\n        /* \"Demo.sol\":5057:5296  function whoAmI() external view returns (uint256) {... */\n    tag_94:\n        /* \"Demo.sol\":5098:5105  uint256 */\n      0x00\n        /* \"Demo.sol\":5136:5143  player1 */\n      dup1\n      0x00\n      swap1\n      sload\n      swap1\n      0x0100\n      exp\n      swap1\n      div\n      0xffffffffffffffffffffffffffffffffffffffff\n      and\n        /* \"Demo.sol\":5122:5143  msg.sender == player1 */\n      0xffffffffffffffffffffffffffffffffffffffff\n      and\n        /* \"Demo.sol\":5122:5132  msg.sender */\n      caller\n        /* \"Demo.sol\":5122:5143  msg.sender == player1 */\n      0xffffffffffffffffffffffffffffffffffffffff\n      and\n      sub\n        /* \"Demo.sol\":5118:5289  if (msg.sender == player1) {... */\n      tag_167\n      jumpi\n        /* \"Demo.sol\":5167:5168  1 */\n      0x01\n        /* \"Demo.sol\":5160:5168  return 1 */\n      swap1\n      pop\n      jump(tag_166)\n        /* \"Demo.sol\":5118:5289  if (msg.sender == player1) {... */\n    tag_167:\n        /* \"Demo.sol\":5204:5211  player2 */\n      0x01\n      0x00\n      swap1\n      sload\n      swap1\n      0x0100\n      exp\n      swap1\n      div\n      0xffffffffffffffffffffffffffffffffffffffff\n      and\n        /* \"Demo.sol\":5190:5211  msg.sender == player2 */\n      0xffffffffffffffffffffffffffffffffffffffff\n      and\n        /* \"Demo.sol\":5190:5200  msg.sender */\n      caller\n        /* \"Demo.sol\":5190:5211  msg.sender == player2 */\n      0xffffffffffffffffffffffffffffffffffffffff\n      and\n      sub\n        /* \"Demo.sol\":5186:5289  if (msg.sender == player2) {... */\n      tag_169\n      jumpi\n        /* \"Demo.sol\":5235:5236  2 */\n      0x02\n        /* \"Demo.sol\":5228:5236  return 2 */\n      swap1\n      pop\n      jump(tag_166)\n        /* \"Demo.sol\":5186:5289  if (msg.sender == player2) {... */\n    tag_169:\n        /* \"Demo.sol\":5276:5277  0 */\n      0x00\n        /* \"Demo.sol\":5269:5277  return 0 */\n      swap1\n      pop\n        /* \"Demo.sol\":5057:5296  function whoAmI() external view returns (uint256) {... */\n    tag_166:\n      swap1\n      jump\t// out\n        /* \"Demo.sol\":433:457  string public clearMove1 */\n    tag_98:\n      0x04\n      dup1\n      sload\n      tag_171\n      swap1\n      tag_114\n      jump\t// in\n    tag_171:\n      dup1\n      0x1f\n      add\n      0x20\n      dup1\n      swap2\n      div\n      mul\n      0x20\n      add\n      mload(0x40)\n      swap1\n      dup2\n      add\n      0x40\n      mstore\n      dup1\n      swap3\n      swap2\n      swap1\n      dup2\n      dup2\n      mstore\n      0x20\n      add\n      dup3\n      dup1\n      sload\n      tag_172\n      swap1\n      tag_114\n      jump\t// in\n    tag_172:\n      dup1\n      iszero\n      tag_173\n      jumpi\n      dup1\n      0x1f\n      lt\n      tag_174\n      jumpi\n      0x0100\n      dup1\n      dup4\n      sload\n      div\n      mul\n      dup4\n      mstore\n      swap2\n      0x20\n      add\n      swap2\n      jump(tag_173)\n    tag_174:\n      dup3\n      add\n      swap2\n      swap1\n      0x00\n      mstore\n      keccak256(0x00, 0x20)\n      swap1\n    tag_175:\n      dup2\n      sload\n      dup2\n      mstore\n      swap1\n      0x01\n      add\n      swap1\n      0x20\n      add\n      dup1\n      dup4\n      gt\n      tag_175\n      jumpi\n      dup3\n      swap1\n      sub\n      0x1f\n      and\n      dup3\n      add\n      swap2\n    tag_173:\n      pop\n      pop\n      pop\n      pop\n      pop\n      dup2\n      jump\t// out\n        /* \"Demo.sol\":4667:4842  function getPlayerEncryptedMove(address player, string memory password) internal pure returns (bytes32) {... */\n    tag_124:\n        /* \"Demo.sol\":4762:4769  bytes32 */\n      0x00\n        /* \"Demo.sol\":4816:4822  player */\n      dup3\n        /* \"Demo.sol\":4824:4832  password */\n      dup3\n        /* \"Demo.sol\":4799:4833  abi.encodePacked(player, password) */\n      add(0x20, mload(0x40))\n      tag_177\n      swap3\n      swap2\n      swap1\n      tag_178\n      jump\t// in\n    tag_177:\n      mload(0x40)\n      0x20\n      dup2\n      dup4\n      sub\n      sub\n      dup2\n      mstore\n      swap1\n      0x40\n      mstore\n        /* \"Demo.sol\":4789:4834  keccak256(abi.encodePacked(player, password)) */\n      dup1\n      mload\n      swap1\n      0x20\n      add\n      keccak256\n        /* \"Demo.sol\":4782:4834  return keccak256(abi.encodePacked(player, password)) */\n      swap1\n      pop\n        /* \"Demo.sol\":4667:4842  function getPlayerEncryptedMove(address player, string memory password) internal pure returns (bytes32) {... */\n      swap3\n      swap2\n      pop\n      pop\n      jump\t// out\n        /* \"Demo.sol\":2698:3448  function determineWinner() internal {... */\n    tag_146:\n        /* \"Demo.sol\":2753:2767  bothRevealed() */\n      tag_180\n        /* \"Demo.sol\":2753:2765  bothRevealed */\n      tag_32\n        /* \"Demo.sol\":2753:2767  bothRevealed() */\n      jump\t// in\n    tag_180:\n        /* \"Demo.sol\":2745:2818  require(bothRevealed(), \"Both players have not revealed their moves yet\") */\n      tag_181\n      jumpi\n      mload(0x40)\n      0x08c379a000000000000000000000000000000000000000000000000000000000\n      dup2\n      mstore\n      0x04\n      add\n      tag_182\n      swap1\n      tag_183\n      jump\t// in\n    tag_182:\n      mload(0x40)\n      dup1\n      swap2\n      sub\n      swap1\n      revert\n    tag_181:\n        /* \"Demo.sol\":2976:2998  address payable winner */\n      0x00\n        /* \"Demo.sol\":3013:3030  isPlayer1Winner() */\n      tag_184\n        /* \"Demo.sol\":3013:3028  isPlayer1Winner */\n      tag_185\n        /* \"Demo.sol\":3013:3030  isPlayer1Winner() */\n      jump\t// in\n    tag_184:\n        /* \"Demo.sol\":3009:3374  if (isPlayer1Winner()) {... */\n      iszero\n      tag_186\n      jumpi\n        /* \"Demo.sol\":3064:3071  player1 */\n      0x00\n      dup1\n      sload\n      swap1\n      0x0100\n      exp\n      swap1\n      div\n      0xffffffffffffffffffffffffffffffffffffffff\n      and\n        /* \"Demo.sol\":3047:3072  winner = payable(player1) */\n      swap1\n      pop\n        /* \"Demo.sol\":3009:3374  if (isPlayer1Winner()) {... */\n      jump(tag_187)\n    tag_186:\n        /* \"Demo.sol\":3094:3111  isPlayer2Winner() */\n      tag_188\n        /* \"Demo.sol\":3094:3109  isPlayer2Winner */\n      tag_189\n        /* \"Demo.sol\":3094:3111  isPlayer2Winner() */\n      jump\t// in\n    tag_188:\n        /* \"Demo.sol\":3090:3374  if (isPlayer2Winner()) {... */\n      iszero\n      tag_190\n      jumpi\n        /* \"Demo.sol\":3145:3152  player2 */\n      0x01\n      0x00\n      swap1\n      sload\n      swap1\n      0x0100\n      exp\n      swap1\n      div\n      0xffffffffffffffffffffffffffffffffffffffff\n      and\n        /* \"Demo.sol\":3128:3153  winner = payable(player2) */\n      swap1\n      pop\n        /* \"Demo.sol\":3090:3374  if (isPlayer2Winner()) {... */\n      jump(tag_191)\n    tag_190:\n        /* \"Demo.sol\":3236:3243  player1 */\n      0x00\n      dup1\n      sload\n      swap1\n      0x0100\n      exp\n      swap1\n      div\n      0xffffffffffffffffffffffffffffffffffffffff\n      and\n        /* \"Demo.sol\":3228:3253  payable(player1).transfer */\n      0xffffffffffffffffffffffffffffffffffffffff\n      and\n        /* \"Demo.sol\":3228:3264  payable(player1).transfer(betAmount) */\n      0x08fc\n        /* \"Demo.sol\":3254:3263  betAmount */\n      sload(0x06)\n        /* \"Demo.sol\":3228:3264  payable(player1).transfer(betAmount) */\n      swap1\n      dup2\n      iszero\n      mul\n      swap1\n      mload(0x40)\n      0x00\n      mload(0x40)\n      dup1\n      dup4\n      sub\n      dup2\n      dup6\n      dup9\n      dup9\n      call\n      swap4\n      pop\n      pop\n      pop\n      pop\n      iszero\n      dup1\n      iszero\n      tag_193\n      jumpi\n      returndatasize\n      0x00\n      dup1\n      returndatacopy\n      revert(0x00, returndatasize)\n    tag_193:\n      pop\n        /* \"Demo.sol\":3287:3294  player2 */\n      0x01\n      0x00\n      swap1\n      sload\n      swap1\n      0x0100\n      exp\n      swap1\n      div\n      0xffffffffffffffffffffffffffffffffffffffff\n      and\n        /* \"Demo.sol\":3279:3304  payable(player2).transfer */\n      0xffffffffffffffffffffffffffffffffffffffff\n      and\n        /* \"Demo.sol\":3279:3315  payable(player2).transfer(betAmount) */\n      0x08fc\n        /* \"Demo.sol\":3305:3314  betAmount */\n      sload(0x06)\n        /* \"Demo.sol\":3279:3315  payable(player2).transfer(betAmount) */\n      swap1\n      dup2\n      iszero\n      mul\n      swap1\n      mload(0x40)\n      0x00\n      mload(0x40)\n      dup1\n      dup4\n      sub\n      dup2\n      dup6\n      dup9\n      dup9\n      call\n      swap4\n      pop\n      pop\n      pop\n      pop\n      iszero\n      dup1\n      iszero\n      tag_195\n      jumpi\n      returndatasize\n      0x00\n      dup1\n      returndatacopy\n      revert(0x00, returndatasize)\n    tag_195:\n      pop\n        /* \"Demo.sol\":3330:3341  resetGame() */\n      tag_196\n        /* \"Demo.sol\":3330:3339  resetGame */\n      tag_197\n        /* \"Demo.sol\":3330:3341  resetGame() */\n      jump\t// in\n    tag_196:\n        /* \"Demo.sol\":3356:3363  return; */\n      pop\n      jump(tag_179)\n        /* \"Demo.sol\":3090:3374  if (isPlayer2Winner()) {... */\n    tag_191:\n        /* \"Demo.sol\":3009:3374  if (isPlayer1Winner()) {... */\n    tag_187:\n        /* \"Demo.sol\":3386:3392  winner */\n      dup1\n        /* \"Demo.sol\":3386:3401  winner.transfer */\n      0xffffffffffffffffffffffffffffffffffffffff\n      and\n        /* \"Demo.sol\":3386:3418  winner.transfer(contractBalance) */\n      0x08fc\n        /* \"Demo.sol\":3402:3417  contractBalance */\n      sload(0x07)\n        /* \"Demo.sol\":3386:3418  winner.transfer(contractBalance) */\n      swap1\n      dup2\n      iszero\n      mul\n      swap1\n      mload(0x40)\n      0x00\n      mload(0x40)\n      dup1\n      dup4\n      sub\n      dup2\n      dup6\n      dup9\n      dup9\n      call\n      swap4\n      pop\n      pop\n      pop\n      pop\n      iszero\n      dup1\n      iszero\n      tag_199\n      jumpi\n      returndatasize\n      0x00\n      dup1\n      returndatacopy\n      revert(0x00, returndatasize)\n    tag_199:\n      pop\n        /* \"Demo.sol\":3429:3440  resetGame() */\n      tag_200\n        /* \"Demo.sol\":3429:3438  resetGame */\n      tag_197\n        /* \"Demo.sol\":3429:3440  resetGame() */\n      jump\t// in\n    tag_200:\n        /* \"Demo.sol\":2734:3448  {... */\n      pop\n        /* \"Demo.sol\":2698:3448  function determineWinner() internal {... */\n    tag_179:\n      jump\t// out\n        /* \"Demo.sol\":3722:3956  function isPlayer1Winner() internal pure returns (bool) {... */\n    tag_185:\n        /* \"Demo.sol\":3772:3776  bool */\n      0x00\n        /* \"Demo.sol\":3722:3956  function isPlayer1Winner() internal pure returns (bool) {... */\n      swap1\n      jump\t// out\n        /* \"Demo.sol\":4015:4249  function isPlayer2Winner() internal pure returns (bool) {... */\n    tag_189:\n        /* \"Demo.sol\":4065:4069  bool */\n      0x00\n        /* \"Demo.sol\":4015:4249  function isPlayer2Winner() internal pure returns (bool) {... */\n      swap1\n      jump\t// out\n        /* \"Demo.sol\":4298:4580  function resetGame() internal {... */\n    tag_197:\n        /* \"Demo.sol\":4357:4358  0 */\n      0x00\n        /* \"Demo.sol\":4339:4346  player1 */\n      dup1\n      0x00\n        /* \"Demo.sol\":4339:4359  player1 = address(0) */\n      0x0100\n      exp\n      dup2\n      sload\n      dup2\n      0xffffffffffffffffffffffffffffffffffffffff\n      mul\n      not\n      and\n      swap1\n      dup4\n      0xffffffffffffffffffffffffffffffffffffffff\n      and\n      mul\n      or\n      swap1\n      sstore\n      pop\n        /* \"Demo.sol\":4388:4389  0 */\n      0x00\n        /* \"Demo.sol\":4370:4377  player2 */\n      0x01\n      0x00\n        /* \"Demo.sol\":4370:4390  player2 = address(0) */\n      0x0100\n      exp\n      dup2\n      sload\n      dup2\n      0xffffffffffffffffffffffffffffffffffffffff\n      mul\n      not\n      and\n      swap1\n      dup4\n      0xffffffffffffffffffffffffffffffffffffffff\n      and\n      mul\n      or\n      swap1\n      sstore\n      pop\n        /* \"Demo.sol\":4426:4427  0 */\n      0x00\n        /* \"Demo.sol\":4418:4428  bytes32(0) */\n      dup1\n      shl\n        /* \"Demo.sol\":4401:4415  encryptedMove1 */\n      0x02\n        /* \"Demo.sol\":4401:4428  encryptedMove1 = bytes32(0) */\n      dup2\n      swap1\n      sstore\n      pop\n        /* \"Demo.sol\":4464:4465  0 */\n      0x00\n        /* \"Demo.sol\":4456:4466  bytes32(0) */\n      dup1\n      shl\n        /* \"Demo.sol\":4439:4453  encryptedMove2 */\n      0x03\n        /* \"Demo.sol\":4439:4466  encryptedMove2 = bytes32(0) */\n      dup2\n      swap1\n      sstore\n      pop\n        /* \"Demo.sol\":4477:4492  clearMove1 = \"\" */\n      mload(0x40)\n      dup1\n      0x20\n      add\n      0x40\n      mstore\n      dup1\n      0x00\n      dup2\n      mstore\n      pop\n        /* \"Demo.sol\":4477:4487  clearMove1 */\n      0x04\n        /* \"Demo.sol\":4477:4492  clearMove1 = \"\" */\n      swap1\n      dup2\n      tag_204\n      swap2\n      swap1\n      tag_137\n      jump\t// in\n    tag_204:\n      pop\n        /* \"Demo.sol\":4503:4518  clearMove2 = \"\" */\n      mload(0x40)\n      dup1\n      0x20\n      add\n      0x40\n      mstore\n      dup1\n      0x00\n      dup2\n      mstore\n      pop\n        /* \"Demo.sol\":4503:4513  clearMove2 */\n      0x05\n        /* \"Demo.sol\":4503:4518  clearMove2 = \"\" */\n      swap1\n      dup2\n      tag_205\n      swap2\n      swap1\n      tag_137\n      jump\t// in\n    tag_205:\n      pop\n        /* \"Demo.sol\":4541:4542  0 */\n      0x00\n        /* \"Demo.sol\":4529:4538  betAmount */\n      0x06\n        /* \"Demo.sol\":4529:4542  betAmount = 0 */\n      dup2\n      swap1\n      sstore\n      pop\n        /* \"Demo.sol\":4571:4572  0 */\n      0x00\n        /* \"Demo.sol\":4553:4568  contractBalance */\n      0x07\n        /* \"Demo.sol\":4553:4572  contractBalance = 0 */\n      dup2\n      swap1\n      sstore\n      pop\n        /* \"Demo.sol\":4298:4580  function resetGame() internal {... */\n      jump\t// out\n        /* \"#utility.yul\":7:84   */\n    tag_206:\n        /* \"#utility.yul\":44:51   */\n      0x00\n        /* \"#utility.yul\":73:78   */\n      dup2\n        /* \"#utility.yul\":62:78   */\n      swap1\n      pop\n        /* \"#utility.yul\":7:84   */\n      swap2\n      swap1\n      pop\n      jump\t// out\n        /* \"#utility.yul\":90:208   */\n    tag_207:\n        /* \"#utility.yul\":177:201   */\n      tag_274\n        /* \"#utility.yul\":195:200   */\n      dup2\n        /* \"#utility.yul\":177:201   */\n      tag_206\n      jump\t// in\n    tag_274:\n        /* \"#utility.yul\":172:175   */\n      dup3\n        /* \"#utility.yul\":165:202   */\n      mstore\n        /* \"#utility.yul\":90:208   */\n      pop\n      pop\n      jump\t// out\n        /* \"#utility.yul\":214:436   */\n    tag_29:\n        /* \"#utility.yul\":307:311   */\n      0x00\n        /* \"#utility.yul\":345:347   */\n      0x20\n        /* \"#utility.yul\":334:343   */\n      dup3\n        /* \"#utility.yul\":330:348   */\n      add\n        /* \"#utility.yul\":322:348   */\n      swap1\n      pop\n        /* \"#utility.yul\":358:429   */\n      tag_276\n        /* \"#utility.yul\":426:427   */\n      0x00\n        /* \"#utility.yul\":415:424   */\n      dup4\n        /* \"#utility.yul\":411:428   */\n      add\n        /* \"#utility.yul\":402:408   */\n      dup5\n        /* \"#utility.yul\":358:429   */\n      tag_207\n      jump\t// in\n    tag_276:\n        /* \"#utility.yul\":214:436   */\n      swap3\n      swap2\n      pop\n      pop\n      jump\t// out\n        /* \"#utility.yul\":442:532   */\n    tag_208:\n        /* \"#utility.yul\":476:483   */\n      0x00\n        /* \"#utility.yul\":519:524   */\n      dup2\n        /* \"#utility.yul\":512:525   */\n      iszero\n        /* \"#utility.yul\":505:526   */\n      iszero\n        /* \"#utility.yul\":494:526   */\n      swap1\n      pop\n        /* \"#utility.yul\":442:532   */\n      swap2\n      swap1\n      pop\n      jump\t// out\n        /* \"#utility.yul\":538:647   */\n    tag_209:\n        /* \"#utility.yul\":619:640   */\n      tag_279\n        /* \"#utility.yul\":634:639   */\n      dup2\n        /* \"#utility.yul\":619:640   */\n      tag_208\n      jump\t// in\n    tag_279:\n        /* \"#utility.yul\":614:617   */\n      dup3\n        /* \"#utility.yul\":607:641   */\n      mstore\n        /* \"#utility.yul\":538:647   */\n      pop\n      pop\n      jump\t// out\n        /* \"#utility.yul\":653:863   */\n    tag_34:\n        /* \"#utility.yul\":740:744   */\n      0x00\n        /* \"#utility.yul\":778:780   */\n      0x20\n        /* \"#utility.yul\":767:776   */\n      dup3\n        /* \"#utility.yul\":763:781   */\n      add\n        /* \"#utility.yul\":755:781   */\n      swap1\n      pop\n        /* \"#utility.yul\":791:856   */\n      tag_281\n        /* \"#utility.yul\":853:854   */\n      0x00\n        /* \"#utility.yul\":842:851   */\n      dup4\n        /* \"#utility.yul\":838:855   */\n      add\n        /* \"#utility.yul\":829:835   */\n      dup5\n        /* \"#utility.yul\":791:856   */\n      tag_209\n      jump\t// in\n    tag_281:\n        /* \"#utility.yul\":653:863   */\n      swap3\n      swap2\n      pop\n      pop\n      jump\t// out\n        /* \"#utility.yul\":869:995   */\n    tag_210:\n        /* \"#utility.yul\":906:913   */\n      0x00\n        /* \"#utility.yul\":946:988   */\n      0xffffffffffffffffffffffffffffffffffffffff\n        /* \"#utility.yul\":939:944   */\n      dup3\n        /* \"#utility.yul\":935:989   */\n      and\n        /* \"#utility.yul\":924:989   */\n      swap1\n      pop\n        /* \"#utility.yul\":869:995   */\n      swap2\n      swap1\n      pop\n      jump\t// out\n        /* \"#utility.yul\":1001:1097   */\n    tag_211:\n        /* \"#utility.yul\":1038:1045   */\n      0x00\n        /* \"#utility.yul\":1067:1091   */\n      tag_284\n        /* \"#utility.yul\":1085:1090   */\n      dup3\n        /* \"#utility.yul\":1067:1091   */\n      tag_210\n      jump\t// in\n    tag_284:\n        /* \"#utility.yul\":1056:1091   */\n      swap1\n      pop\n        /* \"#utility.yul\":1001:1097   */\n      swap2\n      swap1\n      pop\n      jump\t// out\n        /* \"#utility.yul\":1103:1221   */\n    tag_212:\n        /* \"#utility.yul\":1190:1214   */\n      tag_286\n        /* \"#utility.yul\":1208:1213   */\n      dup2\n        /* \"#utility.yul\":1190:1214   */\n      tag_211\n      jump\t// in\n    tag_286:\n        /* \"#utility.yul\":1185:1188   */\n      dup3\n        /* \"#utility.yul\":1178:1215   */\n      mstore\n        /* \"#utility.yul\":1103:1221   */\n      pop\n      pop\n      jump\t// out\n        /* \"#utility.yul\":1227:1449   */\n    tag_43:\n        /* \"#utility.yul\":1320:1324   */\n      0x00\n        /* \"#utility.yul\":1358:1360   */\n      0x20\n        /* \"#utility.yul\":1347:1356   */\n      dup3\n        /* \"#utility.yul\":1343:1361   */\n      add\n        /* \"#utility.yul\":1335:1361   */\n      swap1\n      pop\n        /* \"#utility.yul\":1371:1442   */\n      tag_288\n        /* \"#utility.yul\":1439:1440   */\n      0x00\n        /* \"#utility.yul\":1428:1437   */\n      dup4\n        /* \"#utility.yul\":1424:1441   */\n      add\n        /* \"#utility.yul\":1415:1421   */\n      dup5\n        /* \"#utility.yul\":1371:1442   */\n      tag_212\n      jump\t// in\n    tag_288:\n        /* \"#utility.yul\":1227:1449   */\n      swap3\n      swap2\n      pop\n      pop\n      jump\t// out\n        /* \"#utility.yul\":1455:1530   */\n    tag_213:\n        /* \"#utility.yul\":1488:1494   */\n      0x00\n        /* \"#utility.yul\":1521:1523   */\n      0x40\n        /* \"#utility.yul\":1515:1524   */\n      mload\n        /* \"#utility.yul\":1505:1524   */\n      swap1\n      pop\n        /* \"#utility.yul\":1455:1530   */\n      swap1\n      jump\t// out\n        /* \"#utility.yul\":1536:1653   */\n    tag_214:\n        /* \"#utility.yul\":1645:1646   */\n      0x00\n        /* \"#utility.yul\":1642:1643   */\n      dup1\n        /* \"#utility.yul\":1635:1647   */\n      revert\n        /* \"#utility.yul\":1659:1776   */\n    tag_215:\n        /* \"#utility.yul\":1768:1769   */\n      0x00\n        /* \"#utility.yul\":1765:1766   */\n      dup1\n        /* \"#utility.yul\":1758:1770   */\n      revert\n        /* \"#utility.yul\":1782:1899   */\n    tag_216:\n        /* \"#utility.yul\":1891:1892   */\n      0x00\n        /* \"#utility.yul\":1888:1889   */\n      dup1\n        /* \"#utility.yul\":1881:1893   */\n      revert\n        /* \"#utility.yul\":1905:2022   */\n    tag_217:\n        /* \"#utility.yul\":2014:2015   */\n      0x00\n        /* \"#utility.yul\":2011:2012   */\n      dup1\n        /* \"#utility.yul\":2004:2016   */\n      revert\n        /* \"#utility.yul\":2028:2130   */\n    tag_218:\n        /* \"#utility.yul\":2069:2075   */\n      0x00\n        /* \"#utility.yul\":2120:2122   */\n      0x1f\n        /* \"#utility.yul\":2116:2123   */\n      not\n        /* \"#utility.yul\":2111:2113   */\n      0x1f\n        /* \"#utility.yul\":2104:2109   */\n      dup4\n        /* \"#utility.yul\":2100:2114   */\n      add\n        /* \"#utility.yul\":2096:2124   */\n      and\n        /* \"#utility.yul\":2086:2124   */\n      swap1\n      pop\n        /* \"#utility.yul\":2028:2130   */\n      swap2\n      swap1\n      pop\n      jump\t// out\n        /* \"#utility.yul\":2136:2316   */\n    tag_219:\n        /* \"#utility.yul\":2184:2261   */\n      0x4e487b7100000000000000000000000000000000000000000000000000000000\n        /* \"#utility.yul\":2181:2182   */\n      0x00\n        /* \"#utility.yul\":2174:2262   */\n      mstore\n        /* \"#utility.yul\":2281:2285   */\n      0x41\n        /* \"#utility.yul\":2278:2279   */\n      0x04\n        /* \"#utility.yul\":2271:2286   */\n      mstore\n        /* \"#utility.yul\":2305:2309   */\n      0x24\n        /* \"#utility.yul\":2302:2303   */\n      0x00\n        /* \"#utility.yul\":2295:2310   */\n      revert\n        /* \"#utility.yul\":2322:2603   */\n    tag_220:\n        /* \"#utility.yul\":2405:2432   */\n      tag_297\n        /* \"#utility.yul\":2427:2431   */\n      dup3\n        /* \"#utility.yul\":2405:2432   */\n      tag_218\n      jump\t// in\n    tag_297:\n        /* \"#utility.yul\":2397:2403   */\n      dup2\n        /* \"#utility.yul\":2393:2433   */\n      add\n        /* \"#utility.yul\":2535:2541   */\n      dup2\n        /* \"#utility.yul\":2523:2533   */\n      dup2\n        /* \"#utility.yul\":2520:2542   */\n      lt\n        /* \"#utility.yul\":2499:2517   */\n      0xffffffffffffffff\n        /* \"#utility.yul\":2487:2497   */\n      dup3\n        /* \"#utility.yul\":2484:2518   */\n      gt\n        /* \"#utility.yul\":2481:2543   */\n      or\n        /* \"#utility.yul\":2478:2566   */\n      iszero\n      tag_298\n      jumpi\n        /* \"#utility.yul\":2546:2564   */\n      tag_299\n      tag_219\n      jump\t// in\n    tag_299:\n        /* \"#utility.yul\":2478:2566   */\n    tag_298:\n        /* \"#utility.yul\":2586:2596   */\n      dup1\n        /* \"#utility.yul\":2582:2584   */\n      0x40\n        /* \"#utility.yul\":2575:2597   */\n      mstore\n        /* \"#utility.yul\":2365:2603   */\n      pop\n        /* \"#utility.yul\":2322:2603   */\n      pop\n      pop\n      jump\t// out\n        /* \"#utility.yul\":2609:2738   */\n    tag_221:\n        /* \"#utility.yul\":2643:2649   */\n      0x00\n        /* \"#utility.yul\":2670:2690   */\n      tag_301\n      tag_213\n      jump\t// in\n    tag_301:\n        /* \"#utility.yul\":2660:2690   */\n      swap1\n      pop\n        /* \"#utility.yul\":2699:2732   */\n      tag_302\n        /* \"#utility.yul\":2727:2731   */\n      dup3\n        /* \"#utility.yul\":2719:2725   */\n      dup3\n        /* \"#utility.yul\":2699:2732   */\n      tag_220\n      jump\t// in\n    tag_302:\n        /* \"#utility.yul\":2609:2738   */\n      swap2\n      swap1\n      pop\n      jump\t// out\n        /* \"#utility.yul\":2744:3052   */\n    tag_222:\n        /* \"#utility.yul\":2806:2810   */\n      0x00\n        /* \"#utility.yul\":2896:2914   */\n      0xffffffffffffffff\n        /* \"#utility.yul\":2888:2894   */\n      dup3\n        /* \"#utility.yul\":2885:2915   */\n      gt\n        /* \"#utility.yul\":2882:2938   */\n      iszero\n      tag_304\n      jumpi\n        /* \"#utility.yul\":2918:2936   */\n      tag_305\n      tag_219\n      jump\t// in\n    tag_305:\n        /* \"#utility.yul\":2882:2938   */\n    tag_304:\n        /* \"#utility.yul\":2956:2985   */\n      tag_306\n        /* \"#utility.yul\":2978:2984   */\n      dup3\n        /* \"#utility.yul\":2956:2985   */\n      tag_218\n      jump\t// in\n    tag_306:\n        /* \"#utility.yul\":2948:2985   */\n      swap1\n      pop\n        /* \"#utility.yul\":3040:3044   */\n      0x20\n        /* \"#utility.yul\":3034:3038   */\n      dup2\n        /* \"#utility.yul\":3030:3045   */\n      add\n        /* \"#utility.yul\":3022:3045   */\n      swap1\n      pop\n        /* \"#utility.yul\":2744:3052   */\n      swap2\n      swap1\n      pop\n      jump\t// out\n        /* \"#utility.yul\":3058:3204   */\n    tag_223:\n        /* \"#utility.yul\":3155:3161   */\n      dup3\n        /* \"#utility.yul\":3150:3153   */\n      dup2\n        /* \"#utility.yul\":3145:3148   */\n      dup4\n        /* \"#utility.yul\":3132:3162   */\n      calldatacopy\n        /* \"#utility.yul\":3196:3197   */\n      0x00\n        /* \"#utility.yul\":3187:3193   */\n      dup4\n        /* \"#utility.yul\":3182:3185   */\n      dup4\n        /* \"#utility.yul\":3178:3194   */\n      add\n        /* \"#utility.yul\":3171:3198   */\n      mstore\n        /* \"#utility.yul\":3058:3204   */\n      pop\n      pop\n      pop\n      jump\t// out\n        /* \"#utility.yul\":3210:3635   */\n    tag_224:\n        /* \"#utility.yul\":3288:3293   */\n      0x00\n        /* \"#utility.yul\":3313:3379   */\n      tag_309\n        /* \"#utility.yul\":3329:3378   */\n      tag_310\n        /* \"#utility.yul\":3371:3377   */\n      dup5\n        /* \"#utility.yul\":3329:3378   */\n      tag_222\n      jump\t// in\n    tag_310:\n        /* \"#utility.yul\":3313:3379   */\n      tag_221\n      jump\t// in\n    tag_309:\n        /* \"#utility.yul\":3304:3379   */\n      swap1\n      pop\n        /* \"#utility.yul\":3402:3408   */\n      dup3\n        /* \"#utility.yul\":3395:3400   */\n      dup2\n        /* \"#utility.yul\":3388:3409   */\n      mstore\n        /* \"#utility.yul\":3440:3444   */\n      0x20\n        /* \"#utility.yul\":3433:3438   */\n      dup2\n        /* \"#utility.yul\":3429:3445   */\n      add\n        /* \"#utility.yul\":3478:3481   */\n      dup5\n        /* \"#utility.yul\":3469:3475   */\n      dup5\n        /* \"#utility.yul\":3464:3467   */\n      dup5\n        /* \"#utility.yul\":3460:3476   */\n      add\n        /* \"#utility.yul\":3457:3482   */\n      gt\n        /* \"#utility.yul\":3454:3566   */\n      iszero\n      tag_311\n      jumpi\n        /* \"#utility.yul\":3485:3564   */\n      tag_312\n      tag_217\n      jump\t// in\n    tag_312:\n        /* \"#utility.yul\":3454:3566   */\n    tag_311:\n        /* \"#utility.yul\":3575:3629   */\n      tag_313\n        /* \"#utility.yul\":3622:3628   */\n      dup5\n        /* \"#utility.yul\":3617:3620   */\n      dup3\n        /* \"#utility.yul\":3612:3615   */\n      dup6\n        /* \"#utility.yul\":3575:3629   */\n      tag_223\n      jump\t// in\n    tag_313:\n        /* \"#utility.yul\":3294:3635   */\n      pop\n        /* \"#utility.yul\":3210:3635   */\n      swap4\n      swap3\n      pop\n      pop\n      pop\n      jump\t// out\n        /* \"#utility.yul\":3655:3995   */\n    tag_225:\n        /* \"#utility.yul\":3711:3716   */\n      0x00\n        /* \"#utility.yul\":3760:3763   */\n      dup3\n        /* \"#utility.yul\":3753:3757   */\n      0x1f\n        /* \"#utility.yul\":3745:3751   */\n      dup4\n        /* \"#utility.yul\":3741:3758   */\n      add\n        /* \"#utility.yul\":3737:3764   */\n      slt\n        /* \"#utility.yul\":3727:3849   */\n      tag_315\n      jumpi\n        /* \"#utility.yul\":3768:3847   */\n      tag_316\n      tag_216\n      jump\t// in\n    tag_316:\n        /* \"#utility.yul\":3727:3849   */\n    tag_315:\n        /* \"#utility.yul\":3885:3891   */\n      dup2\n        /* \"#utility.yul\":3872:3892   */\n      calldataload\n        /* \"#utility.yul\":3910:3989   */\n      tag_317\n        /* \"#utility.yul\":3985:3988   */\n      dup5\n        /* \"#utility.yul\":3977:3983   */\n      dup3\n        /* \"#utility.yul\":3970:3974   */\n      0x20\n        /* \"#utility.yul\":3962:3968   */\n      dup7\n        /* \"#utility.yul\":3958:3975   */\n      add\n        /* \"#utility.yul\":3910:3989   */\n      tag_224\n      jump\t// in\n    tag_317:\n        /* \"#utility.yul\":3901:3989   */\n      swap2\n      pop\n        /* \"#utility.yul\":3717:3995   */\n      pop\n        /* \"#utility.yul\":3655:3995   */\n      swap3\n      swap2\n      pop\n      pop\n      jump\t// out\n        /* \"#utility.yul\":4001:4835   */\n    tag_47:\n        /* \"#utility.yul\":4089:4095   */\n      0x00\n        /* \"#utility.yul\":4097:4103   */\n      dup1\n        /* \"#utility.yul\":4146:4148   */\n      0x40\n        /* \"#utility.yul\":4134:4143   */\n      dup4\n        /* \"#utility.yul\":4125:4132   */\n      dup6\n        /* \"#utility.yul\":4121:4144   */\n      sub\n        /* \"#utility.yul\":4117:4149   */\n      slt\n        /* \"#utility.yul\":4114:4233   */\n      iszero\n      tag_319\n      jumpi\n        /* \"#utility.yul\":4152:4231   */\n      tag_320\n      tag_214\n      jump\t// in\n    tag_320:\n        /* \"#utility.yul\":4114:4233   */\n    tag_319:\n        /* \"#utility.yul\":4300:4301   */\n      0x00\n        /* \"#utility.yul\":4289:4298   */\n      dup4\n        /* \"#utility.yul\":4285:4302   */\n      add\n        /* \"#utility.yul\":4272:4303   */\n      calldataload\n        /* \"#utility.yul\":4330:4348   */\n      0xffffffffffffffff\n        /* \"#utility.yul\":4322:4328   */\n      dup2\n        /* \"#utility.yul\":4319:4349   */\n      gt\n        /* \"#utility.yul\":4316:4433   */\n      iszero\n      tag_321\n      jumpi\n        /* \"#utility.yul\":4352:4431   */\n      tag_322\n      tag_215\n      jump\t// in\n    tag_322:\n        /* \"#utility.yul\":4316:4433   */\n    tag_321:\n        /* \"#utility.yul\":4457:4520   */\n      tag_323\n        /* \"#utility.yul\":4512:4519   */\n      dup6\n        /* \"#utility.yul\":4503:4509   */\n      dup3\n        /* \"#utility.yul\":4492:4501   */\n      dup7\n        /* \"#utility.yul\":4488:4510   */\n      add\n        /* \"#utility.yul\":4457:4520   */\n      tag_225\n      jump\t// in\n    tag_323:\n        /* \"#utility.yul\":4447:4520   */\n      swap3\n      pop\n        /* \"#utility.yul\":4243:4530   */\n      pop\n        /* \"#utility.yul\":4597:4599   */\n      0x20\n        /* \"#utility.yul\":4586:4595   */\n      dup4\n        /* \"#utility.yul\":4582:4600   */\n      add\n        /* \"#utility.yul\":4569:4601   */\n      calldataload\n        /* \"#utility.yul\":4628:4646   */\n      0xffffffffffffffff\n        /* \"#utility.yul\":4620:4626   */\n      dup2\n        /* \"#utility.yul\":4617:4647   */\n      gt\n        /* \"#utility.yul\":4614:4731   */\n      iszero\n      tag_324\n      jumpi\n        /* \"#utility.yul\":4650:4729   */\n      tag_325\n      tag_215\n      jump\t// in\n    tag_325:\n        /* \"#utility.yul\":4614:4731   */\n    tag_324:\n        /* \"#utility.yul\":4755:4818   */\n      tag_326\n        /* \"#utility.yul\":4810:4817   */\n      dup6\n        /* \"#utility.yul\":4801:4807   */\n      dup3\n        /* \"#utility.yul\":4790:4799   */\n      dup7\n        /* \"#utility.yul\":4786:4808   */\n      add\n        /* \"#utility.yul\":4755:4818   */\n      tag_225\n      jump\t// in\n    tag_326:\n        /* \"#utility.yul\":4745:4818   */\n      swap2\n      pop\n        /* \"#utility.yul\":4540:4828   */\n      pop\n        /* \"#utility.yul\":4001:4835   */\n      swap3\n      pop\n      swap3\n      swap1\n      pop\n      jump\t// out\n        /* \"#utility.yul\":4841:4940   */\n    tag_226:\n        /* \"#utility.yul\":4893:4899   */\n      0x00\n        /* \"#utility.yul\":4927:4932   */\n      dup2\n        /* \"#utility.yul\":4921:4933   */\n      mload\n        /* \"#utility.yul\":4911:4933   */\n      swap1\n      pop\n        /* \"#utility.yul\":4841:4940   */\n      swap2\n      swap1\n      pop\n      jump\t// out\n        /* \"#utility.yul\":4946:5115   */\n    tag_227:\n        /* \"#utility.yul\":5030:5041   */\n      0x00\n        /* \"#utility.yul\":5064:5070   */\n      dup3\n        /* \"#utility.yul\":5059:5062   */\n      dup3\n        /* \"#utility.yul\":5052:5071   */\n      mstore\n        /* \"#utility.yul\":5104:5108   */\n      0x20\n        /* \"#utility.yul\":5099:5102   */\n      dup3\n        /* \"#utility.yul\":5095:5109   */\n      add\n        /* \"#utility.yul\":5080:5109   */\n      swap1\n      pop\n        /* \"#utility.yul\":4946:5115   */\n      swap3\n      swap2\n      pop\n      pop\n      jump\t// out\n        /* \"#utility.yul\":5121:5367   */\n    tag_228:\n        /* \"#utility.yul\":5202:5203   */\n      0x00\n        /* \"#utility.yul\":5212:5325   */\n    tag_330:\n        /* \"#utility.yul\":5226:5232   */\n      dup4\n        /* \"#utility.yul\":5223:5224   */\n      dup2\n        /* \"#utility.yul\":5220:5233   */\n      lt\n        /* \"#utility.yul\":5212:5325   */\n      iszero\n      tag_332\n      jumpi\n        /* \"#utility.yul\":5311:5312   */\n      dup1\n        /* \"#utility.yul\":5306:5309   */\n      dup3\n        /* \"#utility.yul\":5302:5313   */\n      add\n        /* \"#utility.yul\":5296:5314   */\n      mload\n        /* \"#utility.yul\":5292:5293   */\n      dup2\n        /* \"#utility.yul\":5287:5290   */\n      dup5\n        /* \"#utility.yul\":5283:5294   */\n      add\n        /* \"#utility.yul\":5276:5315   */\n      mstore\n        /* \"#utility.yul\":5248:5250   */\n      0x20\n        /* \"#utility.yul\":5245:5246   */\n      dup2\n        /* \"#utility.yul\":5241:5251   */\n      add\n        /* \"#utility.yul\":5236:5251   */\n      swap1\n      pop\n        /* \"#utility.yul\":5212:5325   */\n      jump(tag_330)\n    tag_332:\n        /* \"#utility.yul\":5359:5360   */\n      0x00\n        /* \"#utility.yul\":5350:5356   */\n      dup5\n        /* \"#utility.yul\":5345:5348   */\n      dup5\n        /* \"#utility.yul\":5341:5357   */\n      add\n        /* \"#utility.yul\":5334:5361   */\n      mstore\n        /* \"#utility.yul\":5183:5367   */\n      pop\n        /* \"#utility.yul\":5121:5367   */\n      pop\n      pop\n      pop\n      jump\t// out\n        /* \"#utility.yul\":5373:5750   */\n    tag_229:\n        /* \"#utility.yul\":5461:5464   */\n      0x00\n        /* \"#utility.yul\":5489:5528   */\n      tag_334\n        /* \"#utility.yul\":5522:5527   */\n      dup3\n        /* \"#utility.yul\":5489:5528   */\n      tag_226\n      jump\t// in\n    tag_334:\n        /* \"#utility.yul\":5544:5615   */\n      tag_335\n        /* \"#utility.yul\":5608:5614   */\n      dup2\n        /* \"#utility.yul\":5603:5606   */\n      dup6\n        /* \"#utility.yul\":5544:5615   */\n      tag_227\n      jump\t// in\n    tag_335:\n        /* \"#utility.yul\":5537:5615   */\n      swap4\n      pop\n        /* \"#utility.yul\":5624:5689   */\n      tag_336\n        /* \"#utility.yul\":5682:5688   */\n      dup2\n        /* \"#utility.yul\":5677:5680   */\n      dup6\n        /* \"#utility.yul\":5670:5674   */\n      0x20\n        /* \"#utility.yul\":5663:5668   */\n      dup7\n        /* \"#utility.yul\":5659:5675   */\n      add\n        /* \"#utility.yul\":5624:5689   */\n      tag_228\n      jump\t// in\n    tag_336:\n        /* \"#utility.yul\":5714:5743   */\n      tag_337\n        /* \"#utility.yul\":5736:5742   */\n      dup2\n        /* \"#utility.yul\":5714:5743   */\n      tag_218\n      jump\t// in\n    tag_337:\n        /* \"#utility.yul\":5709:5712   */\n      dup5\n        /* \"#utility.yul\":5705:5744   */\n      add\n        /* \"#utility.yul\":5698:5744   */\n      swap2\n      pop\n        /* \"#utility.yul\":5465:5750   */\n      pop\n        /* \"#utility.yul\":5373:5750   */\n      swap3\n      swap2\n      pop\n      pop\n      jump\t// out\n        /* \"#utility.yul\":5756:6069   */\n    tag_69:\n        /* \"#utility.yul\":5869:5873   */\n      0x00\n        /* \"#utility.yul\":5907:5909   */\n      0x20\n        /* \"#utility.yul\":5896:5905   */\n      dup3\n        /* \"#utility.yul\":5892:5910   */\n      add\n        /* \"#utility.yul\":5884:5910   */\n      swap1\n      pop\n        /* \"#utility.yul\":5956:5965   */\n      dup2\n        /* \"#utility.yul\":5950:5954   */\n      dup2\n        /* \"#utility.yul\":5946:5966   */\n      sub\n        /* \"#utility.yul\":5942:5943   */\n      0x00\n        /* \"#utility.yul\":5931:5940   */\n      dup4\n        /* \"#utility.yul\":5927:5944   */\n      add\n        /* \"#utility.yul\":5920:5967   */\n      mstore\n        /* \"#utility.yul\":5984:6062   */\n      tag_339\n        /* \"#utility.yul\":6057:6061   */\n      dup2\n        /* \"#utility.yul\":6048:6054   */\n      dup5\n        /* \"#utility.yul\":5984:6062   */\n      tag_229\n      jump\t// in\n    tag_339:\n        /* \"#utility.yul\":5976:6062   */\n      swap1\n      pop\n        /* \"#utility.yul\":5756:6069   */\n      swap3\n      swap2\n      pop\n      pop\n      jump\t// out\n        /* \"#utility.yul\":6075:6152   */\n    tag_230:\n        /* \"#utility.yul\":6112:6119   */\n      0x00\n        /* \"#utility.yul\":6141:6146   */\n      dup2\n        /* \"#utility.yul\":6130:6146   */\n      swap1\n      pop\n        /* \"#utility.yul\":6075:6152   */\n      swap2\n      swap1\n      pop\n      jump\t// out\n        /* \"#utility.yul\":6158:6276   */\n    tag_231:\n        /* \"#utility.yul\":6245:6269   */\n      tag_342\n        /* \"#utility.yul\":6263:6268   */\n      dup2\n        /* \"#utility.yul\":6245:6269   */\n      tag_230\n      jump\t// in\n    tag_342:\n        /* \"#utility.yul\":6240:6243   */\n      dup3\n        /* \"#utility.yul\":6233:6270   */\n      mstore\n        /* \"#utility.yul\":6158:6276   */\n      pop\n      pop\n      jump\t// out\n        /* \"#utility.yul\":6282:6504   */\n    tag_74:\n        /* \"#utility.yul\":6375:6379   */\n      0x00\n        /* \"#utility.yul\":6413:6415   */\n      0x20\n        /* \"#utility.yul\":6402:6411   */\n      dup3\n        /* \"#utility.yul\":6398:6416   */\n      add\n        /* \"#utility.yul\":6390:6416   */\n      swap1\n      pop\n        /* \"#utility.yul\":6426:6497   */\n      tag_344\n        /* \"#utility.yul\":6494:6495   */\n      0x00\n        /* \"#utility.yul\":6483:6492   */\n      dup4\n        /* \"#utility.yul\":6479:6496   */\n      add\n        /* \"#utility.yul\":6470:6476   */\n      dup5\n        /* \"#utility.yul\":6426:6497   */\n      tag_231\n      jump\t// in\n    tag_344:\n        /* \"#utility.yul\":6282:6504   */\n      swap3\n      swap2\n      pop\n      pop\n      jump\t// out\n        /* \"#utility.yul\":6510:6632   */\n    tag_232:\n        /* \"#utility.yul\":6583:6607   */\n      tag_346\n        /* \"#utility.yul\":6601:6606   */\n      dup2\n        /* \"#utility.yul\":6583:6607   */\n      tag_230\n      jump\t// in\n    tag_346:\n        /* \"#utility.yul\":6576:6581   */\n      dup2\n        /* \"#utility.yul\":6573:6608   */\n      eq\n        /* \"#utility.yul\":6563:6626   */\n      tag_347\n      jumpi\n        /* \"#utility.yul\":6622:6623   */\n      0x00\n        /* \"#utility.yul\":6619:6620   */\n      dup1\n        /* \"#utility.yul\":6612:6624   */\n      revert\n        /* \"#utility.yul\":6563:6626   */\n    tag_347:\n        /* \"#utility.yul\":6510:6632   */\n      pop\n      jump\t// out\n        /* \"#utility.yul\":6638:6777   */\n    tag_233:\n        /* \"#utility.yul\":6684:6689   */\n      0x00\n        /* \"#utility.yul\":6722:6728   */\n      dup2\n        /* \"#utility.yul\":6709:6729   */\n      calldataload\n        /* \"#utility.yul\":6700:6729   */\n      swap1\n      pop\n        /* \"#utility.yul\":6738:6771   */\n      tag_349\n        /* \"#utility.yul\":6765:6770   */\n      dup2\n        /* \"#utility.yul\":6738:6771   */\n      tag_232\n      jump\t// in\n    tag_349:\n        /* \"#utility.yul\":6638:6777   */\n      swap3\n      swap2\n      pop\n      pop\n      jump\t// out\n        /* \"#utility.yul\":6783:7112   */\n    tag_82:\n        /* \"#utility.yul\":6842:6848   */\n      0x00\n        /* \"#utility.yul\":6891:6893   */\n      0x20\n        /* \"#utility.yul\":6879:6888   */\n      dup3\n        /* \"#utility.yul\":6870:6877   */\n      dup5\n        /* \"#utility.yul\":6866:6889   */\n      sub\n        /* \"#utility.yul\":6862:6894   */\n      slt\n        /* \"#utility.yul\":6859:6978   */\n      iszero\n      tag_351\n      jumpi\n        /* \"#utility.yul\":6897:6976   */\n      tag_352\n      tag_214\n      jump\t// in\n    tag_352:\n        /* \"#utility.yul\":6859:6978   */\n    tag_351:\n        /* \"#utility.yul\":7017:7018   */\n      0x00\n        /* \"#utility.yul\":7042:7095   */\n      tag_353\n        /* \"#utility.yul\":7087:7094   */\n      dup5\n        /* \"#utility.yul\":7078:7084   */\n      dup3\n        /* \"#utility.yul\":7067:7076   */\n      dup6\n        /* \"#utility.yul\":7063:7085   */\n      add\n        /* \"#utility.yul\":7042:7095   */\n      tag_233\n      jump\t// in\n    tag_353:\n        /* \"#utility.yul\":7032:7095   */\n      swap2\n      pop\n        /* \"#utility.yul\":6988:7105   */\n      pop\n        /* \"#utility.yul\":6783:7112   */\n      swap3\n      swap2\n      pop\n      pop\n      jump\t// out\n        /* \"#utility.yul\":7118:7291   */\n    tag_234:\n        /* \"#utility.yul\":7258:7283   */\n      0x496e73756666696369656e742062657420616d6f756e74000000000000000000\n        /* \"#utility.yul\":7254:7255   */\n      0x00\n        /* \"#utility.yul\":7246:7252   */\n      dup3\n        /* \"#utility.yul\":7242:7256   */\n      add\n        /* \"#utility.yul\":7235:7284   */\n      mstore\n        /* \"#utility.yul\":7118:7291   */\n      pop\n      jump\t// out\n        /* \"#utility.yul\":7297:7663   */\n    tag_235:\n        /* \"#utility.yul\":7439:7442   */\n      0x00\n        /* \"#utility.yul\":7460:7527   */\n      tag_356\n        /* \"#utility.yul\":7524:7526   */\n      0x17\n        /* \"#utility.yul\":7519:7522   */\n      dup4\n        /* \"#utility.yul\":7460:7527   */\n      tag_227\n      jump\t// in\n    tag_356:\n        /* \"#utility.yul\":7453:7527   */\n      swap2\n      pop\n        /* \"#utility.yul\":7536:7629   */\n      tag_357\n        /* \"#utility.yul\":7625:7628   */\n      dup3\n        /* \"#utility.yul\":7536:7629   */\n      tag_234\n      jump\t// in\n    tag_357:\n        /* \"#utility.yul\":7654:7656   */\n      0x20\n        /* \"#utility.yul\":7649:7652   */\n      dup3\n        /* \"#utility.yul\":7645:7657   */\n      add\n        /* \"#utility.yul\":7638:7657   */\n      swap1\n      pop\n        /* \"#utility.yul\":7297:7663   */\n      swap2\n      swap1\n      pop\n      jump\t// out\n        /* \"#utility.yul\":7669:8088   */\n    tag_103:\n        /* \"#utility.yul\":7835:7839   */\n      0x00\n        /* \"#utility.yul\":7873:7875   */\n      0x20\n        /* \"#utility.yul\":7862:7871   */\n      dup3\n        /* \"#utility.yul\":7858:7876   */\n      add\n        /* \"#utility.yul\":7850:7876   */\n      swap1\n      pop\n        /* \"#utility.yul\":7922:7931   */\n      dup2\n        /* \"#utility.yul\":7916:7920   */\n      dup2\n        /* \"#utility.yul\":7912:7932   */\n      sub\n        /* \"#utility.yul\":7908:7909   */\n      0x00\n        /* \"#utility.yul\":7897:7906   */\n      dup4\n        /* \"#utility.yul\":7893:7910   */\n      add\n        /* \"#utility.yul\":7886:7933   */\n      mstore\n        /* \"#utility.yul\":7950:8081   */\n      tag_359\n        /* \"#utility.yul\":8076:8080   */\n      dup2\n        /* \"#utility.yul\":7950:8081   */\n      tag_235\n      jump\t// in\n    tag_359:\n        /* \"#utility.yul\":7942:8081   */\n      swap1\n      pop\n        /* \"#utility.yul\":7669:8088   */\n      swap2\n      swap1\n      pop\n      jump\t// out\n        /* \"#utility.yul\":8094:8316   */\n    tag_236:\n        /* \"#utility.yul\":8234:8268   */\n      0x426f746820706c61796572732061726520616c72656164792072656769737465\n        /* \"#utility.yul\":8230:8231   */\n      0x00\n        /* \"#utility.yul\":8222:8228   */\n      dup3\n        /* \"#utility.yul\":8218:8232   */\n      add\n        /* \"#utility.yul\":8211:8269   */\n      mstore\n        /* \"#utility.yul\":8303:8308   */\n      0x7265640000000000000000000000000000000000000000000000000000000000\n        /* \"#utility.yul\":8298:8300   */\n      0x20\n        /* \"#utility.yul\":8290:8296   */\n      dup3\n        /* \"#utility.yul\":8286:8301   */\n      add\n        /* \"#utility.yul\":8279:8309   */\n      mstore\n        /* \"#utility.yul\":8094:8316   */\n      pop\n      jump\t// out\n        /* \"#utility.yul\":8322:8688   */\n    tag_237:\n        /* \"#utility.yul\":8464:8467   */\n      0x00\n        /* \"#utility.yul\":8485:8552   */\n      tag_362\n        /* \"#utility.yul\":8549:8551   */\n      0x23\n        /* \"#utility.yul\":8544:8547   */\n      dup4\n        /* \"#utility.yul\":8485:8552   */\n      tag_227\n      jump\t// in\n    tag_362:\n        /* \"#utility.yul\":8478:8552   */\n      swap2\n      pop\n        /* \"#utility.yul\":8561:8654   */\n      tag_363\n        /* \"#utility.yul\":8650:8653   */\n      dup3\n        /* \"#utility.yul\":8561:8654   */\n      tag_236\n      jump\t// in\n    tag_363:\n        /* \"#utility.yul\":8679:8681   */\n      0x40\n        /* \"#utility.yul\":8674:8677   */\n      dup3\n        /* \"#utility.yul\":8670:8682   */\n      add\n        /* \"#utility.yul\":8663:8682   */\n      swap1\n      pop\n        /* \"#utility.yul\":8322:8688   */\n      swap2\n      swap1\n      pop\n      jump\t// out\n        /* \"#utility.yul\":8694:9113   */\n    tag_107:\n        /* \"#utility.yul\":8860:8864   */\n      0x00\n        /* \"#utility.yul\":8898:8900   */\n      0x20\n        /* \"#utility.yul\":8887:8896   */\n      dup3\n        /* \"#utility.yul\":8883:8901   */\n      add\n        /* \"#utility.yul\":8875:8901   */\n      swap1\n      pop\n        /* \"#utility.yul\":8947:8956   */\n      dup2\n        /* \"#utility.yul\":8941:8945   */\n      dup2\n        /* \"#utility.yul\":8937:8957   */\n      sub\n        /* \"#utility.yul\":8933:8934   */\n      0x00\n        /* \"#utility.yul\":8922:8931   */\n      dup4\n        /* \"#utility.yul\":8918:8935   */\n      add\n        /* \"#utility.yul\":8911:8958   */\n      mstore\n        /* \"#utility.yul\":8975:9106   */\n      tag_365\n        /* \"#utility.yul\":9101:9105   */\n      dup2\n        /* \"#utility.yul\":8975:9106   */\n      tag_237\n      jump\t// in\n    tag_365:\n        /* \"#utility.yul\":8967:9106   */\n      swap1\n      pop\n        /* \"#utility.yul\":8694:9113   */\n      swap2\n      swap1\n      pop\n      jump\t// out\n        /* \"#utility.yul\":9119:9299   */\n    tag_238:\n        /* \"#utility.yul\":9167:9244   */\n      0x4e487b7100000000000000000000000000000000000000000000000000000000\n        /* \"#utility.yul\":9164:9165   */\n      0x00\n        /* \"#utility.yul\":9157:9245   */\n      mstore\n        /* \"#utility.yul\":9264:9268   */\n      0x11\n        /* \"#utility.yul\":9261:9262   */\n      0x04\n        /* \"#utility.yul\":9254:9269   */\n      mstore\n        /* \"#utility.yul\":9288:9292   */\n      0x24\n        /* \"#utility.yul\":9285:9286   */\n      0x00\n        /* \"#utility.yul\":9278:9293   */\n      revert\n        /* \"#utility.yul\":9305:9496   */\n    tag_111:\n        /* \"#utility.yul\":9345:9348   */\n      0x00\n        /* \"#utility.yul\":9364:9384   */\n      tag_368\n        /* \"#utility.yul\":9382:9383   */\n      dup3\n        /* \"#utility.yul\":9364:9384   */\n      tag_206\n      jump\t// in\n    tag_368:\n        /* \"#utility.yul\":9359:9384   */\n      swap2\n      pop\n        /* \"#utility.yul\":9398:9418   */\n      tag_369\n        /* \"#utility.yul\":9416:9417   */\n      dup4\n        /* \"#utility.yul\":9398:9418   */\n      tag_206\n      jump\t// in\n    tag_369:\n        /* \"#utility.yul\":9393:9418   */\n      swap3\n      pop\n        /* \"#utility.yul\":9441:9442   */\n      dup3\n        /* \"#utility.yul\":9438:9439   */\n      dup3\n        /* \"#utility.yul\":9434:9443   */\n      add\n        /* \"#utility.yul\":9427:9443   */\n      swap1\n      pop\n        /* \"#utility.yul\":9462:9465   */\n      dup1\n        /* \"#utility.yul\":9459:9460   */\n      dup3\n        /* \"#utility.yul\":9456:9466   */\n      gt\n        /* \"#utility.yul\":9453:9489   */\n      iszero\n      tag_370\n      jumpi\n        /* \"#utility.yul\":9469:9487   */\n      tag_371\n      tag_238\n      jump\t// in\n    tag_371:\n        /* \"#utility.yul\":9453:9489   */\n    tag_370:\n        /* \"#utility.yul\":9305:9496   */\n      swap3\n      swap2\n      pop\n      pop\n      jump\t// out\n        /* \"#utility.yul\":9502:9682   */\n    tag_239:\n        /* \"#utility.yul\":9550:9627   */\n      0x4e487b7100000000000000000000000000000000000000000000000000000000\n        /* \"#utility.yul\":9547:9548   */\n      0x00\n        /* \"#utility.yul\":9540:9628   */\n      mstore\n        /* \"#utility.yul\":9647:9651   */\n      0x22\n        /* \"#utility.yul\":9644:9645   */\n      0x04\n        /* \"#utility.yul\":9637:9652   */\n      mstore\n        /* \"#utility.yul\":9671:9675   */\n      0x24\n        /* \"#utility.yul\":9668:9669   */\n      0x00\n        /* \"#utility.yul\":9661:9676   */\n      revert\n        /* \"#utility.yul\":9688:10008   */\n    tag_114:\n        /* \"#utility.yul\":9732:9738   */\n      0x00\n        /* \"#utility.yul\":9769:9770   */\n      0x02\n        /* \"#utility.yul\":9763:9767   */\n      dup3\n        /* \"#utility.yul\":9759:9771   */\n      div\n        /* \"#utility.yul\":9749:9771   */\n      swap1\n      pop\n        /* \"#utility.yul\":9816:9817   */\n      0x01\n        /* \"#utility.yul\":9810:9814   */\n      dup3\n        /* \"#utility.yul\":9806:9818   */\n      and\n        /* \"#utility.yul\":9837:9855   */\n      dup1\n        /* \"#utility.yul\":9827:9908   */\n      tag_374\n      jumpi\n        /* \"#utility.yul\":9893:9897   */\n      0x7f\n        /* \"#utility.yul\":9885:9891   */\n      dup3\n        /* \"#utility.yul\":9881:9898   */\n      and\n        /* \"#utility.yul\":9871:9898   */\n      swap2\n      pop\n        /* \"#utility.yul\":9827:9908   */\n    tag_374:\n        /* \"#utility.yul\":9955:9957   */\n      0x20\n        /* \"#utility.yul\":9947:9953   */\n      dup3\n        /* \"#utility.yul\":9944:9958   */\n      lt\n        /* \"#utility.yul\":9924:9942   */\n      dup2\n        /* \"#utility.yul\":9921:9959   */\n      sub\n        /* \"#utility.yul\":9918:10002   */\n      tag_375\n      jumpi\n        /* \"#utility.yul\":9974:9992   */\n      tag_376\n      tag_239\n      jump\t// in\n    tag_376:\n        /* \"#utility.yul\":9918:10002   */\n    tag_375:\n        /* \"#utility.yul\":9739:10008   */\n      pop\n        /* \"#utility.yul\":9688:10008   */\n      swap2\n      swap1\n      pop\n      jump\t// out\n        /* \"#utility.yul\":10014:10188   */\n    tag_240:\n        /* \"#utility.yul\":10154:10180   */\n      0x506c61796572206973206e6f7420726567697374657265640000000000000000\n        /* \"#utility.yul\":10150:10151   */\n      0x00\n        /* \"#utility.yul\":10142:10148   */\n      dup3\n        /* \"#utility.yul\":10138:10152   */\n      add\n        /* \"#utility.yul\":10131:10181   */\n      mstore\n        /* \"#utility.yul\":10014:10188   */\n      pop\n      jump\t// out\n        /* \"#utility.yul\":10194:10560   */\n    tag_241:\n        /* \"#utility.yul\":10336:10339   */\n      0x00\n        /* \"#utility.yul\":10357:10424   */\n      tag_379\n        /* \"#utility.yul\":10421:10423   */\n      0x18\n        /* \"#utility.yul\":10416:10419   */\n      dup4\n        /* \"#utility.yul\":10357:10424   */\n      tag_227\n      jump\t// in\n    tag_379:\n        /* \"#utility.yul\":10350:10424   */\n      swap2\n      pop\n        /* \"#utility.yul\":10433:10526   */\n      tag_380\n        /* \"#utility.yul\":10522:10525   */\n      dup3\n        /* \"#utility.yul\":10433:10526   */\n      tag_240\n      jump\t// in\n    tag_380:\n        /* \"#utility.yul\":10551:10553   */\n      0x20\n        /* \"#utility.yul\":10546:10549   */\n      dup3\n        /* \"#utility.yul\":10542:10554   */\n      add\n        /* \"#utility.yul\":10535:10554   */\n      swap1\n      pop\n        /* \"#utility.yul\":10194:10560   */\n      swap2\n      swap1\n      pop\n      jump\t// out\n        /* \"#utility.yul\":10566:10985   */\n    tag_122:\n        /* \"#utility.yul\":10732:10736   */\n      0x00\n        /* \"#utility.yul\":10770:10772   */\n      0x20\n        /* \"#utility.yul\":10759:10768   */\n      dup3\n        /* \"#utility.yul\":10755:10773   */\n      add\n        /* \"#utility.yul\":10747:10773   */\n      swap1\n      pop\n        /* \"#utility.yul\":10819:10828   */\n      dup2\n        /* \"#utility.yul\":10813:10817   */\n      dup2\n        /* \"#utility.yul\":10809:10829   */\n      sub\n        /* \"#utility.yul\":10805:10806   */\n      0x00\n        /* \"#utility.yul\":10794:10803   */\n      dup4\n        /* \"#utility.yul\":10790:10807   */\n      add\n        /* \"#utility.yul\":10783:10830   */\n      mstore\n        /* \"#utility.yul\":10847:10978   */\n      tag_382\n        /* \"#utility.yul\":10973:10977   */\n      dup2\n        /* \"#utility.yul\":10847:10978   */\n      tag_241\n      jump\t// in\n    tag_382:\n        /* \"#utility.yul\":10839:10978   */\n      swap1\n      pop\n        /* \"#utility.yul\":10566:10985   */\n      swap2\n      swap1\n      pop\n      jump\t// out\n        /* \"#utility.yul\":10991:11171   */\n    tag_242:\n        /* \"#utility.yul\":11131:11163   */\n      0x4d6f76652068617320616c7265616479206265656e2072657665616c65640000\n        /* \"#utility.yul\":11127:11128   */\n      0x00\n        /* \"#utility.yul\":11119:11125   */\n      dup3\n        /* \"#utility.yul\":11115:11129   */\n      add\n        /* \"#utility.yul\":11108:11164   */\n      mstore\n        /* \"#utility.yul\":10991:11171   */\n      pop\n      jump\t// out\n        /* \"#utility.yul\":11177:11543   */\n    tag_243:\n        /* \"#utility.yul\":11319:11322   */\n      0x00\n        /* \"#utility.yul\":11340:11407   */\n      tag_385\n        /* \"#utility.yul\":11404:11406   */\n      0x1e\n        /* \"#utility.yul\":11399:11402   */\n      dup4\n        /* \"#utility.yul\":11340:11407   */\n      tag_227\n      jump\t// in\n    tag_385:\n        /* \"#utility.yul\":11333:11407   */\n      swap2\n      pop\n        /* \"#utility.yul\":11416:11509   */\n      tag_386\n        /* \"#utility.yul\":11505:11508   */\n      dup3\n        /* \"#utility.yul\":11416:11509   */\n      tag_242\n      jump\t// in\n    tag_386:\n        /* \"#utility.yul\":11534:11536   */\n      0x20\n        /* \"#utility.yul\":11529:11532   */\n      dup3\n        /* \"#utility.yul\":11525:11537   */\n      add\n        /* \"#utility.yul\":11518:11537   */\n      swap1\n      pop\n        /* \"#utility.yul\":11177:11543   */\n      swap2\n      swap1\n      pop\n      jump\t// out\n        /* \"#utility.yul\":11549:11968   */\n    tag_128:\n        /* \"#utility.yul\":11715:11719   */\n      0x00\n        /* \"#utility.yul\":11753:11755   */\n      0x20\n        /* \"#utility.yul\":11742:11751   */\n      dup3\n        /* \"#utility.yul\":11738:11756   */\n      add\n        /* \"#utility.yul\":11730:11756   */\n      swap1\n      pop\n        /* \"#utility.yul\":11802:11811   */\n      dup2\n        /* \"#utility.yul\":11796:11800   */\n      dup2\n        /* \"#utility.yul\":11792:11812   */\n      sub\n        /* \"#utility.yul\":11788:11789   */\n      0x00\n        /* \"#utility.yul\":11777:11786   */\n      dup4\n        /* \"#utility.yul\":11773:11790   */\n      add\n        /* \"#utility.yul\":11766:11813   */\n      mstore\n        /* \"#utility.yul\":11830:11961   */\n      tag_388\n        /* \"#utility.yul\":11956:11960   */\n      dup2\n        /* \"#utility.yul\":11830:11961   */\n      tag_243\n      jump\t// in\n    tag_388:\n        /* \"#utility.yul\":11822:11961   */\n      swap1\n      pop\n        /* \"#utility.yul\":11549:11968   */\n      swap2\n      swap1\n      pop\n      jump\t// out\n        /* \"#utility.yul\":11974:12122   */\n    tag_244:\n        /* \"#utility.yul\":12076:12087   */\n      0x00\n        /* \"#utility.yul\":12113:12116   */\n      dup2\n        /* \"#utility.yul\":12098:12116   */\n      swap1\n      pop\n        /* \"#utility.yul\":11974:12122   */\n      swap3\n      swap2\n      pop\n      pop\n      jump\t// out\n        /* \"#utility.yul\":12128:12518   */\n    tag_245:\n        /* \"#utility.yul\":12234:12237   */\n      0x00\n        /* \"#utility.yul\":12262:12301   */\n      tag_391\n        /* \"#utility.yul\":12295:12300   */\n      dup3\n        /* \"#utility.yul\":12262:12301   */\n      tag_226\n      jump\t// in\n    tag_391:\n        /* \"#utility.yul\":12317:12406   */\n      tag_392\n        /* \"#utility.yul\":12399:12405   */\n      dup2\n        /* \"#utility.yul\":12394:12397   */\n      dup6\n        /* \"#utility.yul\":12317:12406   */\n      tag_244\n      jump\t// in\n    tag_392:\n        /* \"#utility.yul\":12310:12406   */\n      swap4\n      pop\n        /* \"#utility.yul\":12415:12480   */\n      tag_393\n        /* \"#utility.yul\":12473:12479   */\n      dup2\n        /* \"#utility.yul\":12468:12471   */\n      dup6\n        /* \"#utility.yul\":12461:12465   */\n      0x20\n        /* \"#utility.yul\":12454:12459   */\n      dup7\n        /* \"#utility.yul\":12450:12466   */\n      add\n        /* \"#utility.yul\":12415:12480   */\n      tag_228\n      jump\t// in\n    tag_393:\n        /* \"#utility.yul\":12505:12511   */\n      dup1\n        /* \"#utility.yul\":12500:12503   */\n      dup5\n        /* \"#utility.yul\":12496:12512   */\n      add\n        /* \"#utility.yul\":12489:12512   */\n      swap2\n      pop\n        /* \"#utility.yul\":12238:12518   */\n      pop\n        /* \"#utility.yul\":12128:12518   */\n      swap3\n      swap2\n      pop\n      pop\n      jump\t// out\n        /* \"#utility.yul\":12524:12799   */\n    tag_132:\n        /* \"#utility.yul\":12656:12659   */\n      0x00\n        /* \"#utility.yul\":12678:12773   */\n      tag_395\n        /* \"#utility.yul\":12769:12772   */\n      dup3\n        /* \"#utility.yul\":12760:12766   */\n      dup5\n        /* \"#utility.yul\":12678:12773   */\n      tag_245\n      jump\t// in\n    tag_395:\n        /* \"#utility.yul\":12671:12773   */\n      swap2\n      pop\n        /* \"#utility.yul\":12790:12793   */\n      dup2\n        /* \"#utility.yul\":12783:12793   */\n      swap1\n      pop\n        /* \"#utility.yul\":12524:12799   */\n      swap3\n      swap2\n      pop\n      pop\n      jump\t// out\n        /* \"#utility.yul\":12805:12979   */\n    tag_246:\n        /* \"#utility.yul\":12945:12971   */\n      0x496e76616c6964206d6f7665206f722070617373776f72640000000000000000\n        /* \"#utility.yul\":12941:12942   */\n      0x00\n        /* \"#utility.yul\":12933:12939   */\n      dup3\n        /* \"#utility.yul\":12929:12943   */\n      add\n        /* \"#utility.yul\":12922:12972   */\n      mstore\n        /* \"#utility.yul\":12805:12979   */\n      pop\n      jump\t// out\n        /* \"#utility.yul\":12985:13351   */\n    tag_247:\n        /* \"#utility.yul\":13127:13130   */\n      0x00\n        /* \"#utility.yul\":13148:13215   */\n      tag_398\n        /* \"#utility.yul\":13212:13214   */\n      0x18\n        /* \"#utility.yul\":13207:13210   */\n      dup4\n        /* \"#utility.yul\":13148:13215   */\n      tag_227\n      jump\t// in\n    tag_398:\n        /* \"#utility.yul\":13141:13215   */\n      swap2\n      pop\n        /* \"#utility.yul\":13224:13317   */\n      tag_399\n        /* \"#utility.yul\":13313:13316   */\n      dup3\n        /* \"#utility.yul\":13224:13317   */\n      tag_246\n      jump\t// in\n    tag_399:\n        /* \"#utility.yul\":13342:13344   */\n      0x20\n        /* \"#utility.yul\":13337:13340   */\n      dup3\n        /* \"#utility.yul\":13333:13345   */\n      add\n        /* \"#utility.yul\":13326:13345   */\n      swap1\n      pop\n        /* \"#utility.yul\":12985:13351   */\n      swap2\n      swap1\n      pop\n      jump\t// out\n        /* \"#utility.yul\":13357:13776   */\n    tag_135:\n        /* \"#utility.yul\":13523:13527   */\n      0x00\n        /* \"#utility.yul\":13561:13563   */\n      0x20\n        /* \"#utility.yul\":13550:13559   */\n      dup3\n        /* \"#utility.yul\":13546:13564   */\n      add\n        /* \"#utility.yul\":13538:13564   */\n      swap1\n      pop\n        /* \"#utility.yul\":13610:13619   */\n      dup2\n        /* \"#utility.yul\":13604:13608   */\n      dup2\n        /* \"#utility.yul\":13600:13620   */\n      sub\n        /* \"#utility.yul\":13596:13597   */\n      0x00\n        /* \"#utility.yul\":13585:13594   */\n      dup4\n        /* \"#utility.yul\":13581:13598   */\n      add\n        /* \"#utility.yul\":13574:13621   */\n      mstore\n        /* \"#utility.yul\":13638:13769   */\n      tag_401\n        /* \"#utility.yul\":13764:13768   */\n      dup2\n        /* \"#utility.yul\":13638:13769   */\n      tag_247\n      jump\t// in\n    tag_401:\n        /* \"#utility.yul\":13630:13769   */\n      swap1\n      pop\n        /* \"#utility.yul\":13357:13776   */\n      swap2\n      swap1\n      pop\n      jump\t// out\n        /* \"#utility.yul\":13782:13923   */\n    tag_248:\n        /* \"#utility.yul\":13831:13835   */\n      0x00\n        /* \"#utility.yul\":13854:13857   */\n      dup2\n        /* \"#utility.yul\":13846:13857   */\n      swap1\n      pop\n        /* \"#utility.yul\":13877:13880   */\n      dup2\n        /* \"#utility.yul\":13874:13875   */\n      0x00\n        /* \"#utility.yul\":13867:13881   */\n      mstore\n        /* \"#utility.yul\":13911:13915   */\n      0x20\n        /* \"#utility.yul\":13908:13909   */\n      0x00\n        /* \"#utility.yul\":13898:13916   */\n      keccak256\n        /* \"#utility.yul\":13890:13916   */\n      swap1\n      pop\n        /* \"#utility.yul\":13782:13923   */\n      swap2\n      swap1\n      pop\n      jump\t// out\n        /* \"#utility.yul\":13929:14022   */\n    tag_249:\n        /* \"#utility.yul\":13966:13972   */\n      0x00\n        /* \"#utility.yul\":14013:14015   */\n      0x20\n        /* \"#utility.yul\":14008:14010   */\n      0x1f\n        /* \"#utility.yul\":14001:14006   */\n      dup4\n        /* \"#utility.yul\":13997:14011   */\n      add\n        /* \"#utility.yul\":13993:14016   */\n      div\n        /* \"#utility.yul\":13983:14016   */\n      swap1\n      pop\n        /* \"#utility.yul\":13929:14022   */\n      swap2\n      swap1\n      pop\n      jump\t// out\n        /* \"#utility.yul\":14028:14135   */\n    tag_250:\n        /* \"#utility.yul\":14072:14080   */\n      0x00\n        /* \"#utility.yul\":14122:14127   */\n      dup3\n        /* \"#utility.yul\":14116:14120   */\n      dup3\n        /* \"#utility.yul\":14112:14128   */\n      shl\n        /* \"#utility.yul\":14091:14128   */\n      swap1\n      pop\n        /* \"#utility.yul\":14028:14135   */\n      swap3\n      swap2\n      pop\n      pop\n      jump\t// out\n        /* \"#utility.yul\":14141:14534   */\n    tag_251:\n        /* \"#utility.yul\":14210:14216   */\n      0x00\n        /* \"#utility.yul\":14260:14261   */\n      0x08\n        /* \"#utility.yul\":14248:14258   */\n      dup4\n        /* \"#utility.yul\":14244:14262   */\n      mul\n        /* \"#utility.yul\":14283:14380   */\n      tag_406\n        /* \"#utility.yul\":14313:14379   */\n      0xffffffffffffffffffffffffffffffffffffffffffffffffffffffffffffffff\n        /* \"#utility.yul\":14302:14311   */\n      dup3\n        /* \"#utility.yul\":14283:14380   */\n      tag_250\n      jump\t// in\n    tag_406:\n        /* \"#utility.yul\":14401:14440   */\n      tag_407\n        /* \"#utility.yul\":14431:14439   */\n      dup7\n        /* \"#utility.yul\":14420:14429   */\n      dup4\n        /* \"#utility.yul\":14401:14440   */\n      tag_250\n      jump\t// in\n    tag_407:\n        /* \"#utility.yul\":14389:14440   */\n      swap6\n      pop\n        /* \"#utility.yul\":14473:14477   */\n      dup1\n        /* \"#utility.yul\":14469:14478   */\n      not\n        /* \"#utility.yul\":14462:14467   */\n      dup5\n        /* \"#utility.yul\":14458:14479   */\n      and\n        /* \"#utility.yul\":14449:14479   */\n      swap4\n      pop\n        /* \"#utility.yul\":14522:14526   */\n      dup1\n        /* \"#utility.yul\":14512:14520   */\n      dup7\n        /* \"#utility.yul\":14508:14527   */\n      and\n        /* \"#utility.yul\":14501:14506   */\n      dup5\n        /* \"#utility.yul\":14498:14528   */\n      or\n        /* \"#utility.yul\":14488:14528   */\n      swap3\n      pop\n        /* \"#utility.yul\":14217:14534   */\n      pop\n      pop\n        /* \"#utility.yul\":14141:14534   */\n      swap4\n      swap3\n      pop\n      pop\n      pop\n      jump\t// out\n        /* \"#utility.yul\":14540:14600   */\n    tag_252:\n        /* \"#utility.yul\":14568:14571   */\n      0x00\n        /* \"#utility.yul\":14589:14594   */\n      dup2\n        /* \"#utility.yul\":14582:14594   */\n      swap1\n      pop\n        /* \"#utility.yul\":14540:14600   */\n      swap2\n      swap1\n      pop\n      jump\t// out\n        /* \"#utility.yul\":14606:14748   */\n    tag_253:\n        /* \"#utility.yul\":14656:14665   */\n      0x00\n        /* \"#utility.yul\":14689:14742   */\n      tag_410\n        /* \"#utility.yul\":14707:14741   */\n      tag_411\n        /* \"#utility.yul\":14716:14740   */\n      tag_412\n        /* \"#utility.yul\":14734:14739   */\n      dup5\n        /* \"#utility.yul\":14716:14740   */\n      tag_206\n      jump\t// in\n    tag_412:\n        /* \"#utility.yul\":14707:14741   */\n      tag_252\n      jump\t// in\n    tag_411:\n        /* \"#utility.yul\":14689:14742   */\n      tag_206\n      jump\t// in\n    tag_410:\n        /* \"#utility.yul\":14676:14742   */\n      swap1\n      pop\n        /* \"#utility.yul\":14606:14748   */\n      swap2\n      swap1\n      pop\n      jump\t// out\n        /* \"#utility.yul\":14754:14829   */\n    tag_254:\n        /* \"#utility.yul\":14797:14800   */\n      0x00\n        /* \"#utility.yul\":14818:14823   */\n      dup2\n        /* \"#utility.yul\":14811:14823   */\n      swap1\n      pop\n        /* \"#utility.yul\":14754:14829   */\n      swap2\n      swap1\n      pop\n      jump\t// out\n        /* \"#utility.yul\":14835:15104   */\n    tag_255:\n        /* \"#utility.yul\":14945:14984   */\n      tag_415\n        /* \"#utility.yul\":14976:14983   */\n      dup4\n        /* \"#utility.yul\":14945:14984   */\n      tag_253\n      jump\t// in\n    tag_415:\n        /* \"#utility.yul\":15006:15097   */\n      tag_416\n        /* \"#utility.yul\":15055:15096   */\n      tag_417\n        /* \"#utility.yul\":15079:15095   */\n      dup3\n        /* \"#utility.yul\":15055:15096   */\n      tag_254\n      jump\t// in\n    tag_417:\n        /* \"#utility.yul\":15047:15053   */\n      dup5\n        /* \"#utility.yul\":15040:15044   */\n      dup5\n        /* \"#utility.yul\":15034:15045   */\n      sload\n        /* \"#utility.yul\":15006:15097   */\n      tag_251\n      jump\t// in\n    tag_416:\n        /* \"#utility.yul\":15000:15004   */\n      dup3\n        /* \"#utility.yul\":14993:15098   */\n      sstore\n        /* \"#utility.yul\":14911:15104   */\n      pop\n        /* \"#utility.yul\":14835:15104   */\n      pop\n      pop\n      pop\n      jump\t// out\n        /* \"#utility.yul\":15110:15183   */\n    tag_256:\n        /* \"#utility.yul\":15155:15158   */\n      0x00\n        /* \"#utility.yul\":15110:15183   */\n      swap1\n      jump\t// out\n        /* \"#utility.yul\":15189:15378   */\n    tag_257:\n        /* \"#utility.yul\":15266:15298   */\n      tag_420\n      tag_256\n      jump\t// in\n    tag_420:\n        /* \"#utility.yul\":15307:15372   */\n      tag_421\n        /* \"#utility.yul\":15365:15371   */\n      dup2\n        /* \"#utility.yul\":15357:15363   */\n      dup5\n        /* \"#utility.yul\":15351:15355   */\n      dup5\n        /* \"#utility.yul\":15307:15372   */\n      tag_255\n      jump\t// in\n    tag_421:\n        /* \"#utility.yul\":15242:15378   */\n      pop\n        /* \"#utility.yul\":15189:15378   */\n      pop\n      pop\n      jump\t// out\n        /* \"#utility.yul\":15384:15570   */\n    tag_258:\n        /* \"#utility.yul\":15444:15564   */\n    tag_423:\n        /* \"#utility.yul\":15461:15464   */\n      dup2\n        /* \"#utility.yul\":15454:15459   */\n      dup2\n        /* \"#utility.yul\":15451:15465   */\n      lt\n        /* \"#utility.yul\":15444:15564   */\n      iszero\n      tag_425\n      jumpi\n        /* \"#utility.yul\":15515:15554   */\n      tag_426\n        /* \"#utility.yul\":15552:15553   */\n      0x00\n        /* \"#utility.yul\":15545:15550   */\n      dup3\n        /* \"#utility.yul\":15515:15554   */\n      tag_257\n      jump\t// in\n    tag_426:\n        /* \"#utility.yul\":15488:15489   */\n      0x01\n        /* \"#utility.yul\":15481:15486   */\n      dup2\n        /* \"#utility.yul\":15477:15490   */\n      add\n        /* \"#utility.yul\":15468:15490   */\n      swap1\n      pop\n        /* \"#utility.yul\":15444:15564   */\n      jump(tag_423)\n    tag_425:\n        /* \"#utility.yul\":15384:15570   */\n      pop\n      pop\n      jump\t// out\n        /* \"#utility.yul\":15576:16119   */\n    tag_259:\n        /* \"#utility.yul\":15677:15679   */\n      0x1f\n        /* \"#utility.yul\":15672:15675   */\n      dup3\n        /* \"#utility.yul\":15669:15680   */\n      gt\n        /* \"#utility.yul\":15666:16112   */\n      iszero\n      tag_428\n      jumpi\n        /* \"#utility.yul\":15711:15749   */\n      tag_429\n        /* \"#utility.yul\":15743:15748   */\n      dup2\n        /* \"#utility.yul\":15711:15749   */\n      tag_248\n      jump\t// in\n    tag_429:\n        /* \"#utility.yul\":15795:15824   */\n      tag_430\n        /* \"#utility.yul\":15813:15823   */\n      dup5\n        /* \"#utility.yul\":15795:15824   */\n      tag_249\n      jump\t// in\n    tag_430:\n        /* \"#utility.yul\":15785:15793   */\n      dup2\n        /* \"#utility.yul\":15781:15825   */\n      add\n        /* \"#utility.yul\":15978:15980   */\n      0x20\n        /* \"#utility.yul\":15966:15976   */\n      dup6\n        /* \"#utility.yul\":15963:15981   */\n      lt\n        /* \"#utility.yul\":15960:16009   */\n      iszero\n      tag_431\n      jumpi\n        /* \"#utility.yul\":15999:16007   */\n      dup2\n        /* \"#utility.yul\":15984:16007   */\n      swap1\n      pop\n        /* \"#utility.yul\":15960:16009   */\n    tag_431:\n        /* \"#utility.yul\":16022:16102   */\n      tag_432\n        /* \"#utility.yul\":16078:16100   */\n      tag_433\n        /* \"#utility.yul\":16096:16099   */\n      dup6\n        /* \"#utility.yul\":16078:16100   */\n      tag_249\n      jump\t// in\n    tag_433:\n        /* \"#utility.yul\":16068:16076   */\n      dup4\n        /* \"#utility.yul\":16064:16101   */\n      add\n        /* \"#utility.yul\":16051:16062   */\n      dup3\n        /* \"#utility.yul\":16022:16102   */\n      tag_258\n      jump\t// in\n    tag_432:\n        /* \"#utility.yul\":15681:16112   */\n      pop\n      pop\n        /* \"#utility.yul\":15666:16112   */\n    tag_428:\n        /* \"#utility.yul\":15576:16119   */\n      pop\n      pop\n      pop\n      jump\t// out\n        /* \"#utility.yul\":16125:16242   */\n    tag_260:\n        /* \"#utility.yul\":16179:16187   */\n      0x00\n        /* \"#utility.yul\":16229:16234   */\n      dup3\n        /* \"#utility.yul\":16223:16227   */\n      dup3\n        /* \"#utility.yul\":16219:16235   */\n      shr\n        /* \"#utility.yul\":16198:16235   */\n      swap1\n      pop\n        /* \"#utility.yul\":16125:16242   */\n      swap3\n      swap2\n      pop\n      pop\n      jump\t// out\n        /* \"#utility.yul\":16248:16417   */\n    tag_261:\n        /* \"#utility.yul\":16292:16298   */\n      0x00\n        /* \"#utility.yul\":16325:16376   */\n      tag_436\n        /* \"#utility.yul\":16373:16374   */\n      0x00\n        /* \"#utility.yul\":16369:16375   */\n      not\n        /* \"#utility.yul\":16361:16366   */\n      dup5\n        /* \"#utility.yul\":16358:16359   */\n      0x08\n        /* \"#utility.yul\":16354:16367   */\n      mul\n        /* \"#utility.yul\":16325:16376   */\n      tag_260\n      jump\t// in\n    tag_436:\n        /* \"#utility.yul\":16321:16377   */\n      not\n        /* \"#utility.yul\":16406:16410   */\n      dup1\n        /* \"#utility.yul\":16400:16404   */\n      dup4\n        /* \"#utility.yul\":16396:16411   */\n      and\n        /* \"#utility.yul\":16386:16411   */\n      swap2\n      pop\n        /* \"#utility.yul\":16299:16417   */\n      pop\n        /* \"#utility.yul\":16248:16417   */\n      swap3\n      swap2\n      pop\n      pop\n      jump\t// out\n        /* \"#utility.yul\":16422:16717   */\n    tag_262:\n        /* \"#utility.yul\":16498:16502   */\n      0x00\n        /* \"#utility.yul\":16644:16673   */\n      tag_438\n        /* \"#utility.yul\":16669:16672   */\n      dup4\n        /* \"#utility.yul\":16663:16667   */\n      dup4\n        /* \"#utility.yul\":16644:16673   */\n      tag_261\n      jump\t// in\n    tag_438:\n        /* \"#utility.yul\":16636:16673   */\n      swap2\n      pop\n        /* \"#utility.yul\":16706:16709   */\n      dup3\n        /* \"#utility.yul\":16703:16704   */\n      0x02\n        /* \"#utility.yul\":16699:16710   */\n      mul\n        /* \"#utility.yul\":16693:16697   */\n      dup3\n        /* \"#utility.yul\":16690:16711   */\n      or\n        /* \"#utility.yul\":16682:16711   */\n      swap1\n      pop\n        /* \"#utility.yul\":16422:16717   */\n      swap3\n      swap2\n      pop\n      pop\n      jump\t// out\n        /* \"#utility.yul\":16722:18117   */\n    tag_137:\n        /* \"#utility.yul\":16839:16876   */\n      tag_440\n        /* \"#utility.yul\":16872:16875   */\n      dup3\n        /* \"#utility.yul\":16839:16876   */\n      tag_226\n      jump\t// in\n    tag_440:\n        /* \"#utility.yul\":16941:16959   */\n      0xffffffffffffffff\n        /* \"#utility.yul\":16933:16939   */\n      dup2\n        /* \"#utility.yul\":16930:16960   */\n      gt\n        /* \"#utility.yul\":16927:16983   */\n      iszero\n      tag_441\n      jumpi\n        /* \"#utility.yul\":16963:16981   */\n      tag_442\n      tag_219\n      jump\t// in\n    tag_442:\n        /* \"#utility.yul\":16927:16983   */\n    tag_441:\n        /* \"#utility.yul\":17007:17045   */\n      tag_443\n        /* \"#utility.yul\":17039:17043   */\n      dup3\n        /* \"#utility.yul\":17033:17044   */\n      sload\n        /* \"#utility.yul\":17007:17045   */\n      tag_114\n      jump\t// in\n    tag_443:\n        /* \"#utility.yul\":17092:17159   */\n      tag_444\n        /* \"#utility.yul\":17152:17158   */\n      dup3\n        /* \"#utility.yul\":17144:17150   */\n      dup3\n        /* \"#utility.yul\":17138:17142   */\n      dup6\n        /* \"#utility.yul\":17092:17159   */\n      tag_259\n      jump\t// in\n    tag_444:\n        /* \"#utility.yul\":17186:17187   */\n      0x00\n        /* \"#utility.yul\":17210:17214   */\n      0x20\n        /* \"#utility.yul\":17197:17214   */\n      swap1\n      pop\n        /* \"#utility.yul\":17242:17244   */\n      0x1f\n        /* \"#utility.yul\":17234:17240   */\n      dup4\n        /* \"#utility.yul\":17231:17245   */\n      gt\n        /* \"#utility.yul\":17259:17260   */\n      0x01\n        /* \"#utility.yul\":17254:17872   */\n      dup2\n      eq\n      tag_446\n      jumpi\n        /* \"#utility.yul\":17916:17917   */\n      0x00\n        /* \"#utility.yul\":17933:17939   */\n      dup5\n        /* \"#utility.yul\":17930:18007   */\n      iszero\n      tag_447\n      jumpi\n        /* \"#utility.yul\":17982:17991   */\n      dup3\n        /* \"#utility.yul\":17977:17980   */\n      dup8\n        /* \"#utility.yul\":17973:17992   */\n      add\n        /* \"#utility.yul\":17967:17993   */\n      mload\n        /* \"#utility.yul\":17958:17993   */\n      swap1\n      pop\n        /* \"#utility.yul\":17930:18007   */\n    tag_447:\n        /* \"#utility.yul\":18033:18100   */\n      tag_448\n        /* \"#utility.yul\":18093:18099   */\n      dup6\n        /* \"#utility.yul\":18086:18091   */\n      dup3\n        /* \"#utility.yul\":18033:18100   */\n      tag_262\n      jump\t// in\n    tag_448:\n        /* \"#utility.yul\":18027:18031   */\n      dup7\n        /* \"#utility.yul\":18020:18101   */\n      sstore\n        /* \"#utility.yul\":17889:18111   */\n      pop\n        /* \"#utility.yul\":17224:18111   */\n      jump(tag_445)\n        /* \"#utility.yul\":17254:17872   */\n    tag_446:\n        /* \"#utility.yul\":17306:17310   */\n      0x1f\n        /* \"#utility.yul\":17302:17311   */\n      not\n        /* \"#utility.yul\":17294:17300   */\n      dup5\n        /* \"#utility.yul\":17290:17312   */\n      and\n        /* \"#utility.yul\":17340:17377   */\n      tag_449\n        /* \"#utility.yul\":17372:17376   */\n      dup7\n        /* \"#utility.yul\":17340:17377   */\n      tag_248\n      jump\t// in\n    tag_449:\n        /* \"#utility.yul\":17399:17400   */\n      0x00\n        /* \"#utility.yul\":17413:17621   */\n    tag_450:\n        /* \"#utility.yul\":17427:17434   */\n      dup3\n        /* \"#utility.yul\":17424:17425   */\n      dup2\n        /* \"#utility.yul\":17421:17435   */\n      lt\n        /* \"#utility.yul\":17413:17621   */\n      iszero\n      tag_452\n      jumpi\n        /* \"#utility.yul\":17506:17515   */\n      dup5\n        /* \"#utility.yul\":17501:17504   */\n      dup10\n        /* \"#utility.yul\":17497:17516   */\n      add\n        /* \"#utility.yul\":17491:17517   */\n      mload\n        /* \"#utility.yul\":17483:17489   */\n      dup3\n        /* \"#utility.yul\":17476:17518   */\n      sstore\n        /* \"#utility.yul\":17557:17558   */\n      0x01\n        /* \"#utility.yul\":17549:17555   */\n      dup3\n        /* \"#utility.yul\":17545:17559   */\n      add\n        /* \"#utility.yul\":17535:17559   */\n      swap2\n      pop\n        /* \"#utility.yul\":17604:17606   */\n      0x20\n        /* \"#utility.yul\":17593:17602   */\n      dup6\n        /* \"#utility.yul\":17589:17607   */\n      add\n        /* \"#utility.yul\":17576:17607   */\n      swap5\n      pop\n        /* \"#utility.yul\":17450:17454   */\n      0x20\n        /* \"#utility.yul\":17447:17448   */\n      dup2\n        /* \"#utility.yul\":17443:17455   */\n      add\n        /* \"#utility.yul\":17438:17455   */\n      swap1\n      pop\n        /* \"#utility.yul\":17413:17621   */\n      jump(tag_450)\n    tag_452:\n        /* \"#utility.yul\":17649:17655   */\n      dup7\n        /* \"#utility.yul\":17640:17647   */\n      dup4\n        /* \"#utility.yul\":17637:17656   */\n      lt\n        /* \"#utility.yul\":17634:17813   */\n      iszero\n      tag_453\n      jumpi\n        /* \"#utility.yul\":17707:17716   */\n      dup5\n        /* \"#utility.yul\":17702:17705   */\n      dup10\n        /* \"#utility.yul\":17698:17717   */\n      add\n        /* \"#utility.yul\":17692:17718   */\n      mload\n        /* \"#utility.yul\":17750:17798   */\n      tag_454\n        /* \"#utility.yul\":17792:17796   */\n      0x1f\n        /* \"#utility.yul\":17784:17790   */\n      dup10\n        /* \"#utility.yul\":17780:17797   */\n      and\n        /* \"#utility.yul\":17769:17778   */\n      dup3\n        /* \"#utility.yul\":17750:17798   */\n      tag_261\n      jump\t// in\n    tag_454:\n        /* \"#utility.yul\":17742:17748   */\n      dup4\n        /* \"#utility.yul\":17735:17799   */\n      sstore\n        /* \"#utility.yul\":17657:17813   */\n      pop\n        /* \"#utility.yul\":17634:17813   */\n    tag_453:\n        /* \"#utility.yul\":17859:17860   */\n      0x01\n        /* \"#utility.yul\":17855:17856   */\n      0x02\n        /* \"#utility.yul\":17847:17853   */\n      dup9\n        /* \"#utility.yul\":17843:17857   */\n      mul\n        /* \"#utility.yul\":17839:17861   */\n      add\n        /* \"#utility.yul\":17833:17837   */\n      dup9\n        /* \"#utility.yul\":17826:17862   */\n      sstore\n        /* \"#utility.yul\":17261:17872   */\n      pop\n      pop\n      pop\n        /* \"#utility.yul\":17224:18111   */\n    tag_445:\n      pop\n        /* \"#utility.yul\":16814:18117   */\n      pop\n      pop\n      pop\n        /* \"#utility.yul\":16722:18117   */\n      pop\n      pop\n      jump\t// out\n        /* \"#utility.yul\":18123:18357   */\n    tag_263:\n        /* \"#utility.yul\":18263:18297   */\n      0x426f746820706c6179657273206861766520616c7265616479207375626d6974\n        /* \"#utility.yul\":18259:18260   */\n      0x00\n        /* \"#utility.yul\":18251:18257   */\n      dup3\n        /* \"#utility.yul\":18247:18261   */\n      add\n        /* \"#utility.yul\":18240:18298   */\n      mstore\n        /* \"#utility.yul\":18332:18349   */\n      0x746564207468656972206d6f7665730000000000000000000000000000000000\n        /* \"#utility.yul\":18327:18329   */\n      0x20\n        /* \"#utility.yul\":18319:18325   */\n      dup3\n        /* \"#utility.yul\":18315:18330   */\n      add\n        /* \"#utility.yul\":18308:18350   */\n      mstore\n        /* \"#utility.yul\":18123:18357   */\n      pop\n      jump\t// out\n        /* \"#utility.yul\":18363:18729   */\n    tag_264:\n        /* \"#utility.yul\":18505:18508   */\n      0x00\n        /* \"#utility.yul\":18526:18593   */\n      tag_457\n        /* \"#utility.yul\":18590:18592   */\n      0x2f\n        /* \"#utility.yul\":18585:18588   */\n      dup4\n        /* \"#utility.yul\":18526:18593   */\n      tag_227\n      jump\t// in\n    tag_457:\n        /* \"#utility.yul\":18519:18593   */\n      swap2\n      pop\n        /* \"#utility.yul\":18602:18695   */\n      tag_458\n        /* \"#utility.yul\":18691:18694   */\n      dup3\n        /* \"#utility.yul\":18602:18695   */\n      tag_263\n      jump\t// in\n    tag_458:\n        /* \"#utility.yul\":18720:18722   */\n      0x40\n        /* \"#utility.yul\":18715:18718   */\n      dup3\n        /* \"#utility.yul\":18711:18723   */\n      add\n        /* \"#utility.yul\":18704:18723   */\n      swap1\n      pop\n        /* \"#utility.yul\":18363:18729   */\n      swap2\n      swap1\n      pop\n      jump\t// out\n        /* \"#utility.yul\":18735:19154   */\n    tag_163:\n        /* \"#utility.yul\":18901:18905   */\n      0x00\n        /* \"#utility.yul\":18939:18941   */\n      0x20\n        /* \"#utility.yul\":18928:18937   */\n      dup3\n        /* \"#utility.yul\":18924:18942   */\n      add\n        /* \"#utility.yul\":18916:18942   */\n      swap1\n      pop\n        /* \"#utility.yul\":18988:18997   */\n      dup2\n        /* \"#utility.yul\":18982:18986   */\n      dup2\n        /* \"#utility.yul\":18978:18998   */\n      sub\n        /* \"#utility.yul\":18974:18975   */\n      0x00\n        /* \"#utility.yul\":18963:18972   */\n      dup4\n        /* \"#utility.yul\":18959:18976   */\n      add\n        /* \"#utility.yul\":18952:18999   */\n      mstore\n        /* \"#utility.yul\":19016:19147   */\n      tag_460\n        /* \"#utility.yul\":19142:19146   */\n      dup2\n        /* \"#utility.yul\":19016:19147   */\n      tag_264\n      jump\t// in\n    tag_460:\n        /* \"#utility.yul\":19008:19147   */\n      swap1\n      pop\n        /* \"#utility.yul\":18735:19154   */\n      swap2\n      swap1\n      pop\n      jump\t// out\n        /* \"#utility.yul\":19160:19254   */\n    tag_265:\n        /* \"#utility.yul\":19193:19201   */\n      0x00\n        /* \"#utility.yul\":19241:19246   */\n      dup2\n        /* \"#utility.yul\":19237:19239   */\n      0x60\n        /* \"#utility.yul\":19233:19247   */\n      shl\n        /* \"#utility.yul\":19212:19247   */\n      swap1\n      pop\n        /* \"#utility.yul\":19160:19254   */\n      swap2\n      swap1\n      pop\n      jump\t// out\n        /* \"#utility.yul\":19260:19354   */\n    tag_266:\n        /* \"#utility.yul\":19299:19306   */\n      0x00\n        /* \"#utility.yul\":19328:19348   */\n      tag_463\n        /* \"#utility.yul\":19342:19347   */\n      dup3\n        /* \"#utility.yul\":19328:19348   */\n      tag_265\n      jump\t// in\n    tag_463:\n        /* \"#utility.yul\":19317:19348   */\n      swap1\n      pop\n        /* \"#utility.yul\":19260:19354   */\n      swap2\n      swap1\n      pop\n      jump\t// out\n        /* \"#utility.yul\":19360:19460   */\n    tag_267:\n        /* \"#utility.yul\":19399:19406   */\n      0x00\n        /* \"#utility.yul\":19428:19454   */\n      tag_465\n        /* \"#utility.yul\":19448:19453   */\n      dup3\n        /* \"#utility.yul\":19428:19454   */\n      tag_266\n      jump\t// in\n    tag_465:\n        /* \"#utility.yul\":19417:19454   */\n      swap1\n      pop\n        /* \"#utility.yul\":19360:19460   */\n      swap2\n      swap1\n      pop\n      jump\t// out\n        /* \"#utility.yul\":19466:19623   */\n    tag_268:\n        /* \"#utility.yul\":19571:19616   */\n      tag_467\n        /* \"#utility.yul\":19591:19615   */\n      tag_468\n        /* \"#utility.yul\":19609:19614   */\n      dup3\n        /* \"#utility.yul\":19591:19615   */\n      tag_211\n      jump\t// in\n    tag_468:\n        /* \"#utility.yul\":19571:19616   */\n      tag_267\n      jump\t// in\n    tag_467:\n        /* \"#utility.yul\":19566:19569   */\n      dup3\n        /* \"#utility.yul\":19559:19617   */\n      mstore\n        /* \"#utility.yul\":19466:19623   */\n      pop\n      pop\n      jump\t// out\n        /* \"#utility.yul\":19629:20045   */\n    tag_178:\n        /* \"#utility.yul\":19789:19792   */\n      0x00\n        /* \"#utility.yul\":19804:19879   */\n      tag_470\n        /* \"#utility.yul\":19875:19878   */\n      dup3\n        /* \"#utility.yul\":19866:19872   */\n      dup6\n        /* \"#utility.yul\":19804:19879   */\n      tag_268\n      jump\t// in\n    tag_470:\n        /* \"#utility.yul\":19904:19906   */\n      0x14\n        /* \"#utility.yul\":19899:19902   */\n      dup3\n        /* \"#utility.yul\":19895:19907   */\n      add\n        /* \"#utility.yul\":19888:19907   */\n      swap2\n      pop\n        /* \"#utility.yul\":19924:20019   */\n      tag_471\n        /* \"#utility.yul\":20015:20018   */\n      dup3\n        /* \"#utility.yul\":20006:20012   */\n      dup5\n        /* \"#utility.yul\":19924:20019   */\n      tag_245\n      jump\t// in\n    tag_471:\n        /* \"#utility.yul\":19917:20019   */\n      swap2\n      pop\n        /* \"#utility.yul\":20036:20039   */\n      dup2\n        /* \"#utility.yul\":20029:20039   */\n      swap1\n      pop\n        /* \"#utility.yul\":19629:20045   */\n      swap4\n      swap3\n      pop\n      pop\n      pop\n      jump\t// out\n        /* \"#utility.yul\":20051:20284   */\n    tag_269:\n        /* \"#utility.yul\":20191:20225   */\n      0x426f746820706c61796572732068617665206e6f742072657665616c65642074\n        /* \"#utility.yul\":20187:20188   */\n      0x00\n        /* \"#utility.yul\":20179:20185   */\n      dup3\n        /* \"#utility.yul\":20175:20189   */\n      add\n        /* \"#utility.yul\":20168:20226   */\n      mstore\n        /* \"#utility.yul\":20260:20276   */\n      0x68656972206d6f76657320796574000000000000000000000000000000000000\n        /* \"#utility.yul\":20255:20257   */\n      0x20\n        /* \"#utility.yul\":20247:20253   */\n      dup3\n        /* \"#utility.yul\":20243:20258   */\n      add\n        /* \"#utility.yul\":20236:20277   */\n      mstore\n        /* \"#utility.yul\":20051:20284   */\n      pop\n      jump\t// out\n        /* \"#utility.yul\":20290:20656   */\n    tag_270:\n        /* \"#utility.yul\":20432:20435   */\n      0x00\n        /* \"#utility.yul\":20453:20520   */\n      tag_474\n        /* \"#utility.yul\":20517:20519   */\n      0x2e\n        /* \"#utility.yul\":20512:20515   */\n      dup4\n        /* \"#utility.yul\":20453:20520   */\n      tag_227\n      jump\t// in\n    tag_474:\n        /* \"#utility.yul\":20446:20520   */\n      swap2\n      pop\n        /* \"#utility.yul\":20529:20622   */\n      tag_475\n        /* \"#utility.yul\":20618:20621   */\n      dup3\n        /* \"#utility.yul\":20529:20622   */\n      tag_269\n      jump\t// in\n    tag_475:\n        /* \"#utility.yul\":20647:20649   */\n      0x40\n        /* \"#utility.yul\":20642:20645   */\n      dup3\n        /* \"#utility.yul\":20638:20650   */\n      add\n        /* \"#utility.yul\":20631:20650   */\n      swap1\n      pop\n        /* \"#utility.yul\":20290:20656   */\n      swap2\n      swap1\n      pop\n      jump\t// out\n        /* \"#utility.yul\":20662:21081   */\n    tag_183:\n        /* \"#utility.yul\":20828:20832   */\n      0x00\n        /* \"#utility.yul\":20866:20868   */\n      0x20\n        /* \"#utility.yul\":20855:20864   */\n      dup3\n        /* \"#utility.yul\":20851:20869   */\n      add\n        /* \"#utility.yul\":20843:20869   */\n      swap1\n      pop\n        /* \"#utility.yul\":20915:20924   */\n      dup2\n        /* \"#utility.yul\":20909:20913   */\n      dup2\n        /* \"#utility.yul\":20905:20925   */\n      sub\n        /* \"#utility.yul\":20901:20902   */\n      0x00\n        /* \"#utility.yul\":20890:20899   */\n      dup4\n        /* \"#utility.yul\":20886:20903   */\n      add\n        /* \"#utility.yul\":20879:20926   */\n      mstore\n        /* \"#utility.yul\":20943:21074   */\n      tag_477\n        /* \"#utility.yul\":21069:21073   */\n      dup2\n        /* \"#utility.yul\":20943:21074   */\n      tag_270\n      jump\t// in\n    tag_477:\n        /* \"#utility.yul\":20935:21074   */\n      swap1\n      pop\n        /* \"#utility.yul\":20662:21081   */\n      swap2\n      swap1\n      pop\n      jump\t// out\n\n    auxdata: 0xa26469706673582212201ac95a206860e0ce3d8db534b2844881e3b332032d4486bc0f93b19284a76e3164736f6c63430008120033\n}\n",
				"bytecode": {
					"linkReferences": {},
					"object": "608060405234801561001057600080fd5b50336000806101000a81548173ffffffffffffffffffffffffffffffffffffffff021916908373ffffffffffffffffffffffffffffffffffffffff160217905550611c26806100606000396000f3fe6080604052600436106101095760003560e01c80638b7afe2e11610095578063c7a1865b11610064578063c7a1865b1461031a578063d24257c014610343578063d30895e41461036e578063da91254c14610399578063e0942eee146103c457610109565b80638b7afe2e1461026e578063ac8f5c1a14610299578063b71e7307146102c4578063bffa480d146102ef57610109565b806359a5f12d116100dc57806359a5f12d146101995780635ba1b2c7146101c45780636540742f146101ed5780636f9fb98a14610218578063807c85041461024357610109565b80631aa3a0081461010e5780633d6ae3a71461011857806343445ca81461014357806351dcb1c31461016e575b600080fd5b6101166103ef565b005b34801561012457600080fd5b5061012d61061d565b60405161013a91906110d9565b60405180910390f35b34801561014f57600080fd5b50610158610624565b604051610165919061110f565b60405180910390f35b34801561017a57600080fd5b50610183610656565b60405161019091906110d9565b60405180910390f35b3480156101a557600080fd5b506101ae610661565b6040516101bb919061116b565b60405180910390f35b3480156101d057600080fd5b506101eb60048036038101906101e691906112e0565b610687565b005b3480156101f957600080fd5b50610202610926565b60405161020f91906110d9565b60405180910390f35b34801561022457600080fd5b5061022d610930565b60405161023a91906110d9565b60405180910390f35b34801561024f57600080fd5b50610258610938565b604051610265919061110f565b60405180910390f35b34801561027a57600080fd5b506102836109ea565b60405161029091906110d9565b60405180910390f35b3480156102a557600080fd5b506102ae6109f0565b6040516102bb91906113d7565b60405180910390f35b3480156102d057600080fd5b506102d9610a7e565b6040516102e69190611412565b60405180910390f35b3480156102fb57600080fd5b50610304610a84565b6040516103119190611412565b60405180910390f35b34801561032657600080fd5b50610341600480360381019061033c9190611459565b610a8a565b005b34801561034f57600080fd5b50610358610c32565b60405161036591906110d9565b60405180910390f35b34801561037a57600080fd5b50610383610c38565b604051610390919061116b565b60405180910390f35b3480156103a557600080fd5b506103ae610c5c565b6040516103bb91906110d9565b60405180910390f35b3480156103d057600080fd5b506103d9610d21565b6040516103e691906113d7565b60405180910390f35b655af3107a4000341015610438576040517f08c379a000000000000000000000000000000000000000000000000000000000815260040161042f906114d2565b60405180910390fd5b600073ffffffffffffffffffffffffffffffffffffffff1660008054906101000a900473ffffffffffffffffffffffffffffffffffffffff1673ffffffffffffffffffffffffffffffffffffffff1614806104e15750600073ffffffffffffffffffffffffffffffffffffffff16600160009054906101000a900473ffffffffffffffffffffffffffffffffffffffff1673ffffffffffffffffffffffffffffffffffffffff16145b610520576040517f08c379a000000000000000000000000000000000000000000000000000000000815260040161051790611564565b60405180910390fd5b600073ffffffffffffffffffffffffffffffffffffffff1660008054906101000a900473ffffffffffffffffffffffffffffffffffffffff1673ffffffffffffffffffffffffffffffffffffffff16036105b957336000806101000a81548173ffffffffffffffffffffffffffffffffffffffff021916908373ffffffffffffffffffffffffffffffffffffffff1602179055506105fb565b33600160006101000a81548173ffffffffffffffffffffffffffffffffffffffff021916908373ffffffffffffffffffffffffffffffffffffffff1602179055505b34600681905550346007600082825461061491906115b3565b92505081905550565b6201518081565b6000806004805461063490611616565b9050118015610651575060006005805461064d90611616565b9050115b905090565b600062015180905090565b600160009054906101000a900473ffffffffffffffffffffffffffffffffffffffff1681565b3360008054906101000a900473ffffffffffffffffffffffffffffffffffffffff1673ffffffffffffffffffffffffffffffffffffffff168173ffffffffffffffffffffffffffffffffffffffff16148061072f5750600160009054906101000a900473ffffffffffffffffffffffffffffffffffffffff1673ffffffffffffffffffffffffffffffffffffffff168173ffffffffffffffffffffffffffffffffffffffff16145b61076e576040517f08c379a000000000000000000000000000000000000000000000000000000000815260040161076590611693565b60405180910390fd5b6107783383610daf565b6000801b81036107bd576040517f08c379a00000000000000000000000000000000000000000000000000000000081526004016107b4906116ff565b60405180910390fd5b60008054906101000a900473ffffffffffffffffffffffffffffffffffffffff1673ffffffffffffffffffffffffffffffffffffffff163373ffffffffffffffffffffffffffffffffffffffff160361088f5760025484604051602001610824919061175b565b604051602081830303815290604052805190602001201461087a576040517f08c379a0000000000000000000000000000000000000000000000000000000008152600401610871906117be565b60405180910390fd5b8360049081610889919061198a565b5061090a565b600354846040516020016108a3919061175b565b60405160208183030381529060405280519060200120146108f9576040517f08c379a00000000000000000000000000000000000000000000000000000000081526004016108f0906117be565b60405180910390fd5b8360059081610908919061198a565b505b610912610624565b156109205761091f610de2565b5b50505050565b655af3107a400081565b600047905090565b60008073ffffffffffffffffffffffffffffffffffffffff1660008054906101000a900473ffffffffffffffffffffffffffffffffffffffff1673ffffffffffffffffffffffffffffffffffffffff16141580156109e55750600073ffffffffffffffffffffffffffffffffffffffff16600160009054906101000a900473ffffffffffffffffffffffffffffffffffffffff1673ffffffffffffffffffffffffffffffffffffffff1614155b905090565b60075481565b600580546109fd90611616565b80601f0160208091040260200160405190810160405280929190818152602001828054610a2990611616565b8015610a765780601f10610a4b57610100808354040283529160200191610a76565b820191906000526020600020905b815481529060010190602001808311610a5957829003601f168201915b505050505081565b60035481565b60025481565b3360008054906101000a900473ffffffffffffffffffffffffffffffffffffffff1673ffffffffffffffffffffffffffffffffffffffff168173ffffffffffffffffffffffffffffffffffffffff161480610b325750600160009054906101000a900473ffffffffffffffffffffffffffffffffffffffff1673ffffffffffffffffffffffffffffffffffffffff168173ffffffffffffffffffffffffffffffffffffffff16145b610b71576040517f08c379a0000000000000000000000000000000000000000000000000000000008152600401610b6890611693565b60405180910390fd5b6000801b6002541480610b8857506000801b600354145b610bc7576040517f08c379a0000000000000000000000000000000000000000000000000000000008152600401610bbe90611ace565b60405180910390fd5b60008054906101000a900473ffffffffffffffffffffffffffffffffffffffff1673ffffffffffffffffffffffffffffffffffffffff163373ffffffffffffffffffffffffffffffffffffffff1603610c265781600281905550610c2e565b816003819055505b5050565b60065481565b60008054906101000a900473ffffffffffffffffffffffffffffffffffffffff1681565b60008060009054906101000a900473ffffffffffffffffffffffffffffffffffffffff1673ffffffffffffffffffffffffffffffffffffffff163373ffffffffffffffffffffffffffffffffffffffff1603610cbb5760019050610d1e565b600160009054906101000a900473ffffffffffffffffffffffffffffffffffffffff1673ffffffffffffffffffffffffffffffffffffffff163373ffffffffffffffffffffffffffffffffffffffff1603610d195760029050610d1e565b600090505b90565b60048054610d2e90611616565b80601f0160208091040260200160405190810160405280929190818152602001828054610d5a90611616565b8015610da75780601f10610d7c57610100808354040283529160200191610da7565b820191906000526020600020905b815481529060010190602001808311610d8a57829003601f168201915b505050505081565b60008282604051602001610dc4929190611b36565b60405160208183030381529060405280519060200120905092915050565b610dea610624565b610e29576040517f08c379a0000000000000000000000000000000000000000000000000000000008152600401610e2090611bd0565b60405180910390fd5b6000610e33610fcf565b15610e605760008054906101000a900473ffffffffffffffffffffffffffffffffffffffff169050610f7a565b610e68610fd4565b15610e9757600160009054906101000a900473ffffffffffffffffffffffffffffffffffffffff169050610f79565b60008054906101000a900473ffffffffffffffffffffffffffffffffffffffff1673ffffffffffffffffffffffffffffffffffffffff166108fc6006549081150290604051600060405180830381858888f19350505050158015610eff573d6000803e3d6000fd5b50600160009054906101000a900473ffffffffffffffffffffffffffffffffffffffff1673ffffffffffffffffffffffffffffffffffffffff166108fc6006549081150290604051600060405180830381858888f19350505050158015610f6a573d6000803e3d6000fd5b50610f73610fd9565b50610fcd565b5b8073ffffffffffffffffffffffffffffffffffffffff166108fc6007549081150290604051600060405180830381858888f19350505050158015610fc2573d6000803e3d6000fd5b50610fcb610fd9565b505b565b600090565b600090565b60008060006101000a81548173ffffffffffffffffffffffffffffffffffffffff021916908373ffffffffffffffffffffffffffffffffffffffff1602179055506000600160006101000a81548173ffffffffffffffffffffffffffffffffffffffff021916908373ffffffffffffffffffffffffffffffffffffffff1602179055506000801b6002819055506000801b600381905550604051806020016040528060008152506004908161108e919061198a565b5060405180602001604052806000815250600590816110ad919061198a565b5060006006819055506000600781905550565b6000819050919050565b6110d3816110c0565b82525050565b60006020820190506110ee60008301846110ca565b92915050565b60008115159050919050565b611109816110f4565b82525050565b60006020820190506111246000830184611100565b92915050565b600073ffffffffffffffffffffffffffffffffffffffff82169050919050565b60006111558261112a565b9050919050565b6111658161114a565b82525050565b6000602082019050611180600083018461115c565b92915050565b6000604051905090565b600080fd5b600080fd5b600080fd5b600080fd5b6000601f19601f8301169050919050565b7f4e487b7100000000000000000000000000000000000000000000000000000000600052604160045260246000fd5b6111ed826111a4565b810181811067ffffffffffffffff8211171561120c5761120b6111b5565b5b80604052505050565b600061121f611186565b905061122b82826111e4565b919050565b600067ffffffffffffffff82111561124b5761124a6111b5565b5b611254826111a4565b9050602081019050919050565b82818337600083830152505050565b600061128361127e84611230565b611215565b90508281526020810184848401111561129f5761129e61119f565b5b6112aa848285611261565b509392505050565b600082601f8301126112c7576112c661119a565b5b81356112d7848260208601611270565b91505092915050565b600080604083850312156112f7576112f6611190565b5b600083013567ffffffffffffffff81111561131557611314611195565b5b611321858286016112b2565b925050602083013567ffffffffffffffff81111561134257611341611195565b5b61134e858286016112b2565b9150509250929050565b600081519050919050565b600082825260208201905092915050565b60005b83811015611392578082015181840152602081019050611377565b60008484015250505050565b60006113a982611358565b6113b38185611363565b93506113c3818560208601611374565b6113cc816111a4565b840191505092915050565b600060208201905081810360008301526113f1818461139e565b905092915050565b6000819050919050565b61140c816113f9565b82525050565b60006020820190506114276000830184611403565b92915050565b611436816113f9565b811461144157600080fd5b50565b6000813590506114538161142d565b92915050565b60006020828403121561146f5761146e611190565b5b600061147d84828501611444565b91505092915050565b7f496e73756666696369656e742062657420616d6f756e74000000000000000000600082015250565b60006114bc601783611363565b91506114c782611486565b602082019050919050565b600060208201905081810360008301526114eb816114af565b9050919050565b7f426f746820706c61796572732061726520616c7265616479207265676973746560008201527f7265640000000000000000000000000000000000000000000000000000000000602082015250565b600061154e602383611363565b9150611559826114f2565b604082019050919050565b6000602082019050818103600083015261157d81611541565b9050919050565b7f4e487b7100000000000000000000000000000000000000000000000000000000600052601160045260246000fd5b60006115be826110c0565b91506115c9836110c0565b92508282019050808211156115e1576115e0611584565b5b92915050565b7f4e487b7100000000000000000000000000000000000000000000000000000000600052602260045260246000fd5b6000600282049050600182168061162e57607f821691505b602082108103611641576116406115e7565b5b50919050565b7f506c61796572206973206e6f7420726567697374657265640000000000000000600082015250565b600061167d601883611363565b915061168882611647565b602082019050919050565b600060208201905081810360008301526116ac81611670565b9050919050565b7f4d6f76652068617320616c7265616479206265656e2072657665616c65640000600082015250565b60006116e9601e83611363565b91506116f4826116b3565b602082019050919050565b60006020820190508181036000830152611718816116dc565b9050919050565b600081905092915050565b600061173582611358565b61173f818561171f565b935061174f818560208601611374565b80840191505092915050565b6000611767828461172a565b915081905092915050565b7f496e76616c6964206d6f7665206f722070617373776f72640000000000000000600082015250565b60006117a8601883611363565b91506117b382611772565b602082019050919050565b600060208201905081810360008301526117d78161179b565b9050919050565b60008190508160005260206000209050919050565b60006020601f8301049050919050565b600082821b905092915050565b6000600883026118407fffffffffffffffffffffffffffffffffffffffffffffffffffffffffffffffff82611803565b61184a8683611803565b95508019841693508086168417925050509392505050565b6000819050919050565b600061188761188261187d846110c0565b611862565b6110c0565b9050919050565b6000819050919050565b6118a18361186c565b6118b56118ad8261188e565b848454611810565b825550505050565b600090565b6118ca6118bd565b6118d5818484611898565b505050565b5b818110156118f9576118ee6000826118c2565b6001810190506118db565b5050565b601f82111561193e5761190f816117de565b611918846117f3565b81016020851015611927578190505b61193b611933856117f3565b8301826118da565b50505b505050565b600082821c905092915050565b600061196160001984600802611943565b1980831691505092915050565b600061197a8383611950565b9150826002028217905092915050565b61199382611358565b67ffffffffffffffff8111156119ac576119ab6111b5565b5b6119b68254611616565b6119c18282856118fd565b600060209050601f8311600181146119f457600084156119e2578287015190505b6119ec858261196e565b865550611a54565b601f198416611a02866117de565b60005b82811015611a2a57848901518255600182019150602085019450602081019050611a05565b86831015611a475784890151611a43601f891682611950565b8355505b6001600288020188555050505b505050505050565b7f426f746820706c6179657273206861766520616c7265616479207375626d697460008201527f746564207468656972206d6f7665730000000000000000000000000000000000602082015250565b6000611ab8602f83611363565b9150611ac382611a5c565b604082019050919050565b60006020820190508181036000830152611ae781611aab565b9050919050565b60008160601b9050919050565b6000611b0682611aee565b9050919050565b6000611b1882611afb565b9050919050565b611b30611b2b8261114a565b611b0d565b82525050565b6000611b428285611b1f565b601482019150611b52828461172a565b91508190509392505050565b7f426f746820706c61796572732068617665206e6f742072657665616c6564207460008201527f68656972206d6f76657320796574000000000000000000000000000000000000602082015250565b6000611bba602e83611363565b9150611bc582611b5e565b604082019050919050565b60006020820190508181036000830152611be981611bad565b905091905056fea26469706673582212201ac95a206860e0ce3d8db534b2844881e3b332032d4486bc0f93b19284a76e3164736f6c63430008120033",
					"opcodes": "PUSH1 0x80 PUSH1 0x40 MSTORE CALLVALUE DUP1 ISZERO PUSH2 0x10 JUMPI PUSH1 0x0 DUP1 REVERT JUMPDEST POP CALLER PUSH1 0x0 DUP1 PUSH2 0x100 EXP DUP2 SLOAD DUP2 PUSH20 0xFFFFFFFFFFFFFFFFFFFFFFFFFFFFFFFFFFFFFFFF MUL NOT AND SWAP1 DUP4 PUSH20 0xFFFFFFFFFFFFFFFFFFFFFFFFFFFFFFFFFFFFFFFF AND MUL OR SWAP1 SSTORE POP PUSH2 0x1C26 DUP1 PUSH2 0x60 PUSH1 0x0 CODECOPY PUSH1 0x0 RETURN INVALID PUSH1 0x80 PUSH1 0x40 MSTORE PUSH1 0x4 CALLDATASIZE LT PUSH2 0x109 JUMPI PUSH1 0x0 CALLDATALOAD PUSH1 0xE0 SHR DUP1 PUSH4 0x8B7AFE2E GT PUSH2 0x95 JUMPI DUP1 PUSH4 0xC7A1865B GT PUSH2 0x64 JUMPI DUP1 PUSH4 0xC7A1865B EQ PUSH2 0x31A JUMPI DUP1 PUSH4 0xD24257C0 EQ PUSH2 0x343 JUMPI DUP1 PUSH4 0xD30895E4 EQ PUSH2 0x36E JUMPI DUP1 PUSH4 0xDA91254C EQ PUSH2 0x399 JUMPI DUP1 PUSH4 0xE0942EEE EQ PUSH2 0x3C4 JUMPI PUSH2 0x109 JUMP JUMPDEST DUP1 PUSH4 0x8B7AFE2E EQ PUSH2 0x26E JUMPI DUP1 PUSH4 0xAC8F5C1A EQ PUSH2 0x299 JUMPI DUP1 PUSH4 0xB71E7307 EQ PUSH2 0x2C4 JUMPI DUP1 PUSH4 0xBFFA480D EQ PUSH2 0x2EF JUMPI PUSH2 0x109 JUMP JUMPDEST DUP1 PUSH4 0x59A5F12D GT PUSH2 0xDC JUMPI DUP1 PUSH4 0x59A5F12D EQ PUSH2 0x199 JUMPI DUP1 PUSH4 0x5BA1B2C7 EQ PUSH2 0x1C4 JUMPI DUP1 PUSH4 0x6540742F EQ PUSH2 0x1ED JUMPI DUP1 PUSH4 0x6F9FB98A EQ PUSH2 0x218 JUMPI DUP1 PUSH4 0x807C8504 EQ PUSH2 0x243 JUMPI PUSH2 0x109 JUMP JUMPDEST DUP1 PUSH4 0x1AA3A008 EQ PUSH2 0x10E JUMPI DUP1 PUSH4 0x3D6AE3A7 EQ PUSH2 0x118 JUMPI DUP1 PUSH4 0x43445CA8 EQ PUSH2 0x143 JUMPI DUP1 PUSH4 0x51DCB1C3 EQ PUSH2 0x16E JUMPI JUMPDEST PUSH1 0x0 DUP1 REVERT JUMPDEST PUSH2 0x116 PUSH2 0x3EF JUMP JUMPDEST STOP JUMPDEST CALLVALUE DUP1 ISZERO PUSH2 0x124 JUMPI PUSH1 0x0 DUP1 REVERT JUMPDEST POP PUSH2 0x12D PUSH2 0x61D JUMP JUMPDEST PUSH1 0x40 MLOAD PUSH2 0x13A SWAP2 SWAP1 PUSH2 0x10D9 JUMP JUMPDEST PUSH1 0x40 MLOAD DUP1 SWAP2 SUB SWAP1 RETURN JUMPDEST CALLVALUE DUP1 ISZERO PUSH2 0x14F JUMPI PUSH1 0x0 DUP1 REVERT JUMPDEST POP PUSH2 0x158 PUSH2 0x624 JUMP JUMPDEST PUSH1 0x40 MLOAD PUSH2 0x165 SWAP2 SWAP1 PUSH2 0x110F JUMP JUMPDEST PUSH1 0x40 MLOAD DUP1 SWAP2 SUB SWAP1 RETURN JUMPDEST CALLVALUE DUP1 ISZERO PUSH2 0x17A JUMPI PUSH1 0x0 DUP1 REVERT JUMPDEST POP PUSH2 0x183 PUSH2 0x656 JUMP JUMPDEST PUSH1 0x40 MLOAD PUSH2 0x190 SWAP2 SWAP1 PUSH2 0x10D9 JUMP JUMPDEST PUSH1 0x40 MLOAD DUP1 SWAP2 SUB SWAP1 RETURN JUMPDEST CALLVALUE DUP1 ISZERO PUSH2 0x1A5 JUMPI PUSH1 0x0 DUP1 REVERT JUMPDEST POP PUSH2 0x1AE PUSH2 0x661 JUMP JUMPDEST PUSH1 0x40 MLOAD PUSH2 0x1BB SWAP2 SWAP1 PUSH2 0x116B JUMP JUMPDEST PUSH1 0x40 MLOAD DUP1 SWAP2 SUB SWAP1 RETURN JUMPDEST CALLVALUE DUP1 ISZERO PUSH2 0x1D0 JUMPI PUSH1 0x0 DUP1 REVERT JUMPDEST POP PUSH2 0x1EB PUSH1 0x4 DUP1 CALLDATASIZE SUB DUP2 ADD SWAP1 PUSH2 0x1E6 SWAP2 SWAP1 PUSH2 0x12E0 JUMP JUMPDEST PUSH2 0x687 JUMP JUMPDEST STOP JUMPDEST CALLVALUE DUP1 ISZERO PUSH2 0x1F9 JUMPI PUSH1 0x0 DUP1 REVERT JUMPDEST POP PUSH2 0x202 PUSH2 0x926 JUMP JUMPDEST PUSH1 0x40 MLOAD PUSH2 0x20F SWAP2 SWAP1 PUSH2 0x10D9 JUMP JUMPDEST PUSH1 0x40 MLOAD DUP1 SWAP2 SUB SWAP1 RETURN JUMPDEST CALLVALUE DUP1 ISZERO PUSH2 0x224 JUMPI PUSH1 0x0 DUP1 REVERT JUMPDEST POP PUSH2 0x22D PUSH2 0x930 JUMP JUMPDEST PUSH1 0x40 MLOAD PUSH2 0x23A SWAP2 SWAP1 PUSH2 0x10D9 JUMP JUMPDEST PUSH1 0x40 MLOAD DUP1 SWAP2 SUB SWAP1 RETURN JUMPDEST CALLVALUE DUP1 ISZERO PUSH2 0x24F JUMPI PUSH1 0x0 DUP1 REVERT JUMPDEST POP PUSH2 0x258 PUSH2 0x938 JUMP JUMPDEST PUSH1 0x40 MLOAD PUSH2 0x265 SWAP2 SWAP1 PUSH2 0x110F JUMP JUMPDEST PUSH1 0x40 MLOAD DUP1 SWAP2 SUB SWAP1 RETURN JUMPDEST CALLVALUE DUP1 ISZERO PUSH2 0x27A JUMPI PUSH1 0x0 DUP1 REVERT JUMPDEST POP PUSH2 0x283 PUSH2 0x9EA JUMP JUMPDEST PUSH1 0x40 MLOAD PUSH2 0x290 SWAP2 SWAP1 PUSH2 0x10D9 JUMP JUMPDEST PUSH1 0x40 MLOAD DUP1 SWAP2 SUB SWAP1 RETURN JUMPDEST CALLVALUE DUP1 ISZERO PUSH2 0x2A5 JUMPI PUSH1 0x0 DUP1 REVERT JUMPDEST POP PUSH2 0x2AE PUSH2 0x9F0 JUMP JUMPDEST PUSH1 0x40 MLOAD PUSH2 0x2BB SWAP2 SWAP1 PUSH2 0x13D7 JUMP JUMPDEST PUSH1 0x40 MLOAD DUP1 SWAP2 SUB SWAP1 RETURN JUMPDEST CALLVALUE DUP1 ISZERO PUSH2 0x2D0 JUMPI PUSH1 0x0 DUP1 REVERT JUMPDEST POP PUSH2 0x2D9 PUSH2 0xA7E JUMP JUMPDEST PUSH1 0x40 MLOAD PUSH2 0x2E6 SWAP2 SWAP1 PUSH2 0x1412 JUMP JUMPDEST PUSH1 0x40 MLOAD DUP1 SWAP2 SUB SWAP1 RETURN JUMPDEST CALLVALUE DUP1 ISZERO PUSH2 0x2FB JUMPI PUSH1 0x0 DUP1 REVERT JUMPDEST POP PUSH2 0x304 PUSH2 0xA84 JUMP JUMPDEST PUSH1 0x40 MLOAD PUSH2 0x311 SWAP2 SWAP1 PUSH2 0x1412 JUMP JUMPDEST PUSH1 0x40 MLOAD DUP1 SWAP2 SUB SWAP1 RETURN JUMPDEST CALLVALUE DUP1 ISZERO PUSH2 0x326 JUMPI PUSH1 0x0 DUP1 REVERT JUMPDEST POP PUSH2 0x341 PUSH1 0x4 DUP1 CALLDATASIZE SUB DUP2 ADD SWAP1 PUSH2 0x33C SWAP2 SWAP1 PUSH2 0x1459 JUMP JUMPDEST PUSH2 0xA8A JUMP JUMPDEST STOP JUMPDEST CALLVALUE DUP1 ISZERO PUSH2 0x34F JUMPI PUSH1 0x0 DUP1 REVERT JUMPDEST POP PUSH2 0x358 PUSH2 0xC32 JUMP JUMPDEST PUSH1 0x40 MLOAD PUSH2 0x365 SWAP2 SWAP1 PUSH2 0x10D9 JUMP JUMPDEST PUSH1 0x40 MLOAD DUP1 SWAP2 SUB SWAP1 RETURN JUMPDEST CALLVALUE DUP1 ISZERO PUSH2 0x37A JUMPI PUSH1 0x0 DUP1 REVERT JUMPDEST POP PUSH2 0x383 PUSH2 0xC38 JUMP JUMPDEST PUSH1 0x40 MLOAD PUSH2 0x390 SWAP2 SWAP1 PUSH2 0x116B JUMP JUMPDEST PUSH1 0x40 MLOAD DUP1 SWAP2 SUB SWAP1 RETURN JUMPDEST CALLVALUE DUP1 ISZERO PUSH2 0x3A5 JUMPI PUSH1 0x0 DUP1 REVERT JUMPDEST POP PUSH2 0x3AE PUSH2 0xC5C JUMP JUMPDEST PUSH1 0x40 MLOAD PUSH2 0x3BB SWAP2 SWAP1 PUSH2 0x10D9 JUMP JUMPDEST PUSH1 0x40 MLOAD DUP1 SWAP2 SUB SWAP1 RETURN JUMPDEST CALLVALUE DUP1 ISZERO PUSH2 0x3D0 JUMPI PUSH1 0x0 DUP1 REVERT JUMPDEST POP PUSH2 0x3D9 PUSH2 0xD21 JUMP JUMPDEST PUSH1 0x40 MLOAD PUSH2 0x3E6 SWAP2 SWAP1 PUSH2 0x13D7 JUMP JUMPDEST PUSH1 0x40 MLOAD DUP1 SWAP2 SUB SWAP1 RETURN JUMPDEST PUSH6 0x5AF3107A4000 CALLVALUE LT ISZERO PUSH2 0x438 JUMPI PUSH1 0x40 MLOAD PUSH32 0x8C379A000000000000000000000000000000000000000000000000000000000 DUP2 MSTORE PUSH1 0x4 ADD PUSH2 0x42F SWAP1 PUSH2 0x14D2 JUMP JUMPDEST PUSH1 0x40 MLOAD DUP1 SWAP2 SUB SWAP1 REVERT JUMPDEST PUSH1 0x0 PUSH20 0xFFFFFFFFFFFFFFFFFFFFFFFFFFFFFFFFFFFFFFFF AND PUSH1 0x0 DUP1 SLOAD SWAP1 PUSH2 0x100 EXP SWAP1 DIV PUSH20 0xFFFFFFFFFFFFFFFFFFFFFFFFFFFFFFFFFFFFFFFF AND PUSH20 0xFFFFFFFFFFFFFFFFFFFFFFFFFFFFFFFFFFFFFFFF AND EQ DUP1 PUSH2 0x4E1 JUMPI POP PUSH1 0x0 PUSH20 0xFFFFFFFFFFFFFFFFFFFFFFFFFFFFFFFFFFFFFFFF AND PUSH1 0x1 PUSH1 0x0 SWAP1 SLOAD SWAP1 PUSH2 0x100 EXP SWAP1 DIV PUSH20 0xFFFFFFFFFFFFFFFFFFFFFFFFFFFFFFFFFFFFFFFF AND PUSH20 0xFFFFFFFFFFFFFFFFFFFFFFFFFFFFFFFFFFFFFFFF AND EQ JUMPDEST PUSH2 0x520 JUMPI PUSH1 0x40 MLOAD PUSH32 0x8C379A000000000000000000000000000000000000000000000000000000000 DUP2 MSTORE PUSH1 0x4 ADD PUSH2 0x517 SWAP1 PUSH2 0x1564 JUMP JUMPDEST PUSH1 0x40 MLOAD DUP1 SWAP2 SUB SWAP1 REVERT JUMPDEST PUSH1 0x0 PUSH20 0xFFFFFFFFFFFFFFFFFFFFFFFFFFFFFFFFFFFFFFFF AND PUSH1 0x0 DUP1 SLOAD SWAP1 PUSH2 0x100 EXP SWAP1 DIV PUSH20 0xFFFFFFFFFFFFFFFFFFFFFFFFFFFFFFFFFFFFFFFF AND PUSH20 0xFFFFFFFFFFFFFFFFFFFFFFFFFFFFFFFFFFFFFFFF AND SUB PUSH2 0x5B9 JUMPI CALLER PUSH1 0x0 DUP1 PUSH2 0x100 EXP DUP2 SLOAD DUP2 PUSH20 0xFFFFFFFFFFFFFFFFFFFFFFFFFFFFFFFFFFFFFFFF MUL NOT AND SWAP1 DUP4 PUSH20 0xFFFFFFFFFFFFFFFFFFFFFFFFFFFFFFFFFFFFFFFF AND MUL OR SWAP1 SSTORE POP PUSH2 0x5FB JUMP JUMPDEST CALLER PUSH1 0x1 PUSH1 0x0 PUSH2 0x100 EXP DUP2 SLOAD DUP2 PUSH20 0xFFFFFFFFFFFFFFFFFFFFFFFFFFFFFFFFFFFFFFFF MUL NOT AND SWAP1 DUP4 PUSH20 0xFFFFFFFFFFFFFFFFFFFFFFFFFFFFFFFFFFFFFFFF AND MUL OR SWAP1 SSTORE POP JUMPDEST CALLVALUE PUSH1 0x6 DUP2 SWAP1 SSTORE POP CALLVALUE PUSH1 0x7 PUSH1 0x0 DUP3 DUP3 SLOAD PUSH2 0x614 SWAP2 SWAP1 PUSH2 0x15B3 JUMP JUMPDEST SWAP3 POP POP DUP2 SWAP1 SSTORE POP JUMP JUMPDEST PUSH3 0x15180 DUP2 JUMP JUMPDEST PUSH1 0x0 DUP1 PUSH1 0x4 DUP1 SLOAD PUSH2 0x634 SWAP1 PUSH2 0x1616 JUMP JUMPDEST SWAP1 POP GT DUP1 ISZERO PUSH2 0x651 JUMPI POP PUSH1 0x0 PUSH1 0x5 DUP1 SLOAD PUSH2 0x64D SWAP1 PUSH2 0x1616 JUMP JUMPDEST SWAP1 POP GT JUMPDEST SWAP1 POP SWAP1 JUMP JUMPDEST PUSH1 0x0 PUSH3 0x15180 SWAP1 POP SWAP1 JUMP JUMPDEST PUSH1 0x1 PUSH1 0x0 SWAP1 SLOAD SWAP1 PUSH2 0x100 EXP SWAP1 DIV PUSH20 0xFFFFFFFFFFFFFFFFFFFFFFFFFFFFFFFFFFFFFFFF AND DUP2 JUMP JUMPDEST CALLER PUSH1 0x0 DUP1 SLOAD SWAP1 PUSH2 0x100 EXP SWAP1 DIV PUSH20 0xFFFFFFFFFFFFFFFFFFFFFFFFFFFFFFFFFFFFFFFF AND PUSH20 0xFFFFFFFFFFFFFFFFFFFFFFFFFFFFFFFFFFFFFFFF AND DUP2 PUSH20 0xFFFFFFFFFFFFFFFFFFFFFFFFFFFFFFFFFFFFFFFF AND EQ DUP1 PUSH2 0x72F JUMPI POP PUSH1 0x1 PUSH1 0x0 SWAP1 SLOAD SWAP1 PUSH2 0x100 EXP SWAP1 DIV PUSH20 0xFFFFFFFFFFFFFFFFFFFFFFFFFFFFFFFFFFFFFFFF AND PUSH20 0xFFFFFFFFFFFFFFFFFFFFFFFFFFFFFFFFFFFFFFFF AND DUP2 PUSH20 0xFFFFFFFFFFFFFFFFFFFFFFFFFFFFFFFFFFFFFFFF AND EQ JUMPDEST PUSH2 0x76E JUMPI PUSH1 0x40 MLOAD PUSH32 0x8C379A000000000000000000000000000000000000000000000000000000000 DUP2 MSTORE PUSH1 0x4 ADD PUSH2 0x765 SWAP1 PUSH2 0x1693 JUMP JUMPDEST PUSH1 0x40 MLOAD DUP1 SWAP2 SUB SWAP1 REVERT JUMPDEST PUSH2 0x778 CALLER DUP4 PUSH2 0xDAF JUMP JUMPDEST PUSH1 0x0 DUP1 SHL DUP2 SUB PUSH2 0x7BD JUMPI PUSH1 0x40 MLOAD PUSH32 0x8C379A000000000000000000000000000000000000000000000000000000000 DUP2 MSTORE PUSH1 0x4 ADD PUSH2 0x7B4 SWAP1 PUSH2 0x16FF JUMP JUMPDEST PUSH1 0x40 MLOAD DUP1 SWAP2 SUB SWAP1 REVERT JUMPDEST PUSH1 0x0 DUP1 SLOAD SWAP1 PUSH2 0x100 EXP SWAP1 DIV PUSH20 0xFFFFFFFFFFFFFFFFFFFFFFFFFFFFFFFFFFFFFFFF AND PUSH20 0xFFFFFFFFFFFFFFFFFFFFFFFFFFFFFFFFFFFFFFFF AND CALLER PUSH20 0xFFFFFFFFFFFFFFFFFFFFFFFFFFFFFFFFFFFFFFFF AND SUB PUSH2 0x88F JUMPI PUSH1 0x2 SLOAD DUP5 PUSH1 0x40 MLOAD PUSH1 0x20 ADD PUSH2 0x824 SWAP2 SWAP1 PUSH2 0x175B JUMP JUMPDEST PUSH1 0x40 MLOAD PUSH1 0x20 DUP2 DUP4 SUB SUB DUP2 MSTORE SWAP1 PUSH1 0x40 MSTORE DUP1 MLOAD SWAP1 PUSH1 0x20 ADD KECCAK256 EQ PUSH2 0x87A JUMPI PUSH1 0x40 MLOAD PUSH32 0x8C379A000000000000000000000000000000000000000000000000000000000 DUP2 MSTORE PUSH1 0x4 ADD PUSH2 0x871 SWAP1 PUSH2 0x17BE JUMP JUMPDEST PUSH1 0x40 MLOAD DUP1 SWAP2 SUB SWAP1 REVERT JUMPDEST DUP4 PUSH1 0x4 SWAP1 DUP2 PUSH2 0x889 SWAP2 SWAP1 PUSH2 0x198A JUMP JUMPDEST POP PUSH2 0x90A JUMP JUMPDEST PUSH1 0x3 SLOAD DUP5 PUSH1 0x40 MLOAD PUSH1 0x20 ADD PUSH2 0x8A3 SWAP2 SWAP1 PUSH2 0x175B JUMP JUMPDEST PUSH1 0x40 MLOAD PUSH1 0x20 DUP2 DUP4 SUB SUB DUP2 MSTORE SWAP1 PUSH1 0x40 MSTORE DUP1 MLOAD SWAP1 PUSH1 0x20 ADD KECCAK256 EQ PUSH2 0x8F9 JUMPI PUSH1 0x40 MLOAD PUSH32 0x8C379A000000000000000000000000000000000000000000000000000000000 DUP2 MSTORE PUSH1 0x4 ADD PUSH2 0x8F0 SWAP1 PUSH2 0x17BE JUMP JUMPDEST PUSH1 0x40 MLOAD DUP1 SWAP2 SUB SWAP1 REVERT JUMPDEST DUP4 PUSH1 0x5 SWAP1 DUP2 PUSH2 0x908 SWAP2 SWAP1 PUSH2 0x198A JUMP JUMPDEST POP JUMPDEST PUSH2 0x912 PUSH2 0x624 JUMP JUMPDEST ISZERO PUSH2 0x920 JUMPI PUSH2 0x91F PUSH2 0xDE2 JUMP JUMPDEST JUMPDEST POP POP POP POP JUMP JUMPDEST PUSH6 0x5AF3107A4000 DUP2 JUMP JUMPDEST PUSH1 0x0 SELFBALANCE SWAP1 POP SWAP1 JUMP JUMPDEST PUSH1 0x0 DUP1 PUSH20 0xFFFFFFFFFFFFFFFFFFFFFFFFFFFFFFFFFFFFFFFF AND PUSH1 0x0 DUP1 SLOAD SWAP1 PUSH2 0x100 EXP SWAP1 DIV PUSH20 0xFFFFFFFFFFFFFFFFFFFFFFFFFFFFFFFFFFFFFFFF AND PUSH20 0xFFFFFFFFFFFFFFFFFFFFFFFFFFFFFFFFFFFFFFFF AND EQ ISZERO DUP1 ISZERO PUSH2 0x9E5 JUMPI POP PUSH1 0x0 PUSH20 0xFFFFFFFFFFFFFFFFFFFFFFFFFFFFFFFFFFFFFFFF AND PUSH1 0x1 PUSH1 0x0 SWAP1 SLOAD SWAP1 PUSH2 0x100 EXP SWAP1 DIV PUSH20 0xFFFFFFFFFFFFFFFFFFFFFFFFFFFFFFFFFFFFFFFF AND PUSH20 0xFFFFFFFFFFFFFFFFFFFFFFFFFFFFFFFFFFFFFFFF AND EQ ISZERO JUMPDEST SWAP1 POP SWAP1 JUMP JUMPDEST PUSH1 0x7 SLOAD DUP2 JUMP JUMPDEST PUSH1 0x5 DUP1 SLOAD PUSH2 0x9FD SWAP1 PUSH2 0x1616 JUMP JUMPDEST DUP1 PUSH1 0x1F ADD PUSH1 0x20 DUP1 SWAP2 DIV MUL PUSH1 0x20 ADD PUSH1 0x40 MLOAD SWAP1 DUP2 ADD PUSH1 0x40 MSTORE DUP1 SWAP3 SWAP2 SWAP1 DUP2 DUP2 MSTORE PUSH1 0x20 ADD DUP3 DUP1 SLOAD PUSH2 0xA29 SWAP1 PUSH2 0x1616 JUMP JUMPDEST DUP1 ISZERO PUSH2 0xA76 JUMPI DUP1 PUSH1 0x1F LT PUSH2 0xA4B JUMPI PUSH2 0x100 DUP1 DUP4 SLOAD DIV MUL DUP4 MSTORE SWAP2 PUSH1 0x20 ADD SWAP2 PUSH2 0xA76 JUMP JUMPDEST DUP3 ADD SWAP2 SWAP1 PUSH1 0x0 MSTORE PUSH1 0x20 PUSH1 0x0 KECCAK256 SWAP1 JUMPDEST DUP2 SLOAD DUP2 MSTORE SWAP1 PUSH1 0x1 ADD SWAP1 PUSH1 0x20 ADD DUP1 DUP4 GT PUSH2 0xA59 JUMPI DUP3 SWAP1 SUB PUSH1 0x1F AND DUP3 ADD SWAP2 JUMPDEST POP POP POP POP POP DUP2 JUMP JUMPDEST PUSH1 0x3 SLOAD DUP2 JUMP JUMPDEST PUSH1 0x2 SLOAD DUP2 JUMP JUMPDEST CALLER PUSH1 0x0 DUP1 SLOAD SWAP1 PUSH2 0x100 EXP SWAP1 DIV PUSH20 0xFFFFFFFFFFFFFFFFFFFFFFFFFFFFFFFFFFFFFFFF AND PUSH20 0xFFFFFFFFFFFFFFFFFFFFFFFFFFFFFFFFFFFFFFFF AND DUP2 PUSH20 0xFFFFFFFFFFFFFFFFFFFFFFFFFFFFFFFFFFFFFFFF AND EQ DUP1 PUSH2 0xB32 JUMPI POP PUSH1 0x1 PUSH1 0x0 SWAP1 SLOAD SWAP1 PUSH2 0x100 EXP SWAP1 DIV PUSH20 0xFFFFFFFFFFFFFFFFFFFFFFFFFFFFFFFFFFFFFFFF AND PUSH20 0xFFFFFFFFFFFFFFFFFFFFFFFFFFFFFFFFFFFFFFFF AND DUP2 PUSH20 0xFFFFFFFFFFFFFFFFFFFFFFFFFFFFFFFFFFFFFFFF AND EQ JUMPDEST PUSH2 0xB71 JUMPI PUSH1 0x40 MLOAD PUSH32 0x8C379A000000000000000000000000000000000000000000000000000000000 DUP2 MSTORE PUSH1 0x4 ADD PUSH2 0xB68 SWAP1 PUSH2 0x1693 JUMP JUMPDEST PUSH1 0x40 MLOAD DUP1 SWAP2 SUB SWAP1 REVERT JUMPDEST PUSH1 0x0 DUP1 SHL PUSH1 0x2 SLOAD EQ DUP1 PUSH2 0xB88 JUMPI POP PUSH1 0x0 DUP1 SHL PUSH1 0x3 SLOAD EQ JUMPDEST PUSH2 0xBC7 JUMPI PUSH1 0x40 MLOAD PUSH32 0x8C379A000000000000000000000000000000000000000000000000000000000 DUP2 MSTORE PUSH1 0x4 ADD PUSH2 0xBBE SWAP1 PUSH2 0x1ACE JUMP JUMPDEST PUSH1 0x40 MLOAD DUP1 SWAP2 SUB SWAP1 REVERT JUMPDEST PUSH1 0x0 DUP1 SLOAD SWAP1 PUSH2 0x100 EXP SWAP1 DIV PUSH20 0xFFFFFFFFFFFFFFFFFFFFFFFFFFFFFFFFFFFFFFFF AND PUSH20 0xFFFFFFFFFFFFFFFFFFFFFFFFFFFFFFFFFFFFFFFF AND CALLER PUSH20 0xFFFFFFFFFFFFFFFFFFFFFFFFFFFFFFFFFFFFFFFF AND SUB PUSH2 0xC26 JUMPI DUP2 PUSH1 0x2 DUP2 SWAP1 SSTORE POP PUSH2 0xC2E JUMP JUMPDEST DUP2 PUSH1 0x3 DUP2 SWAP1 SSTORE POP JUMPDEST POP POP JUMP JUMPDEST PUSH1 0x6 SLOAD DUP2 JUMP JUMPDEST PUSH1 0x0 DUP1 SLOAD SWAP1 PUSH2 0x100 EXP SWAP1 DIV PUSH20 0xFFFFFFFFFFFFFFFFFFFFFFFFFFFFFFFFFFFFFFFF AND DUP2 JUMP JUMPDEST PUSH1 0x0 DUP1 PUSH1 0x0 SWAP1 SLOAD SWAP1 PUSH2 0x100 EXP SWAP1 DIV PUSH20 0xFFFFFFFFFFFFFFFFFFFFFFFFFFFFFFFFFFFFFFFF AND PUSH20 0xFFFFFFFFFFFFFFFFFFFFFFFFFFFFFFFFFFFFFFFF AND CALLER PUSH20 0xFFFFFFFFFFFFFFFFFFFFFFFFFFFFFFFFFFFFFFFF AND SUB PUSH2 0xCBB JUMPI PUSH1 0x1 SWAP1 POP PUSH2 0xD1E JUMP JUMPDEST PUSH1 0x1 PUSH1 0x0 SWAP1 SLOAD SWAP1 PUSH2 0x100 EXP SWAP1 DIV PUSH20 0xFFFFFFFFFFFFFFFFFFFFFFFFFFFFFFFFFFFFFFFF AND PUSH20 0xFFFFFFFFFFFFFFFFFFFFFFFFFFFFFFFFFFFFFFFF AND CALLER PUSH20 0xFFFFFFFFFFFFFFFFFFFFFFFFFFFFFFFFFFFFFFFF AND SUB PUSH2 0xD19 JUMPI PUSH1 0x2 SWAP1 POP PUSH2 0xD1E JUMP JUMPDEST PUSH1 0x0 SWAP1 POP JUMPDEST SWAP1 JUMP JUMPDEST PUSH1 0x4 DUP1 SLOAD PUSH2 0xD2E SWAP1 PUSH2 0x1616 JUMP JUMPDEST DUP1 PUSH1 0x1F ADD PUSH1 0x20 DUP1 SWAP2 DIV MUL PUSH1 0x20 ADD PUSH1 0x40 MLOAD SWAP1 DUP2 ADD PUSH1 0x40 MSTORE DUP1 SWAP3 SWAP2 SWAP1 DUP2 DUP2 MSTORE PUSH1 0x20 ADD DUP3 DUP1 SLOAD PUSH2 0xD5A SWAP1 PUSH2 0x1616 JUMP JUMPDEST DUP1 ISZERO PUSH2 0xDA7 JUMPI DUP1 PUSH1 0x1F LT PUSH2 0xD7C JUMPI PUSH2 0x100 DUP1 DUP4 SLOAD DIV MUL DUP4 MSTORE SWAP2 PUSH1 0x20 ADD SWAP2 PUSH2 0xDA7 JUMP JUMPDEST DUP3 ADD SWAP2 SWAP1 PUSH1 0x0 MSTORE PUSH1 0x20 PUSH1 0x0 KECCAK256 SWAP1 JUMPDEST DUP2 SLOAD DUP2 MSTORE SWAP1 PUSH1 0x1 ADD SWAP1 PUSH1 0x20 ADD DUP1 DUP4 GT PUSH2 0xD8A JUMPI DUP3 SWAP1 SUB PUSH1 0x1F AND DUP3 ADD SWAP2 JUMPDEST POP POP POP POP POP DUP2 JUMP JUMPDEST PUSH1 0x0 DUP3 DUP3 PUSH1 0x40 MLOAD PUSH1 0x20 ADD PUSH2 0xDC4 SWAP3 SWAP2 SWAP1 PUSH2 0x1B36 JUMP JUMPDEST PUSH1 0x40 MLOAD PUSH1 0x20 DUP2 DUP4 SUB SUB DUP2 MSTORE SWAP1 PUSH1 0x40 MSTORE DUP1 MLOAD SWAP1 PUSH1 0x20 ADD KECCAK256 SWAP1 POP SWAP3 SWAP2 POP POP JUMP JUMPDEST PUSH2 0xDEA PUSH2 0x624 JUMP JUMPDEST PUSH2 0xE29 JUMPI PUSH1 0x40 MLOAD PUSH32 0x8C379A000000000000000000000000000000000000000000000000000000000 DUP2 MSTORE PUSH1 0x4 ADD PUSH2 0xE20 SWAP1 PUSH2 0x1BD0 JUMP JUMPDEST PUSH1 0x40 MLOAD DUP1 SWAP2 SUB SWAP1 REVERT JUMPDEST PUSH1 0x0 PUSH2 0xE33 PUSH2 0xFCF JUMP JUMPDEST ISZERO PUSH2 0xE60 JUMPI PUSH1 0x0 DUP1 SLOAD SWAP1 PUSH2 0x100 EXP SWAP1 DIV PUSH20 0xFFFFFFFFFFFFFFFFFFFFFFFFFFFFFFFFFFFFFFFF AND SWAP1 POP PUSH2 0xF7A JUMP JUMPDEST PUSH2 0xE68 PUSH2 0xFD4 JUMP JUMPDEST ISZERO PUSH2 0xE97 JUMPI PUSH1 0x1 PUSH1 0x0 SWAP1 SLOAD SWAP1 PUSH2 0x100 EXP SWAP1 DIV PUSH20 0xFFFFFFFFFFFFFFFFFFFFFFFFFFFFFFFFFFFFFFFF AND SWAP1 POP PUSH2 0xF79 JUMP JUMPDEST PUSH1 0x0 DUP1 SLOAD SWAP1 PUSH2 0x100 EXP SWAP1 DIV PUSH20 0xFFFFFFFFFFFFFFFFFFFFFFFFFFFFFFFFFFFFFFFF AND PUSH20 0xFFFFFFFFFFFFFFFFFFFFFFFFFFFFFFFFFFFFFFFF AND PUSH2 0x8FC PUSH1 0x6 SLOAD SWAP1 DUP2 ISZERO MUL SWAP1 PUSH1 0x40 MLOAD PUSH1 0x0 PUSH1 0x40 MLOAD DUP1 DUP4 SUB DUP2 DUP6 DUP9 DUP9 CALL SWAP4 POP POP POP POP ISZERO DUP1 ISZERO PUSH2 0xEFF JUMPI RETURNDATASIZE PUSH1 0x0 DUP1 RETURNDATACOPY RETURNDATASIZE PUSH1 0x0 REVERT JUMPDEST POP PUSH1 0x1 PUSH1 0x0 SWAP1 SLOAD SWAP1 PUSH2 0x100 EXP SWAP1 DIV PUSH20 0xFFFFFFFFFFFFFFFFFFFFFFFFFFFFFFFFFFFFFFFF AND PUSH20 0xFFFFFFFFFFFFFFFFFFFFFFFFFFFFFFFFFFFFFFFF AND PUSH2 0x8FC PUSH1 0x6 SLOAD SWAP1 DUP2 ISZERO MUL SWAP1 PUSH1 0x40 MLOAD PUSH1 0x0 PUSH1 0x40 MLOAD DUP1 DUP4 SUB DUP2 DUP6 DUP9 DUP9 CALL SWAP4 POP POP POP POP ISZERO DUP1 ISZERO PUSH2 0xF6A JUMPI RETURNDATASIZE PUSH1 0x0 DUP1 RETURNDATACOPY RETURNDATASIZE PUSH1 0x0 REVERT JUMPDEST POP PUSH2 0xF73 PUSH2 0xFD9 JUMP JUMPDEST POP PUSH2 0xFCD JUMP JUMPDEST JUMPDEST DUP1 PUSH20 0xFFFFFFFFFFFFFFFFFFFFFFFFFFFFFFFFFFFFFFFF AND PUSH2 0x8FC PUSH1 0x7 SLOAD SWAP1 DUP2 ISZERO MUL SWAP1 PUSH1 0x40 MLOAD PUSH1 0x0 PUSH1 0x40 MLOAD DUP1 DUP4 SUB DUP2 DUP6 DUP9 DUP9 CALL SWAP4 POP POP POP POP ISZERO DUP1 ISZERO PUSH2 0xFC2 JUMPI RETURNDATASIZE PUSH1 0x0 DUP1 RETURNDATACOPY RETURNDATASIZE PUSH1 0x0 REVERT JUMPDEST POP PUSH2 0xFCB PUSH2 0xFD9 JUMP JUMPDEST POP JUMPDEST JUMP JUMPDEST PUSH1 0x0 SWAP1 JUMP JUMPDEST PUSH1 0x0 SWAP1 JUMP JUMPDEST PUSH1 0x0 DUP1 PUSH1 0x0 PUSH2 0x100 EXP DUP2 SLOAD DUP2 PUSH20 0xFFFFFFFFFFFFFFFFFFFFFFFFFFFFFFFFFFFFFFFF MUL NOT AND SWAP1 DUP4 PUSH20 0xFFFFFFFFFFFFFFFFFFFFFFFFFFFFFFFFFFFFFFFF AND MUL OR SWAP1 SSTORE POP PUSH1 0x0 PUSH1 0x1 PUSH1 0x0 PUSH2 0x100 EXP DUP2 SLOAD DUP2 PUSH20 0xFFFFFFFFFFFFFFFFFFFFFFFFFFFFFFFFFFFFFFFF MUL NOT AND SWAP1 DUP4 PUSH20 0xFFFFFFFFFFFFFFFFFFFFFFFFFFFFFFFFFFFFFFFF AND MUL OR SWAP1 SSTORE POP PUSH1 0x0 DUP1 SHL PUSH1 0x2 DUP2 SWAP1 SSTORE POP PUSH1 0x0 DUP1 SHL PUSH1 0x3 DUP2 SWAP1 SSTORE POP PUSH1 0x40 MLOAD DUP1 PUSH1 0x20 ADD PUSH1 0x40 MSTORE DUP1 PUSH1 0x0 DUP2 MSTORE POP PUSH1 0x4 SWAP1 DUP2 PUSH2 0x108E SWAP2 SWAP1 PUSH2 0x198A JUMP JUMPDEST POP PUSH1 0x40 MLOAD DUP1 PUSH1 0x20 ADD PUSH1 0x40 MSTORE DUP1 PUSH1 0x0 DUP2 MSTORE POP PUSH1 0x5 SWAP1 DUP2 PUSH2 0x10AD SWAP2 SWAP1 PUSH2 0x198A JUMP JUMPDEST POP PUSH1 0x0 PUSH1 0x6 DUP2 SWAP1 SSTORE POP PUSH1 0x0 PUSH1 0x7 DUP2 SWAP1 SSTORE POP JUMP JUMPDEST PUSH1 0x0 DUP2 SWAP1 POP SWAP2 SWAP1 POP JUMP JUMPDEST PUSH2 0x10D3 DUP2 PUSH2 0x10C0 JUMP JUMPDEST DUP3 MSTORE POP POP JUMP JUMPDEST PUSH1 0x0 PUSH1 0x20 DUP3 ADD SWAP1 POP PUSH2 0x10EE PUSH1 0x0 DUP4 ADD DUP5 PUSH2 0x10CA JUMP JUMPDEST SWAP3 SWAP2 POP POP JUMP JUMPDEST PUSH1 0x0 DUP2 ISZERO ISZERO SWAP1 POP SWAP2 SWAP1 POP JUMP JUMPDEST PUSH2 0x1109 DUP2 PUSH2 0x10F4 JUMP JUMPDEST DUP3 MSTORE POP POP JUMP JUMPDEST PUSH1 0x0 PUSH1 0x20 DUP3 ADD SWAP1 POP PUSH2 0x1124 PUSH1 0x0 DUP4 ADD DUP5 PUSH2 0x1100 JUMP JUMPDEST SWAP3 SWAP2 POP POP JUMP JUMPDEST PUSH1 0x0 PUSH20 0xFFFFFFFFFFFFFFFFFFFFFFFFFFFFFFFFFFFFFFFF DUP3 AND SWAP1 POP SWAP2 SWAP1 POP JUMP JUMPDEST PUSH1 0x0 PUSH2 0x1155 DUP3 PUSH2 0x112A JUMP JUMPDEST SWAP1 POP SWAP2 SWAP1 POP JUMP JUMPDEST PUSH2 0x1165 DUP2 PUSH2 0x114A JUMP JUMPDEST DUP3 MSTORE POP POP JUMP JUMPDEST PUSH1 0x0 PUSH1 0x20 DUP3 ADD SWAP1 POP PUSH2 0x1180 PUSH1 0x0 DUP4 ADD DUP5 PUSH2 0x115C JUMP JUMPDEST SWAP3 SWAP2 POP POP JUMP JUMPDEST PUSH1 0x0 PUSH1 0x40 MLOAD SWAP1 POP SWAP1 JUMP JUMPDEST PUSH1 0x0 DUP1 REVERT JUMPDEST PUSH1 0x0 DUP1 REVERT JUMPDEST PUSH1 0x0 DUP1 REVERT JUMPDEST PUSH1 0x0 DUP1 REVERT JUMPDEST PUSH1 0x0 PUSH1 0x1F NOT PUSH1 0x1F DUP4 ADD AND SWAP1 POP SWAP2 SWAP1 POP JUMP JUMPDEST PUSH32 0x4E487B7100000000000000000000000000000000000000000000000000000000 PUSH1 0x0 MSTORE PUSH1 0x41 PUSH1 0x4 MSTORE PUSH1 0x24 PUSH1 0x0 REVERT JUMPDEST PUSH2 0x11ED DUP3 PUSH2 0x11A4 JUMP JUMPDEST DUP2 ADD DUP2 DUP2 LT PUSH8 0xFFFFFFFFFFFFFFFF DUP3 GT OR ISZERO PUSH2 0x120C JUMPI PUSH2 0x120B PUSH2 0x11B5 JUMP JUMPDEST JUMPDEST DUP1 PUSH1 0x40 MSTORE POP POP POP JUMP JUMPDEST PUSH1 0x0 PUSH2 0x121F PUSH2 0x1186 JUMP JUMPDEST SWAP1 POP PUSH2 0x122B DUP3 DUP3 PUSH2 0x11E4 JUMP JUMPDEST SWAP2 SWAP1 POP JUMP JUMPDEST PUSH1 0x0 PUSH8 0xFFFFFFFFFFFFFFFF DUP3 GT ISZERO PUSH2 0x124B JUMPI PUSH2 0x124A PUSH2 0x11B5 JUMP JUMPDEST JUMPDEST PUSH2 0x1254 DUP3 PUSH2 0x11A4 JUMP JUMPDEST SWAP1 POP PUSH1 0x20 DUP2 ADD SWAP1 POP SWAP2 SWAP1 POP JUMP JUMPDEST DUP3 DUP2 DUP4 CALLDATACOPY PUSH1 0x0 DUP4 DUP4 ADD MSTORE POP POP POP JUMP JUMPDEST PUSH1 0x0 PUSH2 0x1283 PUSH2 0x127E DUP5 PUSH2 0x1230 JUMP JUMPDEST PUSH2 0x1215 JUMP JUMPDEST SWAP1 POP DUP3 DUP2 MSTORE PUSH1 0x20 DUP2 ADD DUP5 DUP5 DUP5 ADD GT ISZERO PUSH2 0x129F JUMPI PUSH2 0x129E PUSH2 0x119F JUMP JUMPDEST JUMPDEST PUSH2 0x12AA DUP5 DUP3 DUP6 PUSH2 0x1261 JUMP JUMPDEST POP SWAP4 SWAP3 POP POP POP JUMP JUMPDEST PUSH1 0x0 DUP3 PUSH1 0x1F DUP4 ADD SLT PUSH2 0x12C7 JUMPI PUSH2 0x12C6 PUSH2 0x119A JUMP JUMPDEST JUMPDEST DUP2 CALLDATALOAD PUSH2 0x12D7 DUP5 DUP3 PUSH1 0x20 DUP7 ADD PUSH2 0x1270 JUMP JUMPDEST SWAP2 POP POP SWAP3 SWAP2 POP POP JUMP JUMPDEST PUSH1 0x0 DUP1 PUSH1 0x40 DUP4 DUP6 SUB SLT ISZERO PUSH2 0x12F7 JUMPI PUSH2 0x12F6 PUSH2 0x1190 JUMP JUMPDEST JUMPDEST PUSH1 0x0 DUP4 ADD CALLDATALOAD PUSH8 0xFFFFFFFFFFFFFFFF DUP2 GT ISZERO PUSH2 0x1315 JUMPI PUSH2 0x1314 PUSH2 0x1195 JUMP JUMPDEST JUMPDEST PUSH2 0x1321 DUP6 DUP3 DUP7 ADD PUSH2 0x12B2 JUMP JUMPDEST SWAP3 POP POP PUSH1 0x20 DUP4 ADD CALLDATALOAD PUSH8 0xFFFFFFFFFFFFFFFF DUP2 GT ISZERO PUSH2 0x1342 JUMPI PUSH2 0x1341 PUSH2 0x1195 JUMP JUMPDEST JUMPDEST PUSH2 0x134E DUP6 DUP3 DUP7 ADD PUSH2 0x12B2 JUMP JUMPDEST SWAP2 POP POP SWAP3 POP SWAP3 SWAP1 POP JUMP JUMPDEST PUSH1 0x0 DUP2 MLOAD SWAP1 POP SWAP2 SWAP1 POP JUMP JUMPDEST PUSH1 0x0 DUP3 DUP3 MSTORE PUSH1 0x20 DUP3 ADD SWAP1 POP SWAP3 SWAP2 POP POP JUMP JUMPDEST PUSH1 0x0 JUMPDEST DUP4 DUP2 LT ISZERO PUSH2 0x1392 JUMPI DUP1 DUP3 ADD MLOAD DUP2 DUP5 ADD MSTORE PUSH1 0x20 DUP2 ADD SWAP1 POP PUSH2 0x1377 JUMP JUMPDEST PUSH1 0x0 DUP5 DUP5 ADD MSTORE POP POP POP POP JUMP JUMPDEST PUSH1 0x0 PUSH2 0x13A9 DUP3 PUSH2 0x1358 JUMP JUMPDEST PUSH2 0x13B3 DUP2 DUP6 PUSH2 0x1363 JUMP JUMPDEST SWAP4 POP PUSH2 0x13C3 DUP2 DUP6 PUSH1 0x20 DUP7 ADD PUSH2 0x1374 JUMP JUMPDEST PUSH2 0x13CC DUP2 PUSH2 0x11A4 JUMP JUMPDEST DUP5 ADD SWAP2 POP POP SWAP3 SWAP2 POP POP JUMP JUMPDEST PUSH1 0x0 PUSH1 0x20 DUP3 ADD SWAP1 POP DUP2 DUP2 SUB PUSH1 0x0 DUP4 ADD MSTORE PUSH2 0x13F1 DUP2 DUP5 PUSH2 0x139E JUMP JUMPDEST SWAP1 POP SWAP3 SWAP2 POP POP JUMP JUMPDEST PUSH1 0x0 DUP2 SWAP1 POP SWAP2 SWAP1 POP JUMP JUMPDEST PUSH2 0x140C DUP2 PUSH2 0x13F9 JUMP JUMPDEST DUP3 MSTORE POP POP JUMP JUMPDEST PUSH1 0x0 PUSH1 0x20 DUP3 ADD SWAP1 POP PUSH2 0x1427 PUSH1 0x0 DUP4 ADD DUP5 PUSH2 0x1403 JUMP JUMPDEST SWAP3 SWAP2 POP POP JUMP JUMPDEST PUSH2 0x1436 DUP2 PUSH2 0x13F9 JUMP JUMPDEST DUP2 EQ PUSH2 0x1441 JUMPI PUSH1 0x0 DUP1 REVERT JUMPDEST POP JUMP JUMPDEST PUSH1 0x0 DUP2 CALLDATALOAD SWAP1 POP PUSH2 0x1453 DUP2 PUSH2 0x142D JUMP JUMPDEST SWAP3 SWAP2 POP POP JUMP JUMPDEST PUSH1 0x0 PUSH1 0x20 DUP3 DUP5 SUB SLT ISZERO PUSH2 0x146F JUMPI PUSH2 0x146E PUSH2 0x1190 JUMP JUMPDEST JUMPDEST PUSH1 0x0 PUSH2 0x147D DUP5 DUP3 DUP6 ADD PUSH2 0x1444 JUMP JUMPDEST SWAP2 POP POP SWAP3 SWAP2 POP POP JUMP JUMPDEST PUSH32 0x496E73756666696369656E742062657420616D6F756E74000000000000000000 PUSH1 0x0 DUP3 ADD MSTORE POP JUMP JUMPDEST PUSH1 0x0 PUSH2 0x14BC PUSH1 0x17 DUP4 PUSH2 0x1363 JUMP JUMPDEST SWAP2 POP PUSH2 0x14C7 DUP3 PUSH2 0x1486 JUMP JUMPDEST PUSH1 0x20 DUP3 ADD SWAP1 POP SWAP2 SWAP1 POP JUMP JUMPDEST PUSH1 0x0 PUSH1 0x20 DUP3 ADD SWAP1 POP DUP2 DUP2 SUB PUSH1 0x0 DUP4 ADD MSTORE PUSH2 0x14EB DUP2 PUSH2 0x14AF JUMP JUMPDEST SWAP1 POP SWAP2 SWAP1 POP JUMP JUMPDEST PUSH32 0x426F746820706C61796572732061726520616C72656164792072656769737465 PUSH1 0x0 DUP3 ADD MSTORE PUSH32 0x7265640000000000000000000000000000000000000000000000000000000000 PUSH1 0x20 DUP3 ADD MSTORE POP JUMP JUMPDEST PUSH1 0x0 PUSH2 0x154E PUSH1 0x23 DUP4 PUSH2 0x1363 JUMP JUMPDEST SWAP2 POP PUSH2 0x1559 DUP3 PUSH2 0x14F2 JUMP JUMPDEST PUSH1 0x40 DUP3 ADD SWAP1 POP SWAP2 SWAP1 POP JUMP JUMPDEST PUSH1 0x0 PUSH1 0x20 DUP3 ADD SWAP1 POP DUP2 DUP2 SUB PUSH1 0x0 DUP4 ADD MSTORE PUSH2 0x157D DUP2 PUSH2 0x1541 JUMP JUMPDEST SWAP1 POP SWAP2 SWAP1 POP JUMP JUMPDEST PUSH32 0x4E487B7100000000000000000000000000000000000000000000000000000000 PUSH1 0x0 MSTORE PUSH1 0x11 PUSH1 0x4 MSTORE PUSH1 0x24 PUSH1 0x0 REVERT JUMPDEST PUSH1 0x0 PUSH2 0x15BE DUP3 PUSH2 0x10C0 JUMP JUMPDEST SWAP2 POP PUSH2 0x15C9 DUP4 PUSH2 0x10C0 JUMP JUMPDEST SWAP3 POP DUP3 DUP3 ADD SWAP1 POP DUP1 DUP3 GT ISZERO PUSH2 0x15E1 JUMPI PUSH2 0x15E0 PUSH2 0x1584 JUMP JUMPDEST JUMPDEST SWAP3 SWAP2 POP POP JUMP JUMPDEST PUSH32 0x4E487B7100000000000000000000000000000000000000000000000000000000 PUSH1 0x0 MSTORE PUSH1 0x22 PUSH1 0x4 MSTORE PUSH1 0x24 PUSH1 0x0 REVERT JUMPDEST PUSH1 0x0 PUSH1 0x2 DUP3 DIV SWAP1 POP PUSH1 0x1 DUP3 AND DUP1 PUSH2 0x162E JUMPI PUSH1 0x7F DUP3 AND SWAP2 POP JUMPDEST PUSH1 0x20 DUP3 LT DUP2 SUB PUSH2 0x1641 JUMPI PUSH2 0x1640 PUSH2 0x15E7 JUMP JUMPDEST JUMPDEST POP SWAP2 SWAP1 POP JUMP JUMPDEST PUSH32 0x506C61796572206973206E6F7420726567697374657265640000000000000000 PUSH1 0x0 DUP3 ADD MSTORE POP JUMP JUMPDEST PUSH1 0x0 PUSH2 0x167D PUSH1 0x18 DUP4 PUSH2 0x1363 JUMP JUMPDEST SWAP2 POP PUSH2 0x1688 DUP3 PUSH2 0x1647 JUMP JUMPDEST PUSH1 0x20 DUP3 ADD SWAP1 POP SWAP2 SWAP1 POP JUMP JUMPDEST PUSH1 0x0 PUSH1 0x20 DUP3 ADD SWAP1 POP DUP2 DUP2 SUB PUSH1 0x0 DUP4 ADD MSTORE PUSH2 0x16AC DUP2 PUSH2 0x1670 JUMP JUMPDEST SWAP1 POP SWAP2 SWAP1 POP JUMP JUMPDEST PUSH32 0x4D6F76652068617320616C7265616479206265656E2072657665616C65640000 PUSH1 0x0 DUP3 ADD MSTORE POP JUMP JUMPDEST PUSH1 0x0 PUSH2 0x16E9 PUSH1 0x1E DUP4 PUSH2 0x1363 JUMP JUMPDEST SWAP2 POP PUSH2 0x16F4 DUP3 PUSH2 0x16B3 JUMP JUMPDEST PUSH1 0x20 DUP3 ADD SWAP1 POP SWAP2 SWAP1 POP JUMP JUMPDEST PUSH1 0x0 PUSH1 0x20 DUP3 ADD SWAP1 POP DUP2 DUP2 SUB PUSH1 0x0 DUP4 ADD MSTORE PUSH2 0x1718 DUP2 PUSH2 0x16DC JUMP JUMPDEST SWAP1 POP SWAP2 SWAP1 POP JUMP JUMPDEST PUSH1 0x0 DUP2 SWAP1 POP SWAP3 SWAP2 POP POP JUMP JUMPDEST PUSH1 0x0 PUSH2 0x1735 DUP3 PUSH2 0x1358 JUMP JUMPDEST PUSH2 0x173F DUP2 DUP6 PUSH2 0x171F JUMP JUMPDEST SWAP4 POP PUSH2 0x174F DUP2 DUP6 PUSH1 0x20 DUP7 ADD PUSH2 0x1374 JUMP JUMPDEST DUP1 DUP5 ADD SWAP2 POP POP SWAP3 SWAP2 POP POP JUMP JUMPDEST PUSH1 0x0 PUSH2 0x1767 DUP3 DUP5 PUSH2 0x172A JUMP JUMPDEST SWAP2 POP DUP2 SWAP1 POP SWAP3 SWAP2 POP POP JUMP JUMPDEST PUSH32 0x496E76616C6964206D6F7665206F722070617373776F72640000000000000000 PUSH1 0x0 DUP3 ADD MSTORE POP JUMP JUMPDEST PUSH1 0x0 PUSH2 0x17A8 PUSH1 0x18 DUP4 PUSH2 0x1363 JUMP JUMPDEST SWAP2 POP PUSH2 0x17B3 DUP3 PUSH2 0x1772 JUMP JUMPDEST PUSH1 0x20 DUP3 ADD SWAP1 POP SWAP2 SWAP1 POP JUMP JUMPDEST PUSH1 0x0 PUSH1 0x20 DUP3 ADD SWAP1 POP DUP2 DUP2 SUB PUSH1 0x0 DUP4 ADD MSTORE PUSH2 0x17D7 DUP2 PUSH2 0x179B JUMP JUMPDEST SWAP1 POP SWAP2 SWAP1 POP JUMP JUMPDEST PUSH1 0x0 DUP2 SWAP1 POP DUP2 PUSH1 0x0 MSTORE PUSH1 0x20 PUSH1 0x0 KECCAK256 SWAP1 POP SWAP2 SWAP1 POP JUMP JUMPDEST PUSH1 0x0 PUSH1 0x20 PUSH1 0x1F DUP4 ADD DIV SWAP1 POP SWAP2 SWAP1 POP JUMP JUMPDEST PUSH1 0x0 DUP3 DUP3 SHL SWAP1 POP SWAP3 SWAP2 POP POP JUMP JUMPDEST PUSH1 0x0 PUSH1 0x8 DUP4 MUL PUSH2 0x1840 PUSH32 0xFFFFFFFFFFFFFFFFFFFFFFFFFFFFFFFFFFFFFFFFFFFFFFFFFFFFFFFFFFFFFFFF DUP3 PUSH2 0x1803 JUMP JUMPDEST PUSH2 0x184A DUP7 DUP4 PUSH2 0x1803 JUMP JUMPDEST SWAP6 POP DUP1 NOT DUP5 AND SWAP4 POP DUP1 DUP7 AND DUP5 OR SWAP3 POP POP POP SWAP4 SWAP3 POP POP POP JUMP JUMPDEST PUSH1 0x0 DUP2 SWAP1 POP SWAP2 SWAP1 POP JUMP JUMPDEST PUSH1 0x0 PUSH2 0x1887 PUSH2 0x1882 PUSH2 0x187D DUP5 PUSH2 0x10C0 JUMP JUMPDEST PUSH2 0x1862 JUMP JUMPDEST PUSH2 0x10C0 JUMP JUMPDEST SWAP1 POP SWAP2 SWAP1 POP JUMP JUMPDEST PUSH1 0x0 DUP2 SWAP1 POP SWAP2 SWAP1 POP JUMP JUMPDEST PUSH2 0x18A1 DUP4 PUSH2 0x186C JUMP JUMPDEST PUSH2 0x18B5 PUSH2 0x18AD DUP3 PUSH2 0x188E JUMP JUMPDEST DUP5 DUP5 SLOAD PUSH2 0x1810 JUMP JUMPDEST DUP3 SSTORE POP POP POP POP JUMP JUMPDEST PUSH1 0x0 SWAP1 JUMP JUMPDEST PUSH2 0x18CA PUSH2 0x18BD JUMP JUMPDEST PUSH2 0x18D5 DUP2 DUP5 DUP5 PUSH2 0x1898 JUMP JUMPDEST POP POP POP JUMP JUMPDEST JUMPDEST DUP2 DUP2 LT ISZERO PUSH2 0x18F9 JUMPI PUSH2 0x18EE PUSH1 0x0 DUP3 PUSH2 0x18C2 JUMP JUMPDEST PUSH1 0x1 DUP2 ADD SWAP1 POP PUSH2 0x18DB JUMP JUMPDEST POP POP JUMP JUMPDEST PUSH1 0x1F DUP3 GT ISZERO PUSH2 0x193E JUMPI PUSH2 0x190F DUP2 PUSH2 0x17DE JUMP JUMPDEST PUSH2 0x1918 DUP5 PUSH2 0x17F3 JUMP JUMPDEST DUP2 ADD PUSH1 0x20 DUP6 LT ISZERO PUSH2 0x1927 JUMPI DUP2 SWAP1 POP JUMPDEST PUSH2 0x193B PUSH2 0x1933 DUP6 PUSH2 0x17F3 JUMP JUMPDEST DUP4 ADD DUP3 PUSH2 0x18DA JUMP JUMPDEST POP POP JUMPDEST POP POP POP JUMP JUMPDEST PUSH1 0x0 DUP3 DUP3 SHR SWAP1 POP SWAP3 SWAP2 POP POP JUMP JUMPDEST PUSH1 0x0 PUSH2 0x1961 PUSH1 0x0 NOT DUP5 PUSH1 0x8 MUL PUSH2 0x1943 JUMP JUMPDEST NOT DUP1 DUP4 AND SWAP2 POP POP SWAP3 SWAP2 POP POP JUMP JUMPDEST PUSH1 0x0 PUSH2 0x197A DUP4 DUP4 PUSH2 0x1950 JUMP JUMPDEST SWAP2 POP DUP3 PUSH1 0x2 MUL DUP3 OR SWAP1 POP SWAP3 SWAP2 POP POP JUMP JUMPDEST PUSH2 0x1993 DUP3 PUSH2 0x1358 JUMP JUMPDEST PUSH8 0xFFFFFFFFFFFFFFFF DUP2 GT ISZERO PUSH2 0x19AC JUMPI PUSH2 0x19AB PUSH2 0x11B5 JUMP JUMPDEST JUMPDEST PUSH2 0x19B6 DUP3 SLOAD PUSH2 0x1616 JUMP JUMPDEST PUSH2 0x19C1 DUP3 DUP3 DUP6 PUSH2 0x18FD JUMP JUMPDEST PUSH1 0x0 PUSH1 0x20 SWAP1 POP PUSH1 0x1F DUP4 GT PUSH1 0x1 DUP2 EQ PUSH2 0x19F4 JUMPI PUSH1 0x0 DUP5 ISZERO PUSH2 0x19E2 JUMPI DUP3 DUP8 ADD MLOAD SWAP1 POP JUMPDEST PUSH2 0x19EC DUP6 DUP3 PUSH2 0x196E JUMP JUMPDEST DUP7 SSTORE POP PUSH2 0x1A54 JUMP JUMPDEST PUSH1 0x1F NOT DUP5 AND PUSH2 0x1A02 DUP7 PUSH2 0x17DE JUMP JUMPDEST PUSH1 0x0 JUMPDEST DUP3 DUP2 LT ISZERO PUSH2 0x1A2A JUMPI DUP5 DUP10 ADD MLOAD DUP3 SSTORE PUSH1 0x1 DUP3 ADD SWAP2 POP PUSH1 0x20 DUP6 ADD SWAP5 POP PUSH1 0x20 DUP2 ADD SWAP1 POP PUSH2 0x1A05 JUMP JUMPDEST DUP7 DUP4 LT ISZERO PUSH2 0x1A47 JUMPI DUP5 DUP10 ADD MLOAD PUSH2 0x1A43 PUSH1 0x1F DUP10 AND DUP3 PUSH2 0x1950 JUMP JUMPDEST DUP4 SSTORE POP JUMPDEST PUSH1 0x1 PUSH1 0x2 DUP9 MUL ADD DUP9 SSTORE POP POP POP JUMPDEST POP POP POP POP POP POP JUMP JUMPDEST PUSH32 0x426F746820706C6179657273206861766520616C7265616479207375626D6974 PUSH1 0x0 DUP3 ADD MSTORE PUSH32 0x746564207468656972206D6F7665730000000000000000000000000000000000 PUSH1 0x20 DUP3 ADD MSTORE POP JUMP JUMPDEST PUSH1 0x0 PUSH2 0x1AB8 PUSH1 0x2F DUP4 PUSH2 0x1363 JUMP JUMPDEST SWAP2 POP PUSH2 0x1AC3 DUP3 PUSH2 0x1A5C JUMP JUMPDEST PUSH1 0x40 DUP3 ADD SWAP1 POP SWAP2 SWAP1 POP JUMP JUMPDEST PUSH1 0x0 PUSH1 0x20 DUP3 ADD SWAP1 POP DUP2 DUP2 SUB PUSH1 0x0 DUP4 ADD MSTORE PUSH2 0x1AE7 DUP2 PUSH2 0x1AAB JUMP JUMPDEST SWAP1 POP SWAP2 SWAP1 POP JUMP JUMPDEST PUSH1 0x0 DUP2 PUSH1 0x60 SHL SWAP1 POP SWAP2 SWAP1 POP JUMP JUMPDEST PUSH1 0x0 PUSH2 0x1B06 DUP3 PUSH2 0x1AEE JUMP JUMPDEST SWAP1 POP SWAP2 SWAP1 POP JUMP JUMPDEST PUSH1 0x0 PUSH2 0x1B18 DUP3 PUSH2 0x1AFB JUMP JUMPDEST SWAP1 POP SWAP2 SWAP1 POP JUMP JUMPDEST PUSH2 0x1B30 PUSH2 0x1B2B DUP3 PUSH2 0x114A JUMP JUMPDEST PUSH2 0x1B0D JUMP JUMPDEST DUP3 MSTORE POP POP JUMP JUMPDEST PUSH1 0x0 PUSH2 0x1B42 DUP3 DUP6 PUSH2 0x1B1F JUMP JUMPDEST PUSH1 0x14 DUP3 ADD SWAP2 POP PUSH2 0x1B52 DUP3 DUP5 PUSH2 0x172A JUMP JUMPDEST SWAP2 POP DUP2 SWAP1 POP SWAP4 SWAP3 POP POP POP JUMP JUMPDEST PUSH32 0x426F746820706C61796572732068617665206E6F742072657665616C65642074 PUSH1 0x0 DUP3 ADD MSTORE PUSH32 0x68656972206D6F76657320796574000000000000000000000000000000000000 PUSH1 0x20 DUP3 ADD MSTORE POP JUMP JUMPDEST PUSH1 0x0 PUSH2 0x1BBA PUSH1 0x2E DUP4 PUSH2 0x1363 JUMP JUMPDEST SWAP2 POP PUSH2 0x1BC5 DUP3 PUSH2 0x1B5E JUMP JUMPDEST PUSH1 0x40 DUP3 ADD SWAP1 POP SWAP2 SWAP1 POP JUMP JUMPDEST PUSH1 0x0 PUSH1 0x20 DUP3 ADD SWAP1 POP DUP2 DUP2 SUB PUSH1 0x0 DUP4 ADD MSTORE PUSH2 0x1BE9 DUP2 PUSH2 0x1BAD JUMP JUMPDEST SWAP1 POP SWAP2 SWAP1 POP JUMP INVALID LOG2 PUSH5 0x6970667358 0x22 SLT KECCAK256 BYTE 0xC9 GAS KECCAK256 PUSH9 0x60E0CE3D8DB534B284 BASEFEE DUP2 0xE3 0xB3 ORIGIN SUB 0x2D PREVRANDAO DUP7 0xBC 0xF SWAP4 0xB1 SWAP3 DUP5 0xA7 PUSH15 0x3164736F6C63430008120033000000 "
				},
				"gasEstimates": {
					"creation": {
						"codeDepositCost": "1441200",
						"executionCost": "25772",
						"totalCost": "1466972"
					},
					"external": {
						"MIN_BET()": "396",
						"REVEAL_TIMEOUT()": "375",
						"betAmount()": "2473",
						"bothPlayed()": "4790",
						"bothRevealed()": "infinite",
						"clearMove1()": "infinite",
						"clearMove2()": "infinite",
						"contractBalance()": "2452",
						"encryptedMove1()": "2518",
						"encryptedMove2()": "2496",
						"getContractBalance()": "428",
						"play(bytes32)": "33331",
						"player1()": "2577",
						"player2()": "2537",
						"register()": "infinite",
						"reveal(string,string)": "infinite",
						"revealTimeLeft()": "427",
						"whoAmI()": "4776"
					},
					"internal": {
						"determineWinner()": "infinite",
						"getPlayerEncryptedMove(address,string memory)": "infinite",
						"isPlayer1Winner()": "15",
						"isPlayer2Winner()": "15",
						"resetGame()": "infinite"
					}
				},
				"methodIdentifiers": {
					"MIN_BET()": "6540742f",
					"REVEAL_TIMEOUT()": "3d6ae3a7",
					"betAmount()": "d24257c0",
					"bothPlayed()": "807c8504",
					"bothRevealed()": "43445ca8",
					"clearMove1()": "e0942eee",
					"clearMove2()": "ac8f5c1a",
					"contractBalance()": "8b7afe2e",
					"encryptedMove1()": "bffa480d",
					"encryptedMove2()": "b71e7307",
					"getContractBalance()": "6f9fb98a",
					"play(bytes32)": "c7a1865b",
					"player1()": "d30895e4",
					"player2()": "59a5f12d",
					"register()": "1aa3a008",
					"reveal(string,string)": "5ba1b2c7",
					"revealTimeLeft()": "51dcb1c3",
					"whoAmI()": "da91254c"
				}
			},
			"storageLayout": {
				"storage": [
					{
						"astId": 9,
						"contract": "Demo.sol:RockPaperScissors",
						"label": "player1",
						"offset": 0,
						"slot": "0",
						"type": "t_address"
					},
					{
						"astId": 11,
						"contract": "Demo.sol:RockPaperScissors",
						"label": "player2",
						"offset": 0,
						"slot": "1",
						"type": "t_address"
					},
					{
						"astId": 13,
						"contract": "Demo.sol:RockPaperScissors",
						"label": "encryptedMove1",
						"offset": 0,
						"slot": "2",
						"type": "t_bytes32"
					},
					{
						"astId": 15,
						"contract": "Demo.sol:RockPaperScissors",
						"label": "encryptedMove2",
						"offset": 0,
						"slot": "3",
						"type": "t_bytes32"
					},
					{
						"astId": 17,
						"contract": "Demo.sol:RockPaperScissors",
						"label": "clearMove1",
						"offset": 0,
						"slot": "4",
						"type": "t_string_storage"
					},
					{
						"astId": 19,
						"contract": "Demo.sol:RockPaperScissors",
						"label": "clearMove2",
						"offset": 0,
						"slot": "5",
						"type": "t_string_storage"
					},
					{
						"astId": 21,
						"contract": "Demo.sol:RockPaperScissors",
						"label": "betAmount",
						"offset": 0,
						"slot": "6",
						"type": "t_uint256"
					},
					{
						"astId": 23,
						"contract": "Demo.sol:RockPaperScissors",
						"label": "contractBalance",
						"offset": 0,
						"slot": "7",
						"type": "t_uint256"
					}
				],
				"types": {
					"t_address": {
						"encoding": "inplace",
						"label": "address",
						"numberOfBytes": "20"
					},
					"t_bytes32": {
						"encoding": "inplace",
						"label": "bytes32",
						"numberOfBytes": "32"
					},
					"t_string_storage": {
						"encoding": "bytes",
						"label": "string",
						"numberOfBytes": "32"
					},
					"t_uint256": {
						"encoding": "inplace",
						"label": "uint256",
						"numberOfBytes": "32"
					}
				}
			},
			"userdoc": {
				"kind": "user",
				"methods": {},
				"version": 1
			}
		}
	}
}