{
	"lab2.sol": {
		"RockPaperScissors": {
			"abi": [
				{
					"anonymous": false,
					"inputs": [
						{
							"indexed": false,
							"internalType": "address",
							"name": "player1",
							"type": "address"
						},
						{
							"indexed": false,
							"internalType": "enum RockPaperScissors.Move",
							"name": "move1",
							"type": "uint8"
						},
						{
							"indexed": false,
							"internalType": "address",
							"name": "player2",
							"type": "address"
						},
						{
							"indexed": false,
							"internalType": "enum RockPaperScissors.Move",
							"name": "move2",
							"type": "uint8"
						},
						{
							"indexed": false,
							"internalType": "address",
							"name": "winner",
							"type": "address"
						}
					],
					"name": "GameResult",
					"type": "event"
				},
				{
					"inputs": [],
					"name": "joinGame",
					"outputs": [],
					"stateMutability": "nonpayable",
					"type": "function"
				},
				{
					"inputs": [
						{
							"internalType": "enum RockPaperScissors.Move",
							"name": "move",
							"type": "uint8"
						}
					],
					"name": "makeMove",
					"outputs": [],
					"stateMutability": "nonpayable",
					"type": "function"
				},
				{
					"inputs": [
						{
							"internalType": "address",
							"name": "",
							"type": "address"
						}
					],
					"name": "moves",
					"outputs": [
						{
							"internalType": "enum RockPaperScissors.Move",
							"name": "",
							"type": "uint8"
						}
					],
					"stateMutability": "view",
					"type": "function"
				},
				{
					"inputs": [],
					"name": "player1",
					"outputs": [
						{
							"internalType": "address",
							"name": "",
							"type": "address"
						}
					],
					"stateMutability": "view",
					"type": "function"
				},
				{
					"inputs": [],
					"name": "player2",
					"outputs": [
						{
							"internalType": "address",
							"name": "",
							"type": "address"
						}
					],
					"stateMutability": "view",
					"type": "function"
				},
				{
					"inputs": [],
					"name": "winner",
					"outputs": [
						{
							"internalType": "address",
							"name": "",
							"type": "address"
						}
					],
					"stateMutability": "view",
					"type": "function"
				}
			],
			"devdoc": {
				"kind": "dev",
				"methods": {},
				"version": 1
			},
			"evm": {
				"assembly": "    /* \"lab2.sol\":60:1818  contract RockPaperScissors {... */\n  mstore(0x40, 0x80)\n  callvalue\n  dup1\n  iszero\n  tag_1\n  jumpi\n  0x00\n  dup1\n  revert\ntag_1:\n  pop\n  dataSize(sub_0)\n  dup1\n  dataOffset(sub_0)\n  0x00\n  codecopy\n  0x00\n  return\nstop\n\nsub_0: assembly {\n        /* \"lab2.sol\":60:1818  contract RockPaperScissors {... */\n      mstore(0x40, 0x80)\n      callvalue\n      dup1\n      iszero\n      tag_1\n      jumpi\n      0x00\n      dup1\n      revert\n    tag_1:\n      pop\n      jumpi(tag_2, lt(calldatasize, 0x04))\n      shr(0xe0, calldataload(0x00))\n      dup1\n      0x59a5f12d\n      eq\n      tag_3\n      jumpi\n      dup1\n      0x650271d2\n      eq\n      tag_4\n      jumpi\n      dup1\n      0xd30895e4\n      eq\n      tag_5\n      jumpi\n      dup1\n      0xd4f77b1c\n      eq\n      tag_6\n      jumpi\n      dup1\n      0xdfbf53ae\n      eq\n      tag_7\n      jumpi\n      dup1\n      0xe15a808b\n      eq\n      tag_8\n      jumpi\n    tag_2:\n      0x00\n      dup1\n      revert\n        /* \"lab2.sol\":123:145  address public player2 */\n    tag_3:\n      tag_9\n      tag_10\n      jump\t// in\n    tag_9:\n      mload(0x40)\n      tag_11\n      swap2\n      swap1\n      tag_12\n      jump\t// in\n    tag_11:\n      mload(0x40)\n      dup1\n      swap2\n      sub\n      swap1\n      return\n        /* \"lab2.sol\":869:1078  function makeMove(Move move) public onlyPlayers {... */\n    tag_4:\n      tag_13\n      0x04\n      dup1\n      calldatasize\n      sub\n      dup2\n      add\n      swap1\n      tag_14\n      swap2\n      swap1\n      tag_15\n      jump\t// in\n    tag_14:\n      tag_16\n      jump\t// in\n    tag_13:\n      stop\n        /* \"lab2.sol\":94:116  address public player1 */\n    tag_5:\n      tag_17\n      tag_18\n      jump\t// in\n    tag_17:\n      mload(0x40)\n      tag_19\n      swap2\n      swap1\n      tag_12\n      jump\t// in\n    tag_19:\n      mload(0x40)\n      dup1\n      swap2\n      sub\n      swap1\n      return\n        /* \"lab2.sol\":530:861  function joinGame() public {... */\n    tag_6:\n      tag_20\n      tag_21\n      jump\t// in\n    tag_20:\n      stop\n        /* \"lab2.sol\":152:173  address public winner */\n    tag_7:\n      tag_22\n      tag_23\n      jump\t// in\n    tag_22:\n      mload(0x40)\n      tag_24\n      swap2\n      swap1\n      tag_12\n      jump\t// in\n    tag_24:\n      mload(0x40)\n      dup1\n      swap2\n      sub\n      swap1\n      return\n        /* \"lab2.sol\":229:266  mapping(address => Move) public moves */\n    tag_8:\n      tag_25\n      0x04\n      dup1\n      calldatasize\n      sub\n      dup2\n      add\n      swap1\n      tag_26\n      swap2\n      swap1\n      tag_27\n      jump\t// in\n    tag_26:\n      tag_28\n      jump\t// in\n    tag_25:\n      mload(0x40)\n      tag_29\n      swap2\n      swap1\n      tag_30\n      jump\t// in\n    tag_29:\n      mload(0x40)\n      dup1\n      swap2\n      sub\n      swap1\n      return\n        /* \"lab2.sol\":123:145  address public player2 */\n    tag_10:\n      0x01\n      0x00\n      swap1\n      sload\n      swap1\n      0x0100\n      exp\n      swap1\n      div\n      0xffffffffffffffffffffffffffffffffffffffff\n      and\n      dup2\n      jump\t// out\n        /* \"lab2.sol\":869:1078  function makeMove(Move move) public onlyPlayers {... */\n    tag_16:\n        /* \"lab2.sol\":430:437  player1 */\n      0x00\n      dup1\n      sload\n      swap1\n      0x0100\n      exp\n      swap1\n      div\n      0xffffffffffffffffffffffffffffffffffffffff\n      and\n        /* \"lab2.sol\":416:437  msg.sender == player1 */\n      0xffffffffffffffffffffffffffffffffffffffff\n      and\n        /* \"lab2.sol\":416:426  msg.sender */\n      caller\n        /* \"lab2.sol\":416:437  msg.sender == player1 */\n      0xffffffffffffffffffffffffffffffffffffffff\n      and\n      eq\n        /* \"lab2.sol\":416:462  msg.sender == player1 || msg.sender == player2 */\n      dup1\n      tag_32\n      jumpi\n      pop\n        /* \"lab2.sol\":455:462  player2 */\n      0x01\n      0x00\n      swap1\n      sload\n      swap1\n      0x0100\n      exp\n      swap1\n      div\n      0xffffffffffffffffffffffffffffffffffffffff\n      and\n        /* \"lab2.sol\":441:462  msg.sender == player2 */\n      0xffffffffffffffffffffffffffffffffffffffff\n      and\n        /* \"lab2.sol\":441:451  msg.sender */\n      caller\n        /* \"lab2.sol\":441:462  msg.sender == player2 */\n      0xffffffffffffffffffffffffffffffffffffffff\n      and\n      eq\n        /* \"lab2.sol\":416:462  msg.sender == player1 || msg.sender == player2 */\n    tag_32:\n        /* \"lab2.sol\":408:502  require(msg.sender == player1 || msg.sender == player2, \"Only players can call this function\") */\n      tag_33\n      jumpi\n      mload(0x40)\n      0x08c379a000000000000000000000000000000000000000000000000000000000\n      dup2\n      mstore\n      0x04\n      add\n      tag_34\n      swap1\n      tag_35\n      jump\t// in\n    tag_34:\n      mload(0x40)\n      dup1\n      swap2\n      sub\n      swap1\n      revert\n    tag_33:\n        /* \"lab2.sol\":948:952  move */\n      dup1\n        /* \"lab2.sol\":928:933  moves */\n      0x03\n        /* \"lab2.sol\":928:945  moves[msg.sender] */\n      0x00\n        /* \"lab2.sol\":934:944  msg.sender */\n      caller\n        /* \"lab2.sol\":928:945  moves[msg.sender] */\n      0xffffffffffffffffffffffffffffffffffffffff\n      and\n      0xffffffffffffffffffffffffffffffffffffffff\n      and\n      dup2\n      mstore\n      0x20\n      add\n      swap1\n      dup2\n      mstore\n      0x20\n      add\n      0x00\n      keccak256\n      0x00\n        /* \"lab2.sol\":928:952  moves[msg.sender] = move */\n      0x0100\n      exp\n      dup2\n      sload\n      dup2\n      0xff\n      mul\n      not\n      and\n      swap1\n      dup4\n      0x03\n      dup2\n      gt\n      iszero\n      tag_37\n      jumpi\n      tag_38\n      tag_39\n      jump\t// in\n    tag_38:\n    tag_37:\n      mul\n      or\n      swap1\n      sstore\n      pop\n        /* \"lab2.sol\":985:994  Move.None */\n      0x00\n        /* \"lab2.sol\":967:994  moves[player1] != Move.None */\n      0x03\n      dup2\n      gt\n      iszero\n      tag_40\n      jumpi\n      tag_41\n      tag_39\n      jump\t// in\n    tag_41:\n    tag_40:\n        /* \"lab2.sol\":967:972  moves */\n      0x03\n        /* \"lab2.sol\":967:981  moves[player1] */\n      0x00\n        /* \"lab2.sol\":973:980  player1 */\n      dup1\n      0x00\n      swap1\n      sload\n      swap1\n      0x0100\n      exp\n      swap1\n      div\n      0xffffffffffffffffffffffffffffffffffffffff\n      and\n        /* \"lab2.sol\":967:981  moves[player1] */\n      0xffffffffffffffffffffffffffffffffffffffff\n      and\n      0xffffffffffffffffffffffffffffffffffffffff\n      and\n      dup2\n      mstore\n      0x20\n      add\n      swap1\n      dup2\n      mstore\n      0x20\n      add\n      0x00\n      keccak256\n      0x00\n      swap1\n      sload\n      swap1\n      0x0100\n      exp\n      swap1\n      div\n      0xff\n      and\n        /* \"lab2.sol\":967:994  moves[player1] != Move.None */\n      0x03\n      dup2\n      gt\n      iszero\n      tag_42\n      jumpi\n      tag_43\n      tag_39\n      jump\t// in\n    tag_43:\n    tag_42:\n      eq\n      iszero\n        /* \"lab2.sol\":967:1025  moves[player1] != Move.None && moves[player2] != Move.None */\n      dup1\n      iszero\n      tag_44\n      jumpi\n      pop\n        /* \"lab2.sol\":1016:1025  Move.None */\n      0x00\n        /* \"lab2.sol\":998:1025  moves[player2] != Move.None */\n      0x03\n      dup2\n      gt\n      iszero\n      tag_45\n      jumpi\n      tag_46\n      tag_39\n      jump\t// in\n    tag_46:\n    tag_45:\n        /* \"lab2.sol\":998:1003  moves */\n      0x03\n        /* \"lab2.sol\":998:1012  moves[player2] */\n      0x00\n        /* \"lab2.sol\":1004:1011  player2 */\n      0x01\n      0x00\n      swap1\n      sload\n      swap1\n      0x0100\n      exp\n      swap1\n      div\n      0xffffffffffffffffffffffffffffffffffffffff\n      and\n        /* \"lab2.sol\":998:1012  moves[player2] */\n      0xffffffffffffffffffffffffffffffffffffffff\n      and\n      0xffffffffffffffffffffffffffffffffffffffff\n      and\n      dup2\n      mstore\n      0x20\n      add\n      swap1\n      dup2\n      mstore\n      0x20\n      add\n      0x00\n      keccak256\n      0x00\n      swap1\n      sload\n      swap1\n      0x0100\n      exp\n      swap1\n      div\n      0xff\n      and\n        /* \"lab2.sol\":998:1025  moves[player2] != Move.None */\n      0x03\n      dup2\n      gt\n      iszero\n      tag_47\n      jumpi\n      tag_48\n      tag_39\n      jump\t// in\n    tag_48:\n    tag_47:\n      eq\n      iszero\n        /* \"lab2.sol\":967:1025  moves[player1] != Move.None && moves[player2] != Move.None */\n    tag_44:\n        /* \"lab2.sol\":963:1071  if (moves[player1] != Move.None && moves[player2] != Move.None) {... */\n      iszero\n      tag_49\n      jumpi\n        /* \"lab2.sol\":1042:1059  determineWinner() */\n      tag_50\n        /* \"lab2.sol\":1042:1057  determineWinner */\n      tag_51\n        /* \"lab2.sol\":1042:1059  determineWinner() */\n      jump\t// in\n    tag_50:\n        /* \"lab2.sol\":963:1071  if (moves[player1] != Move.None && moves[player2] != Move.None) {... */\n    tag_49:\n        /* \"lab2.sol\":869:1078  function makeMove(Move move) public onlyPlayers {... */\n      pop\n      jump\t// out\n        /* \"lab2.sol\":94:116  address public player1 */\n    tag_18:\n      0x00\n      dup1\n      sload\n      swap1\n      0x0100\n      exp\n      swap1\n      div\n      0xffffffffffffffffffffffffffffffffffffffff\n      and\n      dup2\n      jump\t// out\n        /* \"lab2.sol\":530:861  function joinGame() public {... */\n    tag_21:\n        /* \"lab2.sol\":595:596  0 */\n      0x00\n        /* \"lab2.sol\":576:597  player1 == address(0) */\n      0xffffffffffffffffffffffffffffffffffffffff\n      and\n        /* \"lab2.sol\":576:583  player1 */\n      0x00\n      dup1\n      sload\n      swap1\n      0x0100\n      exp\n      swap1\n      div\n      0xffffffffffffffffffffffffffffffffffffffff\n      and\n        /* \"lab2.sol\":576:597  player1 == address(0) */\n      0xffffffffffffffffffffffffffffffffffffffff\n      and\n      eq\n        /* \"lab2.sol\":576:622  player1 == address(0) || player2 == address(0) */\n      dup1\n      tag_53\n      jumpi\n      pop\n        /* \"lab2.sol\":620:621  0 */\n      0x00\n        /* \"lab2.sol\":601:622  player2 == address(0) */\n      0xffffffffffffffffffffffffffffffffffffffff\n      and\n        /* \"lab2.sol\":601:608  player2 */\n      0x01\n      0x00\n      swap1\n      sload\n      swap1\n      0x0100\n      exp\n      swap1\n      div\n      0xffffffffffffffffffffffffffffffffffffffff\n      and\n        /* \"lab2.sol\":601:622  player2 == address(0) */\n      0xffffffffffffffffffffffffffffffffffffffff\n      and\n      eq\n        /* \"lab2.sol\":576:622  player1 == address(0) || player2 == address(0) */\n    tag_53:\n        /* \"lab2.sol\":568:639  require(player1 == address(0) || player2 == address(0), \"Game is full\") */\n      tag_54\n      jumpi\n      mload(0x40)\n      0x08c379a000000000000000000000000000000000000000000000000000000000\n      dup2\n      mstore\n      0x04\n      add\n      tag_55\n      swap1\n      tag_56\n      jump\t// in\n    tag_55:\n      mload(0x40)\n      dup1\n      swap2\n      sub\n      swap1\n      revert\n    tag_54:\n        /* \"lab2.sol\":672:679  player1 */\n      0x00\n      dup1\n      sload\n      swap1\n      0x0100\n      exp\n      swap1\n      div\n      0xffffffffffffffffffffffffffffffffffffffff\n      and\n        /* \"lab2.sol\":658:679  msg.sender != player1 */\n      0xffffffffffffffffffffffffffffffffffffffff\n      and\n        /* \"lab2.sol\":658:668  msg.sender */\n      caller\n        /* \"lab2.sol\":658:679  msg.sender != player1 */\n      0xffffffffffffffffffffffffffffffffffffffff\n      and\n      sub\n        /* \"lab2.sol\":650:716  require(msg.sender != player1, \"You cannot play against yourself\") */\n      tag_57\n      jumpi\n      mload(0x40)\n      0x08c379a000000000000000000000000000000000000000000000000000000000\n      dup2\n      mstore\n      0x04\n      add\n      tag_58\n      swap1\n      tag_59\n      jump\t// in\n    tag_58:\n      mload(0x40)\n      dup1\n      swap2\n      sub\n      swap1\n      revert\n    tag_57:\n        /* \"lab2.sol\":750:751  0 */\n      0x00\n        /* \"lab2.sol\":731:752  player1 == address(0) */\n      0xffffffffffffffffffffffffffffffffffffffff\n      and\n        /* \"lab2.sol\":731:738  player1 */\n      0x00\n      dup1\n      sload\n      swap1\n      0x0100\n      exp\n      swap1\n      div\n      0xffffffffffffffffffffffffffffffffffffffff\n      and\n        /* \"lab2.sol\":731:752  player1 == address(0) */\n      0xffffffffffffffffffffffffffffffffffffffff\n      and\n      sub\n        /* \"lab2.sol\":727:854  if (player1 == address(0)) {... */\n      tag_60\n      jumpi\n        /* \"lab2.sol\":779:789  msg.sender */\n      caller\n        /* \"lab2.sol\":769:776  player1 */\n      0x00\n      dup1\n        /* \"lab2.sol\":769:789  player1 = msg.sender */\n      0x0100\n      exp\n      dup2\n      sload\n      dup2\n      0xffffffffffffffffffffffffffffffffffffffff\n      mul\n      not\n      and\n      swap1\n      dup4\n      0xffffffffffffffffffffffffffffffffffffffff\n      and\n      mul\n      or\n      swap1\n      sstore\n      pop\n        /* \"lab2.sol\":727:854  if (player1 == address(0)) {... */\n      jump(tag_61)\n    tag_60:\n        /* \"lab2.sol\":832:842  msg.sender */\n      caller\n        /* \"lab2.sol\":822:829  player2 */\n      0x01\n      0x00\n        /* \"lab2.sol\":822:842  player2 = msg.sender */\n      0x0100\n      exp\n      dup2\n      sload\n      dup2\n      0xffffffffffffffffffffffffffffffffffffffff\n      mul\n      not\n      and\n      swap1\n      dup4\n      0xffffffffffffffffffffffffffffffffffffffff\n      and\n      mul\n      or\n      swap1\n      sstore\n      pop\n        /* \"lab2.sol\":727:854  if (player1 == address(0)) {... */\n    tag_61:\n        /* \"lab2.sol\":530:861  function joinGame() public {... */\n      jump\t// out\n        /* \"lab2.sol\":152:173  address public winner */\n    tag_23:\n      0x02\n      0x00\n      swap1\n      sload\n      swap1\n      0x0100\n      exp\n      swap1\n      div\n      0xffffffffffffffffffffffffffffffffffffffff\n      and\n      dup2\n      jump\t// out\n        /* \"lab2.sol\":229:266  mapping(address => Move) public moves */\n    tag_28:\n      mstore(0x20, 0x03)\n      dup1\n      0x00\n      mstore\n      keccak256(0x00, 0x40)\n      0x00\n      swap2\n      pop\n      sload\n      swap1\n      0x0100\n      exp\n      swap1\n      div\n      0xff\n      and\n      dup2\n      jump\t// out\n        /* \"lab2.sol\":1086:1815  function determineWinner() internal {... */\n    tag_51:\n        /* \"lab2.sol\":1133:1143  Move move1 */\n      0x00\n        /* \"lab2.sol\":1146:1151  moves */\n      0x03\n        /* \"lab2.sol\":1146:1160  moves[player1] */\n      0x00\n        /* \"lab2.sol\":1152:1159  player1 */\n      dup1\n      0x00\n      swap1\n      sload\n      swap1\n      0x0100\n      exp\n      swap1\n      div\n      0xffffffffffffffffffffffffffffffffffffffff\n      and\n        /* \"lab2.sol\":1146:1160  moves[player1] */\n      0xffffffffffffffffffffffffffffffffffffffff\n      and\n      0xffffffffffffffffffffffffffffffffffffffff\n      and\n      dup2\n      mstore\n      0x20\n      add\n      swap1\n      dup2\n      mstore\n      0x20\n      add\n      0x00\n      keccak256\n      0x00\n      swap1\n      sload\n      swap1\n      0x0100\n      exp\n      swap1\n      div\n      0xff\n      and\n        /* \"lab2.sol\":1133:1160  Move move1 = moves[player1] */\n      swap1\n      pop\n        /* \"lab2.sol\":1171:1181  Move move2 */\n      0x00\n        /* \"lab2.sol\":1184:1189  moves */\n      0x03\n        /* \"lab2.sol\":1184:1198  moves[player2] */\n      0x00\n        /* \"lab2.sol\":1190:1197  player2 */\n      0x01\n      0x00\n      swap1\n      sload\n      swap1\n      0x0100\n      exp\n      swap1\n      div\n      0xffffffffffffffffffffffffffffffffffffffff\n      and\n        /* \"lab2.sol\":1184:1198  moves[player2] */\n      0xffffffffffffffffffffffffffffffffffffffff\n      and\n      0xffffffffffffffffffffffffffffffffffffffff\n      and\n      dup2\n      mstore\n      0x20\n      add\n      swap1\n      dup2\n      mstore\n      0x20\n      add\n      0x00\n      keccak256\n      0x00\n      swap1\n      sload\n      swap1\n      0x0100\n      exp\n      swap1\n      div\n      0xff\n      and\n        /* \"lab2.sol\":1171:1198  Move move2 = moves[player2] */\n      swap1\n      pop\n        /* \"lab2.sol\":1222:1227  move2 */\n      dup1\n        /* \"lab2.sol\":1213:1227  move1 == move2 */\n      0x03\n      dup2\n      gt\n      iszero\n      tag_63\n      jumpi\n      tag_64\n      tag_39\n      jump\t// in\n    tag_64:\n    tag_63:\n        /* \"lab2.sol\":1213:1218  move1 */\n      dup3\n        /* \"lab2.sol\":1213:1227  move1 == move2 */\n      0x03\n      dup2\n      gt\n      iszero\n      tag_65\n      jumpi\n      tag_66\n      tag_39\n      jump\t// in\n    tag_66:\n    tag_65:\n      sub\n        /* \"lab2.sol\":1209:1579  if (move1 == move2) {... */\n      tag_67\n      jumpi\n        /* \"lab2.sol\":1261:1262  0 */\n      0x00\n        /* \"lab2.sol\":1244:1250  winner */\n      0x02\n      0x00\n        /* \"lab2.sol\":1244:1263  winner = address(0) */\n      0x0100\n      exp\n      dup2\n      sload\n      dup2\n      0xffffffffffffffffffffffffffffffffffffffff\n      mul\n      not\n      and\n      swap1\n      dup4\n      0xffffffffffffffffffffffffffffffffffffffff\n      and\n      mul\n      or\n      swap1\n      sstore\n      pop\n        /* \"lab2.sol\":1209:1579  if (move1 == move2) {... */\n      jump(tag_68)\n    tag_67:\n        /* \"lab2.sol\":1311:1320  Move.Rock */\n      0x01\n        /* \"lab2.sol\":1302:1320  move1 == Move.Rock */\n      0x03\n      dup2\n      gt\n      iszero\n      tag_69\n      jumpi\n      tag_70\n      tag_39\n      jump\t// in\n    tag_70:\n    tag_69:\n        /* \"lab2.sol\":1302:1307  move1 */\n      dup3\n        /* \"lab2.sol\":1302:1320  move1 == Move.Rock */\n      0x03\n      dup2\n      gt\n      iszero\n      tag_71\n      jumpi\n      tag_72\n      tag_39\n      jump\t// in\n    tag_72:\n    tag_71:\n      eq\n        /* \"lab2.sol\":1302:1346  move1 == Move.Rock && move2 == Move.Scissors */\n      dup1\n      iszero\n      tag_73\n      jumpi\n      pop\n        /* \"lab2.sol\":1333:1346  Move.Scissors */\n      0x03\n        /* \"lab2.sol\":1324:1346  move2 == Move.Scissors */\n      dup1\n      dup2\n      gt\n      iszero\n      tag_74\n      jumpi\n      tag_75\n      tag_39\n      jump\t// in\n    tag_75:\n    tag_74:\n        /* \"lab2.sol\":1324:1329  move2 */\n      dup2\n        /* \"lab2.sol\":1324:1346  move2 == Move.Scissors */\n      0x03\n      dup2\n      gt\n      iszero\n      tag_76\n      jumpi\n      tag_77\n      tag_39\n      jump\t// in\n    tag_77:\n    tag_76:\n      eq\n        /* \"lab2.sol\":1302:1346  move1 == Move.Rock && move2 == Move.Scissors */\n    tag_73:\n        /* \"lab2.sol\":1301:1414  (move1 == Move.Rock && move2 == Move.Scissors) ||... */\n      dup1\n      tag_78\n      jumpi\n      pop\n        /* \"lab2.sol\":1381:1391  Move.Paper */\n      0x02\n        /* \"lab2.sol\":1372:1391  move1 == Move.Paper */\n      0x03\n      dup2\n      gt\n      iszero\n      tag_79\n      jumpi\n      tag_80\n      tag_39\n      jump\t// in\n    tag_80:\n    tag_79:\n        /* \"lab2.sol\":1372:1377  move1 */\n      dup3\n        /* \"lab2.sol\":1372:1391  move1 == Move.Paper */\n      0x03\n      dup2\n      gt\n      iszero\n      tag_81\n      jumpi\n      tag_82\n      tag_39\n      jump\t// in\n    tag_82:\n    tag_81:\n      eq\n        /* \"lab2.sol\":1372:1413  move1 == Move.Paper && move2 == Move.Rock */\n      dup1\n      iszero\n      tag_83\n      jumpi\n      pop\n        /* \"lab2.sol\":1404:1413  Move.Rock */\n      0x01\n        /* \"lab2.sol\":1395:1413  move2 == Move.Rock */\n      0x03\n      dup2\n      gt\n      iszero\n      tag_84\n      jumpi\n      tag_85\n      tag_39\n      jump\t// in\n    tag_85:\n    tag_84:\n        /* \"lab2.sol\":1395:1400  move2 */\n      dup2\n        /* \"lab2.sol\":1395:1413  move2 == Move.Rock */\n      0x03\n      dup2\n      gt\n      iszero\n      tag_86\n      jumpi\n      tag_87\n      tag_39\n      jump\t// in\n    tag_87:\n    tag_86:\n      eq\n        /* \"lab2.sol\":1372:1413  move1 == Move.Paper && move2 == Move.Rock */\n    tag_83:\n        /* \"lab2.sol\":1301:1414  (move1 == Move.Rock && move2 == Move.Scissors) ||... */\n    tag_78:\n        /* \"lab2.sol\":1301:1485  (move1 == Move.Rock && move2 == Move.Scissors) ||... */\n      dup1\n      tag_88\n      jumpi\n      pop\n        /* \"lab2.sol\":1448:1461  Move.Scissors */\n      0x03\n        /* \"lab2.sol\":1439:1461  move1 == Move.Scissors */\n      dup1\n      dup2\n      gt\n      iszero\n      tag_89\n      jumpi\n      tag_90\n      tag_39\n      jump\t// in\n    tag_90:\n    tag_89:\n        /* \"lab2.sol\":1439:1444  move1 */\n      dup3\n        /* \"lab2.sol\":1439:1461  move1 == Move.Scissors */\n      0x03\n      dup2\n      gt\n      iszero\n      tag_91\n      jumpi\n      tag_92\n      tag_39\n      jump\t// in\n    tag_92:\n    tag_91:\n      eq\n        /* \"lab2.sol\":1439:1484  move1 == Move.Scissors && move2 == Move.Paper */\n      dup1\n      iszero\n      tag_93\n      jumpi\n      pop\n        /* \"lab2.sol\":1474:1484  Move.Paper */\n      0x02\n        /* \"lab2.sol\":1465:1484  move2 == Move.Paper */\n      0x03\n      dup2\n      gt\n      iszero\n      tag_94\n      jumpi\n      tag_95\n      tag_39\n      jump\t// in\n    tag_95:\n    tag_94:\n        /* \"lab2.sol\":1465:1470  move2 */\n      dup2\n        /* \"lab2.sol\":1465:1484  move2 == Move.Paper */\n      0x03\n      dup2\n      gt\n      iszero\n      tag_96\n      jumpi\n      tag_97\n      tag_39\n      jump\t// in\n    tag_97:\n    tag_96:\n      eq\n        /* \"lab2.sol\":1439:1484  move1 == Move.Scissors && move2 == Move.Paper */\n    tag_93:\n        /* \"lab2.sol\":1301:1485  (move1 == Move.Rock && move2 == Move.Scissors) ||... */\n    tag_88:\n        /* \"lab2.sol\":1297:1579  if ((move1 == Move.Rock && move2 == Move.Scissors) ||... */\n      iszero\n      tag_98\n      jumpi\n        /* \"lab2.sol\":1511:1518  player1 */\n      0x00\n      dup1\n      sload\n      swap1\n      0x0100\n      exp\n      swap1\n      div\n      0xffffffffffffffffffffffffffffffffffffffff\n      and\n        /* \"lab2.sol\":1502:1508  winner */\n      0x02\n      0x00\n        /* \"lab2.sol\":1502:1518  winner = player1 */\n      0x0100\n      exp\n      dup2\n      sload\n      dup2\n      0xffffffffffffffffffffffffffffffffffffffff\n      mul\n      not\n      and\n      swap1\n      dup4\n      0xffffffffffffffffffffffffffffffffffffffff\n      and\n      mul\n      or\n      swap1\n      sstore\n      pop\n        /* \"lab2.sol\":1297:1579  if ((move1 == Move.Rock && move2 == Move.Scissors) ||... */\n      jump(tag_99)\n    tag_98:\n        /* \"lab2.sol\":1560:1567  player2 */\n      0x01\n      0x00\n      swap1\n      sload\n      swap1\n      0x0100\n      exp\n      swap1\n      div\n      0xffffffffffffffffffffffffffffffffffffffff\n      and\n        /* \"lab2.sol\":1551:1557  winner */\n      0x02\n      0x00\n        /* \"lab2.sol\":1551:1567  winner = player2 */\n      0x0100\n      exp\n      dup2\n      sload\n      dup2\n      0xffffffffffffffffffffffffffffffffffffffff\n      mul\n      not\n      and\n      swap1\n      dup4\n      0xffffffffffffffffffffffffffffffffffffffff\n      and\n      mul\n      or\n      swap1\n      sstore\n      pop\n        /* \"lab2.sol\":1297:1579  if ((move1 == Move.Rock && move2 == Move.Scissors) ||... */\n    tag_99:\n        /* \"lab2.sol\":1209:1579  if (move1 == move2) {... */\n    tag_68:\n        /* \"lab2.sol\":1594:1644  GameResult(player1, move1, player2, move2, winner) */\n      0x28eb7e0257e83d257016f7b4cba578ced670303b214d7abd930dad6f3756f7bb\n        /* \"lab2.sol\":1605:1612  player1 */\n      0x00\n      dup1\n      sload\n      swap1\n      0x0100\n      exp\n      swap1\n      div\n      0xffffffffffffffffffffffffffffffffffffffff\n      and\n        /* \"lab2.sol\":1614:1619  move1 */\n      dup4\n        /* \"lab2.sol\":1621:1628  player2 */\n      0x01\n      0x00\n      swap1\n      sload\n      swap1\n      0x0100\n      exp\n      swap1\n      div\n      0xffffffffffffffffffffffffffffffffffffffff\n      and\n        /* \"lab2.sol\":1630:1635  move2 */\n      dup5\n        /* \"lab2.sol\":1637:1643  winner */\n      0x02\n      0x00\n      swap1\n      sload\n      swap1\n      0x0100\n      exp\n      swap1\n      div\n      0xffffffffffffffffffffffffffffffffffffffff\n      and\n        /* \"lab2.sol\":1594:1644  GameResult(player1, move1, player2, move2, winner) */\n      mload(0x40)\n      tag_100\n      swap6\n      swap5\n      swap4\n      swap3\n      swap2\n      swap1\n      tag_101\n      jump\t// in\n    tag_100:\n      mload(0x40)\n      dup1\n      swap2\n      sub\n      swap1\n      log1\n        /* \"lab2.sol\":1700:1701  0 */\n      0x00\n        /* \"lab2.sol\":1682:1689  player1 */\n      dup1\n      0x00\n        /* \"lab2.sol\":1682:1702  player1 = address(0) */\n      0x0100\n      exp\n      dup2\n      sload\n      dup2\n      0xffffffffffffffffffffffffffffffffffffffff\n      mul\n      not\n      and\n      swap1\n      dup4\n      0xffffffffffffffffffffffffffffffffffffffff\n      and\n      mul\n      or\n      swap1\n      sstore\n      pop\n        /* \"lab2.sol\":1731:1732  0 */\n      0x00\n        /* \"lab2.sol\":1713:1720  player2 */\n      0x01\n      0x00\n        /* \"lab2.sol\":1713:1733  player2 = address(0) */\n      0x0100\n      exp\n      dup2\n      sload\n      dup2\n      0xffffffffffffffffffffffffffffffffffffffff\n      mul\n      not\n      and\n      swap1\n      dup4\n      0xffffffffffffffffffffffffffffffffffffffff\n      and\n      mul\n      or\n      swap1\n      sstore\n      pop\n        /* \"lab2.sol\":1761:1770  Move.None */\n      0x00\n        /* \"lab2.sol\":1744:1749  moves */\n      0x03\n        /* \"lab2.sol\":1744:1758  moves[player1] */\n      0x00\n        /* \"lab2.sol\":1750:1757  player1 */\n      dup1\n      0x00\n      swap1\n      sload\n      swap1\n      0x0100\n      exp\n      swap1\n      div\n      0xffffffffffffffffffffffffffffffffffffffff\n      and\n        /* \"lab2.sol\":1744:1758  moves[player1] */\n      0xffffffffffffffffffffffffffffffffffffffff\n      and\n      0xffffffffffffffffffffffffffffffffffffffff\n      and\n      dup2\n      mstore\n      0x20\n      add\n      swap1\n      dup2\n      mstore\n      0x20\n      add\n      0x00\n      keccak256\n      0x00\n        /* \"lab2.sol\":1744:1770  moves[player1] = Move.None */\n      0x0100\n      exp\n      dup2\n      sload\n      dup2\n      0xff\n      mul\n      not\n      and\n      swap1\n      dup4\n      0x03\n      dup2\n      gt\n      iszero\n      tag_102\n      jumpi\n      tag_103\n      tag_39\n      jump\t// in\n    tag_103:\n    tag_102:\n      mul\n      or\n      swap1\n      sstore\n      pop\n        /* \"lab2.sol\":1798:1807  Move.None */\n      0x00\n        /* \"lab2.sol\":1781:1786  moves */\n      0x03\n        /* \"lab2.sol\":1781:1795  moves[player2] */\n      0x00\n        /* \"lab2.sol\":1787:1794  player2 */\n      0x01\n      0x00\n      swap1\n      sload\n      swap1\n      0x0100\n      exp\n      swap1\n      div\n      0xffffffffffffffffffffffffffffffffffffffff\n      and\n        /* \"lab2.sol\":1781:1795  moves[player2] */\n      0xffffffffffffffffffffffffffffffffffffffff\n      and\n      0xffffffffffffffffffffffffffffffffffffffff\n      and\n      dup2\n      mstore\n      0x20\n      add\n      swap1\n      dup2\n      mstore\n      0x20\n      add\n      0x00\n      keccak256\n      0x00\n        /* \"lab2.sol\":1781:1807  moves[player2] = Move.None */\n      0x0100\n      exp\n      dup2\n      sload\n      dup2\n      0xff\n      mul\n      not\n      and\n      swap1\n      dup4\n      0x03\n      dup2\n      gt\n      iszero\n      tag_104\n      jumpi\n      tag_105\n      tag_39\n      jump\t// in\n    tag_105:\n    tag_104:\n      mul\n      or\n      swap1\n      sstore\n      pop\n        /* \"lab2.sol\":1122:1815  {... */\n      pop\n      pop\n        /* \"lab2.sol\":1086:1815  function determineWinner() internal {... */\n      jump\t// out\n        /* \"#utility.yul\":7:133   */\n    tag_106:\n        /* \"#utility.yul\":44:51   */\n      0x00\n        /* \"#utility.yul\":84:126   */\n      0xffffffffffffffffffffffffffffffffffffffff\n        /* \"#utility.yul\":77:82   */\n      dup3\n        /* \"#utility.yul\":73:127   */\n      and\n        /* \"#utility.yul\":62:127   */\n      swap1\n      pop\n        /* \"#utility.yul\":7:133   */\n      swap2\n      swap1\n      pop\n      jump\t// out\n        /* \"#utility.yul\":139:235   */\n    tag_107:\n        /* \"#utility.yul\":176:183   */\n      0x00\n        /* \"#utility.yul\":205:229   */\n      tag_130\n        /* \"#utility.yul\":223:228   */\n      dup3\n        /* \"#utility.yul\":205:229   */\n      tag_106\n      jump\t// in\n    tag_130:\n        /* \"#utility.yul\":194:229   */\n      swap1\n      pop\n        /* \"#utility.yul\":139:235   */\n      swap2\n      swap1\n      pop\n      jump\t// out\n        /* \"#utility.yul\":241:359   */\n    tag_108:\n        /* \"#utility.yul\":328:352   */\n      tag_132\n        /* \"#utility.yul\":346:351   */\n      dup2\n        /* \"#utility.yul\":328:352   */\n      tag_107\n      jump\t// in\n    tag_132:\n        /* \"#utility.yul\":323:326   */\n      dup3\n        /* \"#utility.yul\":316:353   */\n      mstore\n        /* \"#utility.yul\":241:359   */\n      pop\n      pop\n      jump\t// out\n        /* \"#utility.yul\":365:587   */\n    tag_12:\n        /* \"#utility.yul\":458:462   */\n      0x00\n        /* \"#utility.yul\":496:498   */\n      0x20\n        /* \"#utility.yul\":485:494   */\n      dup3\n        /* \"#utility.yul\":481:499   */\n      add\n        /* \"#utility.yul\":473:499   */\n      swap1\n      pop\n        /* \"#utility.yul\":509:580   */\n      tag_134\n        /* \"#utility.yul\":577:578   */\n      0x00\n        /* \"#utility.yul\":566:575   */\n      dup4\n        /* \"#utility.yul\":562:579   */\n      add\n        /* \"#utility.yul\":553:559   */\n      dup5\n        /* \"#utility.yul\":509:580   */\n      tag_108\n      jump\t// in\n    tag_134:\n        /* \"#utility.yul\":365:587   */\n      swap3\n      swap2\n      pop\n      pop\n      jump\t// out\n        /* \"#utility.yul\":674:791   */\n    tag_110:\n        /* \"#utility.yul\":783:784   */\n      0x00\n        /* \"#utility.yul\":780:781   */\n      dup1\n        /* \"#utility.yul\":773:785   */\n      revert\n        /* \"#utility.yul\":920:1026   */\n    tag_112:\n        /* \"#utility.yul\":1000:1001   */\n      0x04\n        /* \"#utility.yul\":993:998   */\n      dup2\n        /* \"#utility.yul\":990:1002   */\n      lt\n        /* \"#utility.yul\":980:1020   */\n      tag_139\n      jumpi\n        /* \"#utility.yul\":1016:1017   */\n      0x00\n        /* \"#utility.yul\":1013:1014   */\n      dup1\n        /* \"#utility.yul\":1006:1018   */\n      revert\n        /* \"#utility.yul\":980:1020   */\n    tag_139:\n        /* \"#utility.yul\":920:1026   */\n      pop\n      jump\t// out\n        /* \"#utility.yul\":1032:1185   */\n    tag_113:\n        /* \"#utility.yul\":1085:1090   */\n      0x00\n        /* \"#utility.yul\":1123:1129   */\n      dup2\n        /* \"#utility.yul\":1110:1130   */\n      calldataload\n        /* \"#utility.yul\":1101:1130   */\n      swap1\n      pop\n        /* \"#utility.yul\":1139:1179   */\n      tag_141\n        /* \"#utility.yul\":1173:1178   */\n      dup2\n        /* \"#utility.yul\":1139:1179   */\n      tag_112\n      jump\t// in\n    tag_141:\n        /* \"#utility.yul\":1032:1185   */\n      swap3\n      swap2\n      pop\n      pop\n      jump\t// out\n        /* \"#utility.yul\":1191:1534   */\n    tag_15:\n        /* \"#utility.yul\":1257:1263   */\n      0x00\n        /* \"#utility.yul\":1306:1308   */\n      0x20\n        /* \"#utility.yul\":1294:1303   */\n      dup3\n        /* \"#utility.yul\":1285:1292   */\n      dup5\n        /* \"#utility.yul\":1281:1304   */\n      sub\n        /* \"#utility.yul\":1277:1309   */\n      slt\n        /* \"#utility.yul\":1274:1393   */\n      iszero\n      tag_143\n      jumpi\n        /* \"#utility.yul\":1312:1391   */\n      tag_144\n      tag_110\n      jump\t// in\n    tag_144:\n        /* \"#utility.yul\":1274:1393   */\n    tag_143:\n        /* \"#utility.yul\":1432:1433   */\n      0x00\n        /* \"#utility.yul\":1457:1517   */\n      tag_145\n        /* \"#utility.yul\":1509:1516   */\n      dup5\n        /* \"#utility.yul\":1500:1506   */\n      dup3\n        /* \"#utility.yul\":1489:1498   */\n      dup6\n        /* \"#utility.yul\":1485:1507   */\n      add\n        /* \"#utility.yul\":1457:1517   */\n      tag_113\n      jump\t// in\n    tag_145:\n        /* \"#utility.yul\":1447:1517   */\n      swap2\n      pop\n        /* \"#utility.yul\":1403:1527   */\n      pop\n        /* \"#utility.yul\":1191:1534   */\n      swap3\n      swap2\n      pop\n      pop\n      jump\t// out\n        /* \"#utility.yul\":1540:1662   */\n    tag_114:\n        /* \"#utility.yul\":1613:1637   */\n      tag_147\n        /* \"#utility.yul\":1631:1636   */\n      dup2\n        /* \"#utility.yul\":1613:1637   */\n      tag_107\n      jump\t// in\n    tag_147:\n        /* \"#utility.yul\":1606:1611   */\n      dup2\n        /* \"#utility.yul\":1603:1638   */\n      eq\n        /* \"#utility.yul\":1593:1656   */\n      tag_148\n      jumpi\n        /* \"#utility.yul\":1652:1653   */\n      0x00\n        /* \"#utility.yul\":1649:1650   */\n      dup1\n        /* \"#utility.yul\":1642:1654   */\n      revert\n        /* \"#utility.yul\":1593:1656   */\n    tag_148:\n        /* \"#utility.yul\":1540:1662   */\n      pop\n      jump\t// out\n        /* \"#utility.yul\":1668:1807   */\n    tag_115:\n        /* \"#utility.yul\":1714:1719   */\n      0x00\n        /* \"#utility.yul\":1752:1758   */\n      dup2\n        /* \"#utility.yul\":1739:1759   */\n      calldataload\n        /* \"#utility.yul\":1730:1759   */\n      swap1\n      pop\n        /* \"#utility.yul\":1768:1801   */\n      tag_150\n        /* \"#utility.yul\":1795:1800   */\n      dup2\n        /* \"#utility.yul\":1768:1801   */\n      tag_114\n      jump\t// in\n    tag_150:\n        /* \"#utility.yul\":1668:1807   */\n      swap3\n      swap2\n      pop\n      pop\n      jump\t// out\n        /* \"#utility.yul\":1813:2142   */\n    tag_27:\n        /* \"#utility.yul\":1872:1878   */\n      0x00\n        /* \"#utility.yul\":1921:1923   */\n      0x20\n        /* \"#utility.yul\":1909:1918   */\n      dup3\n        /* \"#utility.yul\":1900:1907   */\n      dup5\n        /* \"#utility.yul\":1896:1919   */\n      sub\n        /* \"#utility.yul\":1892:1924   */\n      slt\n        /* \"#utility.yul\":1889:2008   */\n      iszero\n      tag_152\n      jumpi\n        /* \"#utility.yul\":1927:2006   */\n      tag_153\n      tag_110\n      jump\t// in\n    tag_153:\n        /* \"#utility.yul\":1889:2008   */\n    tag_152:\n        /* \"#utility.yul\":2047:2048   */\n      0x00\n        /* \"#utility.yul\":2072:2125   */\n      tag_154\n        /* \"#utility.yul\":2117:2124   */\n      dup5\n        /* \"#utility.yul\":2108:2114   */\n      dup3\n        /* \"#utility.yul\":2097:2106   */\n      dup6\n        /* \"#utility.yul\":2093:2115   */\n      add\n        /* \"#utility.yul\":2072:2125   */\n      tag_115\n      jump\t// in\n    tag_154:\n        /* \"#utility.yul\":2062:2125   */\n      swap2\n      pop\n        /* \"#utility.yul\":2018:2135   */\n      pop\n        /* \"#utility.yul\":1813:2142   */\n      swap3\n      swap2\n      pop\n      pop\n      jump\t// out\n        /* \"#utility.yul\":2148:2328   */\n    tag_39:\n        /* \"#utility.yul\":2196:2273   */\n      0x4e487b7100000000000000000000000000000000000000000000000000000000\n        /* \"#utility.yul\":2193:2194   */\n      0x00\n        /* \"#utility.yul\":2186:2274   */\n      mstore\n        /* \"#utility.yul\":2293:2297   */\n      0x21\n        /* \"#utility.yul\":2290:2291   */\n      0x04\n        /* \"#utility.yul\":2283:2298   */\n      mstore\n        /* \"#utility.yul\":2317:2321   */\n      0x24\n        /* \"#utility.yul\":2314:2315   */\n      0x00\n        /* \"#utility.yul\":2307:2322   */\n      revert\n        /* \"#utility.yul\":2334:2446   */\n    tag_116:\n        /* \"#utility.yul\":2414:2415   */\n      0x04\n        /* \"#utility.yul\":2407:2412   */\n      dup2\n        /* \"#utility.yul\":2404:2416   */\n      lt\n        /* \"#utility.yul\":2394:2440   */\n      tag_157\n      jumpi\n        /* \"#utility.yul\":2420:2438   */\n      tag_158\n      tag_39\n      jump\t// in\n    tag_158:\n        /* \"#utility.yul\":2394:2440   */\n    tag_157:\n        /* \"#utility.yul\":2334:2446   */\n      pop\n      jump\t// out\n        /* \"#utility.yul\":2452:2577   */\n    tag_117:\n        /* \"#utility.yul\":2496:2503   */\n      0x00\n        /* \"#utility.yul\":2525:2530   */\n      dup2\n        /* \"#utility.yul\":2514:2530   */\n      swap1\n      pop\n        /* \"#utility.yul\":2531:2571   */\n      tag_160\n        /* \"#utility.yul\":2565:2570   */\n      dup3\n        /* \"#utility.yul\":2531:2571   */\n      tag_116\n      jump\t// in\n    tag_160:\n        /* \"#utility.yul\":2452:2577   */\n      swap2\n      swap1\n      pop\n      jump\t// out\n        /* \"#utility.yul\":2583:2708   */\n    tag_118:\n        /* \"#utility.yul\":2638:2647   */\n      0x00\n        /* \"#utility.yul\":2671:2702   */\n      tag_162\n        /* \"#utility.yul\":2696:2701   */\n      dup3\n        /* \"#utility.yul\":2671:2702   */\n      tag_117\n      jump\t// in\n    tag_162:\n        /* \"#utility.yul\":2658:2702   */\n      swap1\n      pop\n        /* \"#utility.yul\":2583:2708   */\n      swap2\n      swap1\n      pop\n      jump\t// out\n        /* \"#utility.yul\":2714:2855   */\n    tag_119:\n        /* \"#utility.yul\":2806:2848   */\n      tag_164\n        /* \"#utility.yul\":2842:2847   */\n      dup2\n        /* \"#utility.yul\":2806:2848   */\n      tag_118\n      jump\t// in\n    tag_164:\n        /* \"#utility.yul\":2801:2804   */\n      dup3\n        /* \"#utility.yul\":2794:2849   */\n      mstore\n        /* \"#utility.yul\":2714:2855   */\n      pop\n      pop\n      jump\t// out\n        /* \"#utility.yul\":2861:3093   */\n    tag_30:\n        /* \"#utility.yul\":2959:2963   */\n      0x00\n        /* \"#utility.yul\":2997:2999   */\n      0x20\n        /* \"#utility.yul\":2986:2995   */\n      dup3\n        /* \"#utility.yul\":2982:3000   */\n      add\n        /* \"#utility.yul\":2974:3000   */\n      swap1\n      pop\n        /* \"#utility.yul\":3010:3086   */\n      tag_166\n        /* \"#utility.yul\":3083:3084   */\n      0x00\n        /* \"#utility.yul\":3072:3081   */\n      dup4\n        /* \"#utility.yul\":3068:3085   */\n      add\n        /* \"#utility.yul\":3059:3065   */\n      dup5\n        /* \"#utility.yul\":3010:3086   */\n      tag_119\n      jump\t// in\n    tag_166:\n        /* \"#utility.yul\":2861:3093   */\n      swap3\n      swap2\n      pop\n      pop\n      jump\t// out\n        /* \"#utility.yul\":3099:3268   */\n    tag_120:\n        /* \"#utility.yul\":3183:3194   */\n      0x00\n        /* \"#utility.yul\":3217:3223   */\n      dup3\n        /* \"#utility.yul\":3212:3215   */\n      dup3\n        /* \"#utility.yul\":3205:3224   */\n      mstore\n        /* \"#utility.yul\":3257:3261   */\n      0x20\n        /* \"#utility.yul\":3252:3255   */\n      dup3\n        /* \"#utility.yul\":3248:3262   */\n      add\n        /* \"#utility.yul\":3233:3262   */\n      swap1\n      pop\n        /* \"#utility.yul\":3099:3268   */\n      swap3\n      swap2\n      pop\n      pop\n      jump\t// out\n        /* \"#utility.yul\":3274:3496   */\n    tag_121:\n        /* \"#utility.yul\":3414:3448   */\n      0x4f6e6c7920706c61796572732063616e2063616c6c20746869732066756e6374\n        /* \"#utility.yul\":3410:3411   */\n      0x00\n        /* \"#utility.yul\":3402:3408   */\n      dup3\n        /* \"#utility.yul\":3398:3412   */\n      add\n        /* \"#utility.yul\":3391:3449   */\n      mstore\n        /* \"#utility.yul\":3483:3488   */\n      0x696f6e0000000000000000000000000000000000000000000000000000000000\n        /* \"#utility.yul\":3478:3480   */\n      0x20\n        /* \"#utility.yul\":3470:3476   */\n      dup3\n        /* \"#utility.yul\":3466:3481   */\n      add\n        /* \"#utility.yul\":3459:3489   */\n      mstore\n        /* \"#utility.yul\":3274:3496   */\n      pop\n      jump\t// out\n        /* \"#utility.yul\":3502:3868   */\n    tag_122:\n        /* \"#utility.yul\":3644:3647   */\n      0x00\n        /* \"#utility.yul\":3665:3732   */\n      tag_170\n        /* \"#utility.yul\":3729:3731   */\n      0x23\n        /* \"#utility.yul\":3724:3727   */\n      dup4\n        /* \"#utility.yul\":3665:3732   */\n      tag_120\n      jump\t// in\n    tag_170:\n        /* \"#utility.yul\":3658:3732   */\n      swap2\n      pop\n        /* \"#utility.yul\":3741:3834   */\n      tag_171\n        /* \"#utility.yul\":3830:3833   */\n      dup3\n        /* \"#utility.yul\":3741:3834   */\n      tag_121\n      jump\t// in\n    tag_171:\n        /* \"#utility.yul\":3859:3861   */\n      0x40\n        /* \"#utility.yul\":3854:3857   */\n      dup3\n        /* \"#utility.yul\":3850:3862   */\n      add\n        /* \"#utility.yul\":3843:3862   */\n      swap1\n      pop\n        /* \"#utility.yul\":3502:3868   */\n      swap2\n      swap1\n      pop\n      jump\t// out\n        /* \"#utility.yul\":3874:4293   */\n    tag_35:\n        /* \"#utility.yul\":4040:4044   */\n      0x00\n        /* \"#utility.yul\":4078:4080   */\n      0x20\n        /* \"#utility.yul\":4067:4076   */\n      dup3\n        /* \"#utility.yul\":4063:4081   */\n      add\n        /* \"#utility.yul\":4055:4081   */\n      swap1\n      pop\n        /* \"#utility.yul\":4127:4136   */\n      dup2\n        /* \"#utility.yul\":4121:4125   */\n      dup2\n        /* \"#utility.yul\":4117:4137   */\n      sub\n        /* \"#utility.yul\":4113:4114   */\n      0x00\n        /* \"#utility.yul\":4102:4111   */\n      dup4\n        /* \"#utility.yul\":4098:4115   */\n      add\n        /* \"#utility.yul\":4091:4138   */\n      mstore\n        /* \"#utility.yul\":4155:4286   */\n      tag_173\n        /* \"#utility.yul\":4281:4285   */\n      dup2\n        /* \"#utility.yul\":4155:4286   */\n      tag_122\n      jump\t// in\n    tag_173:\n        /* \"#utility.yul\":4147:4286   */\n      swap1\n      pop\n        /* \"#utility.yul\":3874:4293   */\n      swap2\n      swap1\n      pop\n      jump\t// out\n        /* \"#utility.yul\":4299:4461   */\n    tag_123:\n        /* \"#utility.yul\":4439:4453   */\n      0x47616d652069732066756c6c0000000000000000000000000000000000000000\n        /* \"#utility.yul\":4435:4436   */\n      0x00\n        /* \"#utility.yul\":4427:4433   */\n      dup3\n        /* \"#utility.yul\":4423:4437   */\n      add\n        /* \"#utility.yul\":4416:4454   */\n      mstore\n        /* \"#utility.yul\":4299:4461   */\n      pop\n      jump\t// out\n        /* \"#utility.yul\":4467:4833   */\n    tag_124:\n        /* \"#utility.yul\":4609:4612   */\n      0x00\n        /* \"#utility.yul\":4630:4697   */\n      tag_176\n        /* \"#utility.yul\":4694:4696   */\n      0x0c\n        /* \"#utility.yul\":4689:4692   */\n      dup4\n        /* \"#utility.yul\":4630:4697   */\n      tag_120\n      jump\t// in\n    tag_176:\n        /* \"#utility.yul\":4623:4697   */\n      swap2\n      pop\n        /* \"#utility.yul\":4706:4799   */\n      tag_177\n        /* \"#utility.yul\":4795:4798   */\n      dup3\n        /* \"#utility.yul\":4706:4799   */\n      tag_123\n      jump\t// in\n    tag_177:\n        /* \"#utility.yul\":4824:4826   */\n      0x20\n        /* \"#utility.yul\":4819:4822   */\n      dup3\n        /* \"#utility.yul\":4815:4827   */\n      add\n        /* \"#utility.yul\":4808:4827   */\n      swap1\n      pop\n        /* \"#utility.yul\":4467:4833   */\n      swap2\n      swap1\n      pop\n      jump\t// out\n        /* \"#utility.yul\":4839:5258   */\n    tag_56:\n        /* \"#utility.yul\":5005:5009   */\n      0x00\n        /* \"#utility.yul\":5043:5045   */\n      0x20\n        /* \"#utility.yul\":5032:5041   */\n      dup3\n        /* \"#utility.yul\":5028:5046   */\n      add\n        /* \"#utility.yul\":5020:5046   */\n      swap1\n      pop\n        /* \"#utility.yul\":5092:5101   */\n      dup2\n        /* \"#utility.yul\":5086:5090   */\n      dup2\n        /* \"#utility.yul\":5082:5102   */\n      sub\n        /* \"#utility.yul\":5078:5079   */\n      0x00\n        /* \"#utility.yul\":5067:5076   */\n      dup4\n        /* \"#utility.yul\":5063:5080   */\n      add\n        /* \"#utility.yul\":5056:5103   */\n      mstore\n        /* \"#utility.yul\":5120:5251   */\n      tag_179\n        /* \"#utility.yul\":5246:5250   */\n      dup2\n        /* \"#utility.yul\":5120:5251   */\n      tag_124\n      jump\t// in\n    tag_179:\n        /* \"#utility.yul\":5112:5251   */\n      swap1\n      pop\n        /* \"#utility.yul\":4839:5258   */\n      swap2\n      swap1\n      pop\n      jump\t// out\n        /* \"#utility.yul\":5264:5446   */\n    tag_125:\n        /* \"#utility.yul\":5404:5438   */\n      0x596f752063616e6e6f7420706c617920616761696e737420796f757273656c66\n        /* \"#utility.yul\":5400:5401   */\n      0x00\n        /* \"#utility.yul\":5392:5398   */\n      dup3\n        /* \"#utility.yul\":5388:5402   */\n      add\n        /* \"#utility.yul\":5381:5439   */\n      mstore\n        /* \"#utility.yul\":5264:5446   */\n      pop\n      jump\t// out\n        /* \"#utility.yul\":5452:5818   */\n    tag_126:\n        /* \"#utility.yul\":5594:5597   */\n      0x00\n        /* \"#utility.yul\":5615:5682   */\n      tag_182\n        /* \"#utility.yul\":5679:5681   */\n      0x20\n        /* \"#utility.yul\":5674:5677   */\n      dup4\n        /* \"#utility.yul\":5615:5682   */\n      tag_120\n      jump\t// in\n    tag_182:\n        /* \"#utility.yul\":5608:5682   */\n      swap2\n      pop\n        /* \"#utility.yul\":5691:5784   */\n      tag_183\n        /* \"#utility.yul\":5780:5783   */\n      dup3\n        /* \"#utility.yul\":5691:5784   */\n      tag_125\n      jump\t// in\n    tag_183:\n        /* \"#utility.yul\":5809:5811   */\n      0x20\n        /* \"#utility.yul\":5804:5807   */\n      dup3\n        /* \"#utility.yul\":5800:5812   */\n      add\n        /* \"#utility.yul\":5793:5812   */\n      swap1\n      pop\n        /* \"#utility.yul\":5452:5818   */\n      swap2\n      swap1\n      pop\n      jump\t// out\n        /* \"#utility.yul\":5824:6243   */\n    tag_59:\n        /* \"#utility.yul\":5990:5994   */\n      0x00\n        /* \"#utility.yul\":6028:6030   */\n      0x20\n        /* \"#utility.yul\":6017:6026   */\n      dup3\n        /* \"#utility.yul\":6013:6031   */\n      add\n        /* \"#utility.yul\":6005:6031   */\n      swap1\n      pop\n        /* \"#utility.yul\":6077:6086   */\n      dup2\n        /* \"#utility.yul\":6071:6075   */\n      dup2\n        /* \"#utility.yul\":6067:6087   */\n      sub\n        /* \"#utility.yul\":6063:6064   */\n      0x00\n        /* \"#utility.yul\":6052:6061   */\n      dup4\n        /* \"#utility.yul\":6048:6065   */\n      add\n        /* \"#utility.yul\":6041:6088   */\n      mstore\n        /* \"#utility.yul\":6105:6236   */\n      tag_185\n        /* \"#utility.yul\":6231:6235   */\n      dup2\n        /* \"#utility.yul\":6105:6236   */\n      tag_126\n      jump\t// in\n    tag_185:\n        /* \"#utility.yul\":6097:6236   */\n      swap1\n      pop\n        /* \"#utility.yul\":5824:6243   */\n      swap2\n      swap1\n      pop\n      jump\t// out\n        /* \"#utility.yul\":6249:6933   */\n    tag_101:\n        /* \"#utility.yul\":6464:6468   */\n      0x00\n        /* \"#utility.yul\":6502:6505   */\n      0xa0\n        /* \"#utility.yul\":6491:6500   */\n      dup3\n        /* \"#utility.yul\":6487:6506   */\n      add\n        /* \"#utility.yul\":6479:6506   */\n      swap1\n      pop\n        /* \"#utility.yul\":6516:6587   */\n      tag_187\n        /* \"#utility.yul\":6584:6585   */\n      0x00\n        /* \"#utility.yul\":6573:6582   */\n      dup4\n        /* \"#utility.yul\":6569:6586   */\n      add\n        /* \"#utility.yul\":6560:6566   */\n      dup9\n        /* \"#utility.yul\":6516:6587   */\n      tag_108\n      jump\t// in\n    tag_187:\n        /* \"#utility.yul\":6597:6674   */\n      tag_188\n        /* \"#utility.yul\":6670:6672   */\n      0x20\n        /* \"#utility.yul\":6659:6668   */\n      dup4\n        /* \"#utility.yul\":6655:6673   */\n      add\n        /* \"#utility.yul\":6646:6652   */\n      dup8\n        /* \"#utility.yul\":6597:6674   */\n      tag_119\n      jump\t// in\n    tag_188:\n        /* \"#utility.yul\":6684:6756   */\n      tag_189\n        /* \"#utility.yul\":6752:6754   */\n      0x40\n        /* \"#utility.yul\":6741:6750   */\n      dup4\n        /* \"#utility.yul\":6737:6755   */\n      add\n        /* \"#utility.yul\":6728:6734   */\n      dup7\n        /* \"#utility.yul\":6684:6756   */\n      tag_108\n      jump\t// in\n    tag_189:\n        /* \"#utility.yul\":6766:6843   */\n      tag_190\n        /* \"#utility.yul\":6839:6841   */\n      0x60\n        /* \"#utility.yul\":6828:6837   */\n      dup4\n        /* \"#utility.yul\":6824:6842   */\n      add\n        /* \"#utility.yul\":6815:6821   */\n      dup6\n        /* \"#utility.yul\":6766:6843   */\n      tag_119\n      jump\t// in\n    tag_190:\n        /* \"#utility.yul\":6853:6926   */\n      tag_191\n        /* \"#utility.yul\":6921:6924   */\n      0x80\n        /* \"#utility.yul\":6910:6919   */\n      dup4\n        /* \"#utility.yul\":6906:6925   */\n      add\n        /* \"#utility.yul\":6897:6903   */\n      dup5\n        /* \"#utility.yul\":6853:6926   */\n      tag_108\n      jump\t// in\n    tag_191:\n        /* \"#utility.yul\":6249:6933   */\n      swap7\n      swap6\n      pop\n      pop\n      pop\n      pop\n      pop\n      pop\n      jump\t// out\n\n    auxdata: 0xa2646970667358221220e9c7ce0273de06b2ae7e803da3e5291bfdf9f5a975fe51573b43f6521f48e3ef64736f6c63430008120033\n}\n",
				"bytecode": {
					"linkReferences": {},
					"object": "608060405234801561001057600080fd5b50610fa7806100206000396000f3fe608060405234801561001057600080fd5b50600436106100625760003560e01c806359a5f12d14610067578063650271d214610085578063d30895e4146100a1578063d4f77b1c146100bf578063dfbf53ae146100c9578063e15a808b146100e7575b600080fd5b61006f610117565b60405161007c9190610c46565b60405180910390f35b61009f600480360381019061009a9190610c8b565b61013d565b005b6100a96103d0565b6040516100b69190610c46565b60405180910390f35b6100c76103f4565b005b6100d1610647565b6040516100de9190610c46565b60405180910390f35b61010160048036038101906100fc9190610ce4565b61066d565b60405161010e9190610d88565b60405180910390f35b600160009054906101000a900473ffffffffffffffffffffffffffffffffffffffff1681565b60008054906101000a900473ffffffffffffffffffffffffffffffffffffffff1673ffffffffffffffffffffffffffffffffffffffff163373ffffffffffffffffffffffffffffffffffffffff1614806101e45750600160009054906101000a900473ffffffffffffffffffffffffffffffffffffffff1673ffffffffffffffffffffffffffffffffffffffff163373ffffffffffffffffffffffffffffffffffffffff16145b610223576040517f08c379a000000000000000000000000000000000000000000000000000000000815260040161021a90610e26565b60405180910390fd5b80600360003373ffffffffffffffffffffffffffffffffffffffff1673ffffffffffffffffffffffffffffffffffffffff16815260200190815260200160002060006101000a81548160ff0219169083600381111561028557610284610d11565b5b02179055506000600381111561029e5761029d610d11565b5b600360008060009054906101000a900473ffffffffffffffffffffffffffffffffffffffff1673ffffffffffffffffffffffffffffffffffffffff1673ffffffffffffffffffffffffffffffffffffffff16815260200190815260200160002060009054906101000a900460ff16600381111561031e5761031d610d11565b5b141580156103bf57506000600381111561033b5761033a610d11565b5b60036000600160009054906101000a900473ffffffffffffffffffffffffffffffffffffffff1673ffffffffffffffffffffffffffffffffffffffff1673ffffffffffffffffffffffffffffffffffffffff16815260200190815260200160002060009054906101000a900460ff1660038111156103bc576103bb610d11565b5b14155b156103cd576103cc61068d565b5b50565b60008054906101000a900473ffffffffffffffffffffffffffffffffffffffff1681565b600073ffffffffffffffffffffffffffffffffffffffff1660008054906101000a900473ffffffffffffffffffffffffffffffffffffffff1673ffffffffffffffffffffffffffffffffffffffff16148061049d5750600073ffffffffffffffffffffffffffffffffffffffff16600160009054906101000a900473ffffffffffffffffffffffffffffffffffffffff1673ffffffffffffffffffffffffffffffffffffffff16145b6104dc576040517f08c379a00000000000000000000000000000000000000000000000000000000081526004016104d390610e92565b60405180910390fd5b60008054906101000a900473ffffffffffffffffffffffffffffffffffffffff1673ffffffffffffffffffffffffffffffffffffffff163373ffffffffffffffffffffffffffffffffffffffff160361056a576040517f08c379a000000000000000000000000000000000000000000000000000000000815260040161056190610efe565b60405180910390fd5b600073ffffffffffffffffffffffffffffffffffffffff1660008054906101000a900473ffffffffffffffffffffffffffffffffffffffff1673ffffffffffffffffffffffffffffffffffffffff160361060357336000806101000a81548173ffffffffffffffffffffffffffffffffffffffff021916908373ffffffffffffffffffffffffffffffffffffffff160217905550610645565b33600160006101000a81548173ffffffffffffffffffffffffffffffffffffffff021916908373ffffffffffffffffffffffffffffffffffffffff1602179055505b565b600260009054906101000a900473ffffffffffffffffffffffffffffffffffffffff1681565b60036020528060005260406000206000915054906101000a900460ff1681565b6000600360008060009054906101000a900473ffffffffffffffffffffffffffffffffffffffff1673ffffffffffffffffffffffffffffffffffffffff1673ffffffffffffffffffffffffffffffffffffffff16815260200190815260200160002060009054906101000a900460ff169050600060036000600160009054906101000a900473ffffffffffffffffffffffffffffffffffffffff1673ffffffffffffffffffffffffffffffffffffffff1673ffffffffffffffffffffffffffffffffffffffff16815260200190815260200160002060009054906101000a900460ff16905080600381111561078557610784610d11565b5b82600381111561079857610797610d11565b5b036107e4576000600260006101000a81548173ffffffffffffffffffffffffffffffffffffffff021916908373ffffffffffffffffffffffffffffffffffffffff1602179055506109c8565b600160038111156107f8576107f7610d11565b5b82600381111561080b5761080a610d11565b5b14801561083b575060038081111561082657610825610d11565b5b81600381111561083957610838610d11565b5b145b8061089a57506002600381111561085557610854610d11565b5b82600381111561086857610867610d11565b5b14801561089957506001600381111561088457610883610d11565b5b81600381111561089757610896610d11565b5b145b5b806108f857506003808111156108b3576108b2610d11565b5b8260038111156108c6576108c5610d11565b5b1480156108f75750600260038111156108e2576108e1610d11565b5b8160038111156108f5576108f4610d11565b5b145b5b156109635760008054906101000a900473ffffffffffffffffffffffffffffffffffffffff16600260006101000a81548173ffffffffffffffffffffffffffffffffffffffff021916908373ffffffffffffffffffffffffffffffffffffffff1602179055506109c7565b600160009054906101000a900473ffffffffffffffffffffffffffffffffffffffff16600260006101000a81548173ffffffffffffffffffffffffffffffffffffffff021916908373ffffffffffffffffffffffffffffffffffffffff1602179055505b5b7f28eb7e0257e83d257016f7b4cba578ced670303b214d7abd930dad6f3756f7bb60008054906101000a900473ffffffffffffffffffffffffffffffffffffffff1683600160009054906101000a900473ffffffffffffffffffffffffffffffffffffffff1684600260009054906101000a900473ffffffffffffffffffffffffffffffffffffffff16604051610a63959493929190610f1e565b60405180910390a160008060006101000a81548173ffffffffffffffffffffffffffffffffffffffff021916908373ffffffffffffffffffffffffffffffffffffffff1602179055506000600160006101000a81548173ffffffffffffffffffffffffffffffffffffffff021916908373ffffffffffffffffffffffffffffffffffffffff1602179055506000600360008060009054906101000a900473ffffffffffffffffffffffffffffffffffffffff1673ffffffffffffffffffffffffffffffffffffffff1673ffffffffffffffffffffffffffffffffffffffff16815260200190815260200160002060006101000a81548160ff02191690836003811115610b7257610b71610d11565b5b0217905550600060036000600160009054906101000a900473ffffffffffffffffffffffffffffffffffffffff1673ffffffffffffffffffffffffffffffffffffffff1673ffffffffffffffffffffffffffffffffffffffff16815260200190815260200160002060006101000a81548160ff02191690836003811115610bfc57610bfb610d11565b5b02179055505050565b600073ffffffffffffffffffffffffffffffffffffffff82169050919050565b6000610c3082610c05565b9050919050565b610c4081610c25565b82525050565b6000602082019050610c5b6000830184610c37565b92915050565b600080fd5b60048110610c7357600080fd5b50565b600081359050610c8581610c66565b92915050565b600060208284031215610ca157610ca0610c61565b5b6000610caf84828501610c76565b91505092915050565b610cc181610c25565b8114610ccc57600080fd5b50565b600081359050610cde81610cb8565b92915050565b600060208284031215610cfa57610cf9610c61565b5b6000610d0884828501610ccf565b91505092915050565b7f4e487b7100000000000000000000000000000000000000000000000000000000600052602160045260246000fd5b60048110610d5157610d50610d11565b5b50565b6000819050610d6282610d40565b919050565b6000610d7282610d54565b9050919050565b610d8281610d67565b82525050565b6000602082019050610d9d6000830184610d79565b92915050565b600082825260208201905092915050565b7f4f6e6c7920706c61796572732063616e2063616c6c20746869732066756e637460008201527f696f6e0000000000000000000000000000000000000000000000000000000000602082015250565b6000610e10602383610da3565b9150610e1b82610db4565b604082019050919050565b60006020820190508181036000830152610e3f81610e03565b9050919050565b7f47616d652069732066756c6c0000000000000000000000000000000000000000600082015250565b6000610e7c600c83610da3565b9150610e8782610e46565b602082019050919050565b60006020820190508181036000830152610eab81610e6f565b9050919050565b7f596f752063616e6e6f7420706c617920616761696e737420796f757273656c66600082015250565b6000610ee8602083610da3565b9150610ef382610eb2565b602082019050919050565b60006020820190508181036000830152610f1781610edb565b9050919050565b600060a082019050610f336000830188610c37565b610f406020830187610d79565b610f4d6040830186610c37565b610f5a6060830185610d79565b610f676080830184610c37565b969550505050505056fea2646970667358221220e9c7ce0273de06b2ae7e803da3e5291bfdf9f5a975fe51573b43f6521f48e3ef64736f6c63430008120033",
					"opcodes": "PUSH1 0x80 PUSH1 0x40 MSTORE CALLVALUE DUP1 ISZERO PUSH2 0x10 JUMPI PUSH1 0x0 DUP1 REVERT JUMPDEST POP PUSH2 0xFA7 DUP1 PUSH2 0x20 PUSH1 0x0 CODECOPY PUSH1 0x0 RETURN INVALID PUSH1 0x80 PUSH1 0x40 MSTORE CALLVALUE DUP1 ISZERO PUSH2 0x10 JUMPI PUSH1 0x0 DUP1 REVERT JUMPDEST POP PUSH1 0x4 CALLDATASIZE LT PUSH2 0x62 JUMPI PUSH1 0x0 CALLDATALOAD PUSH1 0xE0 SHR DUP1 PUSH4 0x59A5F12D EQ PUSH2 0x67 JUMPI DUP1 PUSH4 0x650271D2 EQ PUSH2 0x85 JUMPI DUP1 PUSH4 0xD30895E4 EQ PUSH2 0xA1 JUMPI DUP1 PUSH4 0xD4F77B1C EQ PUSH2 0xBF JUMPI DUP1 PUSH4 0xDFBF53AE EQ PUSH2 0xC9 JUMPI DUP1 PUSH4 0xE15A808B EQ PUSH2 0xE7 JUMPI JUMPDEST PUSH1 0x0 DUP1 REVERT JUMPDEST PUSH2 0x6F PUSH2 0x117 JUMP JUMPDEST PUSH1 0x40 MLOAD PUSH2 0x7C SWAP2 SWAP1 PUSH2 0xC46 JUMP JUMPDEST PUSH1 0x40 MLOAD DUP1 SWAP2 SUB SWAP1 RETURN JUMPDEST PUSH2 0x9F PUSH1 0x4 DUP1 CALLDATASIZE SUB DUP2 ADD SWAP1 PUSH2 0x9A SWAP2 SWAP1 PUSH2 0xC8B JUMP JUMPDEST PUSH2 0x13D JUMP JUMPDEST STOP JUMPDEST PUSH2 0xA9 PUSH2 0x3D0 JUMP JUMPDEST PUSH1 0x40 MLOAD PUSH2 0xB6 SWAP2 SWAP1 PUSH2 0xC46 JUMP JUMPDEST PUSH1 0x40 MLOAD DUP1 SWAP2 SUB SWAP1 RETURN JUMPDEST PUSH2 0xC7 PUSH2 0x3F4 JUMP JUMPDEST STOP JUMPDEST PUSH2 0xD1 PUSH2 0x647 JUMP JUMPDEST PUSH1 0x40 MLOAD PUSH2 0xDE SWAP2 SWAP1 PUSH2 0xC46 JUMP JUMPDEST PUSH1 0x40 MLOAD DUP1 SWAP2 SUB SWAP1 RETURN JUMPDEST PUSH2 0x101 PUSH1 0x4 DUP1 CALLDATASIZE SUB DUP2 ADD SWAP1 PUSH2 0xFC SWAP2 SWAP1 PUSH2 0xCE4 JUMP JUMPDEST PUSH2 0x66D JUMP JUMPDEST PUSH1 0x40 MLOAD PUSH2 0x10E SWAP2 SWAP1 PUSH2 0xD88 JUMP JUMPDEST PUSH1 0x40 MLOAD DUP1 SWAP2 SUB SWAP1 RETURN JUMPDEST PUSH1 0x1 PUSH1 0x0 SWAP1 SLOAD SWAP1 PUSH2 0x100 EXP SWAP1 DIV PUSH20 0xFFFFFFFFFFFFFFFFFFFFFFFFFFFFFFFFFFFFFFFF AND DUP2 JUMP JUMPDEST PUSH1 0x0 DUP1 SLOAD SWAP1 PUSH2 0x100 EXP SWAP1 DIV PUSH20 0xFFFFFFFFFFFFFFFFFFFFFFFFFFFFFFFFFFFFFFFF AND PUSH20 0xFFFFFFFFFFFFFFFFFFFFFFFFFFFFFFFFFFFFFFFF AND CALLER PUSH20 0xFFFFFFFFFFFFFFFFFFFFFFFFFFFFFFFFFFFFFFFF AND EQ DUP1 PUSH2 0x1E4 JUMPI POP PUSH1 0x1 PUSH1 0x0 SWAP1 SLOAD SWAP1 PUSH2 0x100 EXP SWAP1 DIV PUSH20 0xFFFFFFFFFFFFFFFFFFFFFFFFFFFFFFFFFFFFFFFF AND PUSH20 0xFFFFFFFFFFFFFFFFFFFFFFFFFFFFFFFFFFFFFFFF AND CALLER PUSH20 0xFFFFFFFFFFFFFFFFFFFFFFFFFFFFFFFFFFFFFFFF AND EQ JUMPDEST PUSH2 0x223 JUMPI PUSH1 0x40 MLOAD PUSH32 0x8C379A000000000000000000000000000000000000000000000000000000000 DUP2 MSTORE PUSH1 0x4 ADD PUSH2 0x21A SWAP1 PUSH2 0xE26 JUMP JUMPDEST PUSH1 0x40 MLOAD DUP1 SWAP2 SUB SWAP1 REVERT JUMPDEST DUP1 PUSH1 0x3 PUSH1 0x0 CALLER PUSH20 0xFFFFFFFFFFFFFFFFFFFFFFFFFFFFFFFFFFFFFFFF AND PUSH20 0xFFFFFFFFFFFFFFFFFFFFFFFFFFFFFFFFFFFFFFFF AND DUP2 MSTORE PUSH1 0x20 ADD SWAP1 DUP2 MSTORE PUSH1 0x20 ADD PUSH1 0x0 KECCAK256 PUSH1 0x0 PUSH2 0x100 EXP DUP2 SLOAD DUP2 PUSH1 0xFF MUL NOT AND SWAP1 DUP4 PUSH1 0x3 DUP2 GT ISZERO PUSH2 0x285 JUMPI PUSH2 0x284 PUSH2 0xD11 JUMP JUMPDEST JUMPDEST MUL OR SWAP1 SSTORE POP PUSH1 0x0 PUSH1 0x3 DUP2 GT ISZERO PUSH2 0x29E JUMPI PUSH2 0x29D PUSH2 0xD11 JUMP JUMPDEST JUMPDEST PUSH1 0x3 PUSH1 0x0 DUP1 PUSH1 0x0 SWAP1 SLOAD SWAP1 PUSH2 0x100 EXP SWAP1 DIV PUSH20 0xFFFFFFFFFFFFFFFFFFFFFFFFFFFFFFFFFFFFFFFF AND PUSH20 0xFFFFFFFFFFFFFFFFFFFFFFFFFFFFFFFFFFFFFFFF AND PUSH20 0xFFFFFFFFFFFFFFFFFFFFFFFFFFFFFFFFFFFFFFFF AND DUP2 MSTORE PUSH1 0x20 ADD SWAP1 DUP2 MSTORE PUSH1 0x20 ADD PUSH1 0x0 KECCAK256 PUSH1 0x0 SWAP1 SLOAD SWAP1 PUSH2 0x100 EXP SWAP1 DIV PUSH1 0xFF AND PUSH1 0x3 DUP2 GT ISZERO PUSH2 0x31E JUMPI PUSH2 0x31D PUSH2 0xD11 JUMP JUMPDEST JUMPDEST EQ ISZERO DUP1 ISZERO PUSH2 0x3BF JUMPI POP PUSH1 0x0 PUSH1 0x3 DUP2 GT ISZERO PUSH2 0x33B JUMPI PUSH2 0x33A PUSH2 0xD11 JUMP JUMPDEST JUMPDEST PUSH1 0x3 PUSH1 0x0 PUSH1 0x1 PUSH1 0x0 SWAP1 SLOAD SWAP1 PUSH2 0x100 EXP SWAP1 DIV PUSH20 0xFFFFFFFFFFFFFFFFFFFFFFFFFFFFFFFFFFFFFFFF AND PUSH20 0xFFFFFFFFFFFFFFFFFFFFFFFFFFFFFFFFFFFFFFFF AND PUSH20 0xFFFFFFFFFFFFFFFFFFFFFFFFFFFFFFFFFFFFFFFF AND DUP2 MSTORE PUSH1 0x20 ADD SWAP1 DUP2 MSTORE PUSH1 0x20 ADD PUSH1 0x0 KECCAK256 PUSH1 0x0 SWAP1 SLOAD SWAP1 PUSH2 0x100 EXP SWAP1 DIV PUSH1 0xFF AND PUSH1 0x3 DUP2 GT ISZERO PUSH2 0x3BC JUMPI PUSH2 0x3BB PUSH2 0xD11 JUMP JUMPDEST JUMPDEST EQ ISZERO JUMPDEST ISZERO PUSH2 0x3CD JUMPI PUSH2 0x3CC PUSH2 0x68D JUMP JUMPDEST JUMPDEST POP JUMP JUMPDEST PUSH1 0x0 DUP1 SLOAD SWAP1 PUSH2 0x100 EXP SWAP1 DIV PUSH20 0xFFFFFFFFFFFFFFFFFFFFFFFFFFFFFFFFFFFFFFFF AND DUP2 JUMP JUMPDEST PUSH1 0x0 PUSH20 0xFFFFFFFFFFFFFFFFFFFFFFFFFFFFFFFFFFFFFFFF AND PUSH1 0x0 DUP1 SLOAD SWAP1 PUSH2 0x100 EXP SWAP1 DIV PUSH20 0xFFFFFFFFFFFFFFFFFFFFFFFFFFFFFFFFFFFFFFFF AND PUSH20 0xFFFFFFFFFFFFFFFFFFFFFFFFFFFFFFFFFFFFFFFF AND EQ DUP1 PUSH2 0x49D JUMPI POP PUSH1 0x0 PUSH20 0xFFFFFFFFFFFFFFFFFFFFFFFFFFFFFFFFFFFFFFFF AND PUSH1 0x1 PUSH1 0x0 SWAP1 SLOAD SWAP1 PUSH2 0x100 EXP SWAP1 DIV PUSH20 0xFFFFFFFFFFFFFFFFFFFFFFFFFFFFFFFFFFFFFFFF AND PUSH20 0xFFFFFFFFFFFFFFFFFFFFFFFFFFFFFFFFFFFFFFFF AND EQ JUMPDEST PUSH2 0x4DC JUMPI PUSH1 0x40 MLOAD PUSH32 0x8C379A000000000000000000000000000000000000000000000000000000000 DUP2 MSTORE PUSH1 0x4 ADD PUSH2 0x4D3 SWAP1 PUSH2 0xE92 JUMP JUMPDEST PUSH1 0x40 MLOAD DUP1 SWAP2 SUB SWAP1 REVERT JUMPDEST PUSH1 0x0 DUP1 SLOAD SWAP1 PUSH2 0x100 EXP SWAP1 DIV PUSH20 0xFFFFFFFFFFFFFFFFFFFFFFFFFFFFFFFFFFFFFFFF AND PUSH20 0xFFFFFFFFFFFFFFFFFFFFFFFFFFFFFFFFFFFFFFFF AND CALLER PUSH20 0xFFFFFFFFFFFFFFFFFFFFFFFFFFFFFFFFFFFFFFFF AND SUB PUSH2 0x56A JUMPI PUSH1 0x40 MLOAD PUSH32 0x8C379A000000000000000000000000000000000000000000000000000000000 DUP2 MSTORE PUSH1 0x4 ADD PUSH2 0x561 SWAP1 PUSH2 0xEFE JUMP JUMPDEST PUSH1 0x40 MLOAD DUP1 SWAP2 SUB SWAP1 REVERT JUMPDEST PUSH1 0x0 PUSH20 0xFFFFFFFFFFFFFFFFFFFFFFFFFFFFFFFFFFFFFFFF AND PUSH1 0x0 DUP1 SLOAD SWAP1 PUSH2 0x100 EXP SWAP1 DIV PUSH20 0xFFFFFFFFFFFFFFFFFFFFFFFFFFFFFFFFFFFFFFFF AND PUSH20 0xFFFFFFFFFFFFFFFFFFFFFFFFFFFFFFFFFFFFFFFF AND SUB PUSH2 0x603 JUMPI CALLER PUSH1 0x0 DUP1 PUSH2 0x100 EXP DUP2 SLOAD DUP2 PUSH20 0xFFFFFFFFFFFFFFFFFFFFFFFFFFFFFFFFFFFFFFFF MUL NOT AND SWAP1 DUP4 PUSH20 0xFFFFFFFFFFFFFFFFFFFFFFFFFFFFFFFFFFFFFFFF AND MUL OR SWAP1 SSTORE POP PUSH2 0x645 JUMP JUMPDEST CALLER PUSH1 0x1 PUSH1 0x0 PUSH2 0x100 EXP DUP2 SLOAD DUP2 PUSH20 0xFFFFFFFFFFFFFFFFFFFFFFFFFFFFFFFFFFFFFFFF MUL NOT AND SWAP1 DUP4 PUSH20 0xFFFFFFFFFFFFFFFFFFFFFFFFFFFFFFFFFFFFFFFF AND MUL OR SWAP1 SSTORE POP JUMPDEST JUMP JUMPDEST PUSH1 0x2 PUSH1 0x0 SWAP1 SLOAD SWAP1 PUSH2 0x100 EXP SWAP1 DIV PUSH20 0xFFFFFFFFFFFFFFFFFFFFFFFFFFFFFFFFFFFFFFFF AND DUP2 JUMP JUMPDEST PUSH1 0x3 PUSH1 0x20 MSTORE DUP1 PUSH1 0x0 MSTORE PUSH1 0x40 PUSH1 0x0 KECCAK256 PUSH1 0x0 SWAP2 POP SLOAD SWAP1 PUSH2 0x100 EXP SWAP1 DIV PUSH1 0xFF AND DUP2 JUMP JUMPDEST PUSH1 0x0 PUSH1 0x3 PUSH1 0x0 DUP1 PUSH1 0x0 SWAP1 SLOAD SWAP1 PUSH2 0x100 EXP SWAP1 DIV PUSH20 0xFFFFFFFFFFFFFFFFFFFFFFFFFFFFFFFFFFFFFFFF AND PUSH20 0xFFFFFFFFFFFFFFFFFFFFFFFFFFFFFFFFFFFFFFFF AND PUSH20 0xFFFFFFFFFFFFFFFFFFFFFFFFFFFFFFFFFFFFFFFF AND DUP2 MSTORE PUSH1 0x20 ADD SWAP1 DUP2 MSTORE PUSH1 0x20 ADD PUSH1 0x0 KECCAK256 PUSH1 0x0 SWAP1 SLOAD SWAP1 PUSH2 0x100 EXP SWAP1 DIV PUSH1 0xFF AND SWAP1 POP PUSH1 0x0 PUSH1 0x3 PUSH1 0x0 PUSH1 0x1 PUSH1 0x0 SWAP1 SLOAD SWAP1 PUSH2 0x100 EXP SWAP1 DIV PUSH20 0xFFFFFFFFFFFFFFFFFFFFFFFFFFFFFFFFFFFFFFFF AND PUSH20 0xFFFFFFFFFFFFFFFFFFFFFFFFFFFFFFFFFFFFFFFF AND PUSH20 0xFFFFFFFFFFFFFFFFFFFFFFFFFFFFFFFFFFFFFFFF AND DUP2 MSTORE PUSH1 0x20 ADD SWAP1 DUP2 MSTORE PUSH1 0x20 ADD PUSH1 0x0 KECCAK256 PUSH1 0x0 SWAP1 SLOAD SWAP1 PUSH2 0x100 EXP SWAP1 DIV PUSH1 0xFF AND SWAP1 POP DUP1 PUSH1 0x3 DUP2 GT ISZERO PUSH2 0x785 JUMPI PUSH2 0x784 PUSH2 0xD11 JUMP JUMPDEST JUMPDEST DUP3 PUSH1 0x3 DUP2 GT ISZERO PUSH2 0x798 JUMPI PUSH2 0x797 PUSH2 0xD11 JUMP JUMPDEST JUMPDEST SUB PUSH2 0x7E4 JUMPI PUSH1 0x0 PUSH1 0x2 PUSH1 0x0 PUSH2 0x100 EXP DUP2 SLOAD DUP2 PUSH20 0xFFFFFFFFFFFFFFFFFFFFFFFFFFFFFFFFFFFFFFFF MUL NOT AND SWAP1 DUP4 PUSH20 0xFFFFFFFFFFFFFFFFFFFFFFFFFFFFFFFFFFFFFFFF AND MUL OR SWAP1 SSTORE POP PUSH2 0x9C8 JUMP JUMPDEST PUSH1 0x1 PUSH1 0x3 DUP2 GT ISZERO PUSH2 0x7F8 JUMPI PUSH2 0x7F7 PUSH2 0xD11 JUMP JUMPDEST JUMPDEST DUP3 PUSH1 0x3 DUP2 GT ISZERO PUSH2 0x80B JUMPI PUSH2 0x80A PUSH2 0xD11 JUMP JUMPDEST JUMPDEST EQ DUP1 ISZERO PUSH2 0x83B JUMPI POP PUSH1 0x3 DUP1 DUP2 GT ISZERO PUSH2 0x826 JUMPI PUSH2 0x825 PUSH2 0xD11 JUMP JUMPDEST JUMPDEST DUP2 PUSH1 0x3 DUP2 GT ISZERO PUSH2 0x839 JUMPI PUSH2 0x838 PUSH2 0xD11 JUMP JUMPDEST JUMPDEST EQ JUMPDEST DUP1 PUSH2 0x89A JUMPI POP PUSH1 0x2 PUSH1 0x3 DUP2 GT ISZERO PUSH2 0x855 JUMPI PUSH2 0x854 PUSH2 0xD11 JUMP JUMPDEST JUMPDEST DUP3 PUSH1 0x3 DUP2 GT ISZERO PUSH2 0x868 JUMPI PUSH2 0x867 PUSH2 0xD11 JUMP JUMPDEST JUMPDEST EQ DUP1 ISZERO PUSH2 0x899 JUMPI POP PUSH1 0x1 PUSH1 0x3 DUP2 GT ISZERO PUSH2 0x884 JUMPI PUSH2 0x883 PUSH2 0xD11 JUMP JUMPDEST JUMPDEST DUP2 PUSH1 0x3 DUP2 GT ISZERO PUSH2 0x897 JUMPI PUSH2 0x896 PUSH2 0xD11 JUMP JUMPDEST JUMPDEST EQ JUMPDEST JUMPDEST DUP1 PUSH2 0x8F8 JUMPI POP PUSH1 0x3 DUP1 DUP2 GT ISZERO PUSH2 0x8B3 JUMPI PUSH2 0x8B2 PUSH2 0xD11 JUMP JUMPDEST JUMPDEST DUP3 PUSH1 0x3 DUP2 GT ISZERO PUSH2 0x8C6 JUMPI PUSH2 0x8C5 PUSH2 0xD11 JUMP JUMPDEST JUMPDEST EQ DUP1 ISZERO PUSH2 0x8F7 JUMPI POP PUSH1 0x2 PUSH1 0x3 DUP2 GT ISZERO PUSH2 0x8E2 JUMPI PUSH2 0x8E1 PUSH2 0xD11 JUMP JUMPDEST JUMPDEST DUP2 PUSH1 0x3 DUP2 GT ISZERO PUSH2 0x8F5 JUMPI PUSH2 0x8F4 PUSH2 0xD11 JUMP JUMPDEST JUMPDEST EQ JUMPDEST JUMPDEST ISZERO PUSH2 0x963 JUMPI PUSH1 0x0 DUP1 SLOAD SWAP1 PUSH2 0x100 EXP SWAP1 DIV PUSH20 0xFFFFFFFFFFFFFFFFFFFFFFFFFFFFFFFFFFFFFFFF AND PUSH1 0x2 PUSH1 0x0 PUSH2 0x100 EXP DUP2 SLOAD DUP2 PUSH20 0xFFFFFFFFFFFFFFFFFFFFFFFFFFFFFFFFFFFFFFFF MUL NOT AND SWAP1 DUP4 PUSH20 0xFFFFFFFFFFFFFFFFFFFFFFFFFFFFFFFFFFFFFFFF AND MUL OR SWAP1 SSTORE POP PUSH2 0x9C7 JUMP JUMPDEST PUSH1 0x1 PUSH1 0x0 SWAP1 SLOAD SWAP1 PUSH2 0x100 EXP SWAP1 DIV PUSH20 0xFFFFFFFFFFFFFFFFFFFFFFFFFFFFFFFFFFFFFFFF AND PUSH1 0x2 PUSH1 0x0 PUSH2 0x100 EXP DUP2 SLOAD DUP2 PUSH20 0xFFFFFFFFFFFFFFFFFFFFFFFFFFFFFFFFFFFFFFFF MUL NOT AND SWAP1 DUP4 PUSH20 0xFFFFFFFFFFFFFFFFFFFFFFFFFFFFFFFFFFFFFFFF AND MUL OR SWAP1 SSTORE POP JUMPDEST JUMPDEST PUSH32 0x28EB7E0257E83D257016F7B4CBA578CED670303B214D7ABD930DAD6F3756F7BB PUSH1 0x0 DUP1 SLOAD SWAP1 PUSH2 0x100 EXP SWAP1 DIV PUSH20 0xFFFFFFFFFFFFFFFFFFFFFFFFFFFFFFFFFFFFFFFF AND DUP4 PUSH1 0x1 PUSH1 0x0 SWAP1 SLOAD SWAP1 PUSH2 0x100 EXP SWAP1 DIV PUSH20 0xFFFFFFFFFFFFFFFFFFFFFFFFFFFFFFFFFFFFFFFF AND DUP5 PUSH1 0x2 PUSH1 0x0 SWAP1 SLOAD SWAP1 PUSH2 0x100 EXP SWAP1 DIV PUSH20 0xFFFFFFFFFFFFFFFFFFFFFFFFFFFFFFFFFFFFFFFF AND PUSH1 0x40 MLOAD PUSH2 0xA63 SWAP6 SWAP5 SWAP4 SWAP3 SWAP2 SWAP1 PUSH2 0xF1E JUMP JUMPDEST PUSH1 0x40 MLOAD DUP1 SWAP2 SUB SWAP1 LOG1 PUSH1 0x0 DUP1 PUSH1 0x0 PUSH2 0x100 EXP DUP2 SLOAD DUP2 PUSH20 0xFFFFFFFFFFFFFFFFFFFFFFFFFFFFFFFFFFFFFFFF MUL NOT AND SWAP1 DUP4 PUSH20 0xFFFFFFFFFFFFFFFFFFFFFFFFFFFFFFFFFFFFFFFF AND MUL OR SWAP1 SSTORE POP PUSH1 0x0 PUSH1 0x1 PUSH1 0x0 PUSH2 0x100 EXP DUP2 SLOAD DUP2 PUSH20 0xFFFFFFFFFFFFFFFFFFFFFFFFFFFFFFFFFFFFFFFF MUL NOT AND SWAP1 DUP4 PUSH20 0xFFFFFFFFFFFFFFFFFFFFFFFFFFFFFFFFFFFFFFFF AND MUL OR SWAP1 SSTORE POP PUSH1 0x0 PUSH1 0x3 PUSH1 0x0 DUP1 PUSH1 0x0 SWAP1 SLOAD SWAP1 PUSH2 0x100 EXP SWAP1 DIV PUSH20 0xFFFFFFFFFFFFFFFFFFFFFFFFFFFFFFFFFFFFFFFF AND PUSH20 0xFFFFFFFFFFFFFFFFFFFFFFFFFFFFFFFFFFFFFFFF AND PUSH20 0xFFFFFFFFFFFFFFFFFFFFFFFFFFFFFFFFFFFFFFFF AND DUP2 MSTORE PUSH1 0x20 ADD SWAP1 DUP2 MSTORE PUSH1 0x20 ADD PUSH1 0x0 KECCAK256 PUSH1 0x0 PUSH2 0x100 EXP DUP2 SLOAD DUP2 PUSH1 0xFF MUL NOT AND SWAP1 DUP4 PUSH1 0x3 DUP2 GT ISZERO PUSH2 0xB72 JUMPI PUSH2 0xB71 PUSH2 0xD11 JUMP JUMPDEST JUMPDEST MUL OR SWAP1 SSTORE POP PUSH1 0x0 PUSH1 0x3 PUSH1 0x0 PUSH1 0x1 PUSH1 0x0 SWAP1 SLOAD SWAP1 PUSH2 0x100 EXP SWAP1 DIV PUSH20 0xFFFFFFFFFFFFFFFFFFFFFFFFFFFFFFFFFFFFFFFF AND PUSH20 0xFFFFFFFFFFFFFFFFFFFFFFFFFFFFFFFFFFFFFFFF AND PUSH20 0xFFFFFFFFFFFFFFFFFFFFFFFFFFFFFFFFFFFFFFFF AND DUP2 MSTORE PUSH1 0x20 ADD SWAP1 DUP2 MSTORE PUSH1 0x20 ADD PUSH1 0x0 KECCAK256 PUSH1 0x0 PUSH2 0x100 EXP DUP2 SLOAD DUP2 PUSH1 0xFF MUL NOT AND SWAP1 DUP4 PUSH1 0x3 DUP2 GT ISZERO PUSH2 0xBFC JUMPI PUSH2 0xBFB PUSH2 0xD11 JUMP JUMPDEST JUMPDEST MUL OR SWAP1 SSTORE POP POP POP JUMP JUMPDEST PUSH1 0x0 PUSH20 0xFFFFFFFFFFFFFFFFFFFFFFFFFFFFFFFFFFFFFFFF DUP3 AND SWAP1 POP SWAP2 SWAP1 POP JUMP JUMPDEST PUSH1 0x0 PUSH2 0xC30 DUP3 PUSH2 0xC05 JUMP JUMPDEST SWAP1 POP SWAP2 SWAP1 POP JUMP JUMPDEST PUSH2 0xC40 DUP2 PUSH2 0xC25 JUMP JUMPDEST DUP3 MSTORE POP POP JUMP JUMPDEST PUSH1 0x0 PUSH1 0x20 DUP3 ADD SWAP1 POP PUSH2 0xC5B PUSH1 0x0 DUP4 ADD DUP5 PUSH2 0xC37 JUMP JUMPDEST SWAP3 SWAP2 POP POP JUMP JUMPDEST PUSH1 0x0 DUP1 REVERT JUMPDEST PUSH1 0x4 DUP2 LT PUSH2 0xC73 JUMPI PUSH1 0x0 DUP1 REVERT JUMPDEST POP JUMP JUMPDEST PUSH1 0x0 DUP2 CALLDATALOAD SWAP1 POP PUSH2 0xC85 DUP2 PUSH2 0xC66 JUMP JUMPDEST SWAP3 SWAP2 POP POP JUMP JUMPDEST PUSH1 0x0 PUSH1 0x20 DUP3 DUP5 SUB SLT ISZERO PUSH2 0xCA1 JUMPI PUSH2 0xCA0 PUSH2 0xC61 JUMP JUMPDEST JUMPDEST PUSH1 0x0 PUSH2 0xCAF DUP5 DUP3 DUP6 ADD PUSH2 0xC76 JUMP JUMPDEST SWAP2 POP POP SWAP3 SWAP2 POP POP JUMP JUMPDEST PUSH2 0xCC1 DUP2 PUSH2 0xC25 JUMP JUMPDEST DUP2 EQ PUSH2 0xCCC JUMPI PUSH1 0x0 DUP1 REVERT JUMPDEST POP JUMP JUMPDEST PUSH1 0x0 DUP2 CALLDATALOAD SWAP1 POP PUSH2 0xCDE DUP2 PUSH2 0xCB8 JUMP JUMPDEST SWAP3 SWAP2 POP POP JUMP JUMPDEST PUSH1 0x0 PUSH1 0x20 DUP3 DUP5 SUB SLT ISZERO PUSH2 0xCFA JUMPI PUSH2 0xCF9 PUSH2 0xC61 JUMP JUMPDEST JUMPDEST PUSH1 0x0 PUSH2 0xD08 DUP5 DUP3 DUP6 ADD PUSH2 0xCCF JUMP JUMPDEST SWAP2 POP POP SWAP3 SWAP2 POP POP JUMP JUMPDEST PUSH32 0x4E487B7100000000000000000000000000000000000000000000000000000000 PUSH1 0x0 MSTORE PUSH1 0x21 PUSH1 0x4 MSTORE PUSH1 0x24 PUSH1 0x0 REVERT JUMPDEST PUSH1 0x4 DUP2 LT PUSH2 0xD51 JUMPI PUSH2 0xD50 PUSH2 0xD11 JUMP JUMPDEST JUMPDEST POP JUMP JUMPDEST PUSH1 0x0 DUP2 SWAP1 POP PUSH2 0xD62 DUP3 PUSH2 0xD40 JUMP JUMPDEST SWAP2 SWAP1 POP JUMP JUMPDEST PUSH1 0x0 PUSH2 0xD72 DUP3 PUSH2 0xD54 JUMP JUMPDEST SWAP1 POP SWAP2 SWAP1 POP JUMP JUMPDEST PUSH2 0xD82 DUP2 PUSH2 0xD67 JUMP JUMPDEST DUP3 MSTORE POP POP JUMP JUMPDEST PUSH1 0x0 PUSH1 0x20 DUP3 ADD SWAP1 POP PUSH2 0xD9D PUSH1 0x0 DUP4 ADD DUP5 PUSH2 0xD79 JUMP JUMPDEST SWAP3 SWAP2 POP POP JUMP JUMPDEST PUSH1 0x0 DUP3 DUP3 MSTORE PUSH1 0x20 DUP3 ADD SWAP1 POP SWAP3 SWAP2 POP POP JUMP JUMPDEST PUSH32 0x4F6E6C7920706C61796572732063616E2063616C6C20746869732066756E6374 PUSH1 0x0 DUP3 ADD MSTORE PUSH32 0x696F6E0000000000000000000000000000000000000000000000000000000000 PUSH1 0x20 DUP3 ADD MSTORE POP JUMP JUMPDEST PUSH1 0x0 PUSH2 0xE10 PUSH1 0x23 DUP4 PUSH2 0xDA3 JUMP JUMPDEST SWAP2 POP PUSH2 0xE1B DUP3 PUSH2 0xDB4 JUMP JUMPDEST PUSH1 0x40 DUP3 ADD SWAP1 POP SWAP2 SWAP1 POP JUMP JUMPDEST PUSH1 0x0 PUSH1 0x20 DUP3 ADD SWAP1 POP DUP2 DUP2 SUB PUSH1 0x0 DUP4 ADD MSTORE PUSH2 0xE3F DUP2 PUSH2 0xE03 JUMP JUMPDEST SWAP1 POP SWAP2 SWAP1 POP JUMP JUMPDEST PUSH32 0x47616D652069732066756C6C0000000000000000000000000000000000000000 PUSH1 0x0 DUP3 ADD MSTORE POP JUMP JUMPDEST PUSH1 0x0 PUSH2 0xE7C PUSH1 0xC DUP4 PUSH2 0xDA3 JUMP JUMPDEST SWAP2 POP PUSH2 0xE87 DUP3 PUSH2 0xE46 JUMP JUMPDEST PUSH1 0x20 DUP3 ADD SWAP1 POP SWAP2 SWAP1 POP JUMP JUMPDEST PUSH1 0x0 PUSH1 0x20 DUP3 ADD SWAP1 POP DUP2 DUP2 SUB PUSH1 0x0 DUP4 ADD MSTORE PUSH2 0xEAB DUP2 PUSH2 0xE6F JUMP JUMPDEST SWAP1 POP SWAP2 SWAP1 POP JUMP JUMPDEST PUSH32 0x596F752063616E6E6F7420706C617920616761696E737420796F757273656C66 PUSH1 0x0 DUP3 ADD MSTORE POP JUMP JUMPDEST PUSH1 0x0 PUSH2 0xEE8 PUSH1 0x20 DUP4 PUSH2 0xDA3 JUMP JUMPDEST SWAP2 POP PUSH2 0xEF3 DUP3 PUSH2 0xEB2 JUMP JUMPDEST PUSH1 0x20 DUP3 ADD SWAP1 POP SWAP2 SWAP1 POP JUMP JUMPDEST PUSH1 0x0 PUSH1 0x20 DUP3 ADD SWAP1 POP DUP2 DUP2 SUB PUSH1 0x0 DUP4 ADD MSTORE PUSH2 0xF17 DUP2 PUSH2 0xEDB JUMP JUMPDEST SWAP1 POP SWAP2 SWAP1 POP JUMP JUMPDEST PUSH1 0x0 PUSH1 0xA0 DUP3 ADD SWAP1 POP PUSH2 0xF33 PUSH1 0x0 DUP4 ADD DUP9 PUSH2 0xC37 JUMP JUMPDEST PUSH2 0xF40 PUSH1 0x20 DUP4 ADD DUP8 PUSH2 0xD79 JUMP JUMPDEST PUSH2 0xF4D PUSH1 0x40 DUP4 ADD DUP7 PUSH2 0xC37 JUMP JUMPDEST PUSH2 0xF5A PUSH1 0x60 DUP4 ADD DUP6 PUSH2 0xD79 JUMP JUMPDEST PUSH2 0xF67 PUSH1 0x80 DUP4 ADD DUP5 PUSH2 0xC37 JUMP JUMPDEST SWAP7 SWAP6 POP POP POP POP POP POP JUMP INVALID LOG2 PUSH5 0x6970667358 0x22 SLT KECCAK256 0xE9 0xC7 0xCE MUL PUSH20 0xDE06B2AE7E803DA3E5291BFDF9F5A975FE51573B NUMBER 0xF6 MSTORE 0x1F BASEFEE 0xE3 0xEF PUSH5 0x736F6C6343 STOP ADDMOD SLT STOP CALLER "
				},
				"gasEstimates": {
					"creation": {
						"codeDepositCost": "801400",
						"executionCost": "838",
						"totalCost": "802238"
					},
					"external": {
						"joinGame()": "33144",
						"makeMove(uint8)": "infinite",
						"moves(address)": "3022",
						"player1()": "2533",
						"player2()": "2492",
						"winner()": "2580"
					},
					"internal": {
						"determineWinner()": "infinite"
					}
				},
				"methodIdentifiers": {
					"joinGame()": "d4f77b1c",
					"makeMove(uint8)": "650271d2",
					"moves(address)": "e15a808b",
					"player1()": "d30895e4",
					"player2()": "59a5f12d",
					"winner()": "dfbf53ae"
				}
			},
			"storageLayout": {
				"storage": [
					{
						"astId": 3,
						"contract": "lab2.sol:RockPaperScissors",
						"label": "player1",
						"offset": 0,
						"slot": "0",
						"type": "t_address"
					},
					{
						"astId": 5,
						"contract": "lab2.sol:RockPaperScissors",
						"label": "player2",
						"offset": 0,
						"slot": "1",
						"type": "t_address"
					},
					{
						"astId": 7,
						"contract": "lab2.sol:RockPaperScissors",
						"label": "winner",
						"offset": 0,
						"slot": "2",
						"type": "t_address"
					},
					{
						"astId": 17,
						"contract": "lab2.sol:RockPaperScissors",
						"label": "moves",
						"offset": 0,
						"slot": "3",
						"type": "t_mapping(t_address,t_enum(Move)12)"
					}
				],
				"types": {
					"t_address": {
						"encoding": "inplace",
						"label": "address",
						"numberOfBytes": "20"
					},
					"t_enum(Move)12": {
						"encoding": "inplace",
						"label": "enum RockPaperScissors.Move",
						"numberOfBytes": "1"
					},
					"t_mapping(t_address,t_enum(Move)12)": {
						"encoding": "mapping",
						"key": "t_address",
						"label": "mapping(address => enum RockPaperScissors.Move)",
						"numberOfBytes": "32",
						"value": "t_enum(Move)12"
					}
				}
			},
			"userdoc": {
				"kind": "user",
				"methods": {},
				"version": 1
			}
		}
	}
}